{
  "transactions": [
    {
      "hash": "0x08572b7524faa45364d655a971b3b397dfd90ba4c7504a851131f45b08424c75",
      "transactionType": "CALL",
      "contractName": "Token",
      "contractAddress": "0xe8888fe3bde6f287bdd0922bea6e0bf6e5f418e7",
      "function": "approve(address,uint256)",
      "arguments": [
        "0x65B1DDD708dc7e169c831ae1F4Fd4Dc94bF0a417",
        "1001000000000000000000"
      ],
      "transaction": {
        "from": "0x51256f5459c1dde0c794818af42569030901a098",
        "to": "0xe8888fe3bde6f287bdd0922bea6e0bf6e5f418e7",
        "gas": "0x10c6e",
        "value": "0x0",
        "input": "0x095ea7b300000000000000000000000065b1ddd708dc7e169c831ae1f4fd4dc94bf0a41700000000000000000000000000000000000000000000003643aa647986040000",
        "nonce": "0x37d",
        "chainId": "0xaa36a7"
      },
      "additionalContracts": [],
      "isFixedGasLimit": false
    },
    {
      "hash": "0x4cf9af805a68af330acc264011cf467542ecbaf5bc5f647f38eca618a7c9b787",
      "transactionType": "CALL",
      "contractName": null,
      "contractAddress": "0x65b1ddd708dc7e169c831ae1f4fd4dc94bf0a417",
      "function": "issuanceIndexTokens(address,address[],uint24[],uint256,uint24)",
      "arguments": [
        "0xE8888fE3Bde6f287BDd0922bEA6E0bF6e5f418e7",
        "[0xE8888fE3Bde6f287BDd0922bEA6E0bF6e5f418e7, 0xfFf9976782d46CC05630D1f6eBAb18b2324d6B14]",
        "[3000]",
        "100000000000000000000",
        "3000"
      ],
      "transaction": {
        "from": "0x51256f5459c1dde0c794818af42569030901a098",
        "to": "0x65b1ddd708dc7e169c831ae1f4fd4dc94bf0a417",
        "gas": "0x27950d",
        "value": "0x0",
        "input": "0x2ecaca17000000000000000000000000e8888fe3bde6f287bdd0922bea6e0bf6e5f418e700000000000000000000000000000000000000000000000000000000000000a000000000000000000000000000000000000000000000000000000000000001000000000000000000000000000000000000000000000000056bc75e2d631000000000000000000000000000000000000000000000000000000000000000000bb80000000000000000000000000000000000000000000000000000000000000002000000000000000000000000e8888fe3bde6f287bdd0922bea6e0bf6e5f418e7000000000000000000000000fff9976782d46cc05630d1f6ebab18b2324d6b1400000000000000000000000000000000000000000000000000000000000000010000000000000000000000000000000000000000000000000000000000000bb8",
        "nonce": "0x37e",
        "chainId": "0xaa36a7"
      },
      "additionalContracts": [],
      "isFixedGasLimit": false
    },
    {
      "hash": "0x66a8ad8f910528cc9cf1c4882aca9fc5a460c123ba7ea1a260780e065436d141",
      "transactionType": "CALL",
      "contractName": null,
      "contractAddress": "0x65b1ddd708dc7e169c831ae1f4fd4dc94bf0a417",
      "function": "redemption(uint256,address,address[],uint24[],uint24)",
      "arguments": [
        "312624312625078398460",
        "0xfFf9976782d46CC05630D1f6eBAb18b2324d6B14",
        "[0xfFf9976782d46CC05630D1f6eBAb18b2324d6B14, 0xE8888fE3Bde6f287BDd0922bEA6E0bF6e5f418e7]",
        "[3000]",
        "3"
      ],
      "transaction": {
        "from": "0x51256f5459c1dde0c794818af42569030901a098",
        "to": "0x65b1ddd708dc7e169c831ae1f4fd4dc94bf0a417",
        "gas": "0x20b951",
        "value": "0x0",
        "input": "0xf76a48e4000000000000000000000000000000000000000000000010f288abfa5876edfc000000000000000000000000fff9976782d46cc05630d1f6ebab18b2324d6b1400000000000000000000000000000000000000000000000000000000000000a0000000000000000000000000000000000000000000000000000000000000010000000000000000000000000000000000000000000000000000000000000000030000000000000000000000000000000000000000000000000000000000000002000000000000000000000000fff9976782d46cc05630d1f6ebab18b2324d6b14000000000000000000000000e8888fe3bde6f287bdd0922bea6e0bf6e5f418e700000000000000000000000000000000000000000000000000000000000000010000000000000000000000000000000000000000000000000000000000000bb8",
        "nonce": "0x37f",
        "chainId": "0xaa36a7"
      },
      "additionalContracts": [],
      "isFixedGasLimit": false
    }
  ],
  "receipts": [
    {
      "status": "0x1",
      "cumulativeGasUsed": "0xd5f631",
      "logs": [
        {
          "address": "0xe8888fe3bde6f287bdd0922bea6e0bf6e5f418e7",
          "topics": [
            "0x8c5be1e5ebec7d5bd14f71427d1e84f3dd0314c0f7b2291e5b200ac8c7c3b925",
            "0x00000000000000000000000051256f5459c1dde0c794818af42569030901a098",
            "0x00000000000000000000000065b1ddd708dc7e169c831ae1f4fd4dc94bf0a417"
          ],
          "data": "0x00000000000000000000000000000000000000000000003643aa647986040000",
          "blockHash": "0xf05a0aa95731c08432c3e1aaf321b6e610ffae3278771e11fa8eb41ef0ee8f90",
          "blockNumber": "0x73ecc1",
          "transactionHash": "0x08572b7524faa45364d655a971b3b397dfd90ba4c7504a851131f45b08424c75",
          "transactionIndex": "0xaf",
          "logIndex": "0x10f",
          "removed": false
        }
      ],
      "logsBloom": "0x00000000000000000000000000000000000000000020000000000000000000000000000000000000000000000000000000000000000000000000000000200000002000000000000400000000000000800000000000000000000000000000000000000000000000000000000000000000000000000000000800000000000000000000000000000000000000000000000000000000000000000000000000000000020000000000000000001010004000000000000000000000000000000000000000000000000000000000000000000000000000000000000000000000000000000010000000000000000000010000000000000000000000000000000000000000",
      "type": "0x2",
      "transactionHash": "0x08572b7524faa45364d655a971b3b397dfd90ba4c7504a851131f45b08424c75",
      "transactionIndex": "0xaf",
      "blockHash": "0xf05a0aa95731c08432c3e1aaf321b6e610ffae3278771e11fa8eb41ef0ee8f90",
      "blockNumber": "0x73ecc1",
      "gasUsed": "0xb78b",
      "effectiveGasPrice": "0x192aa6ac8",
      "from": "0x51256f5459c1dde0c794818af42569030901a098",
      "to": "0xe8888fe3bde6f287bdd0922bea6e0bf6e5f418e7",
      "contractAddress": null
    },
    {
      "status": "0x1",
      "cumulativeGasUsed": "0xf29e57",
      "logs": [
        {
          "address": "0xe8888fe3bde6f287bdd0922bea6e0bf6e5f418e7",
          "topics": [
            "0xddf252ad1be2c89b69c2b068fc378daa952ba7f163c4a11628f55a4df523b3ef",
            "0x00000000000000000000000051256f5459c1dde0c794818af42569030901a098",
            "0x00000000000000000000000065b1ddd708dc7e169c831ae1f4fd4dc94bf0a417"
          ],
          "data": "0x0000000000000000000000000000000000000000000000056d2aa3a5c09a0000",
          "blockHash": "0xf05a0aa95731c08432c3e1aaf321b6e610ffae3278771e11fa8eb41ef0ee8f90",
          "blockNumber": "0x73ecc1",
          "transactionHash": "0x4cf9af805a68af330acc264011cf467542ecbaf5bc5f647f38eca618a7c9b787",
          "transactionIndex": "0xb0",
          "logIndex": "0x110",
          "removed": false
        },
        {
          "address": "0xe8888fe3bde6f287bdd0922bea6e0bf6e5f418e7",
          "topics": [
            "0x8c5be1e5ebec7d5bd14f71427d1e84f3dd0314c0f7b2291e5b200ac8c7c3b925",
            "0x00000000000000000000000065b1ddd708dc7e169c831ae1f4fd4dc94bf0a417",
            "0x0000000000000000000000007b192a675ac3877c6308f7d96033b9c2d7ae5600"
          ],
          "data": "0x0000000000000000000000000000000000000000000000056d2aa3a5c09a0000",
          "blockHash": "0xf05a0aa95731c08432c3e1aaf321b6e610ffae3278771e11fa8eb41ef0ee8f90",
          "blockNumber": "0x73ecc1",
          "transactionHash": "0x4cf9af805a68af330acc264011cf467542ecbaf5bc5f647f38eca618a7c9b787",
          "transactionIndex": "0xb0",
          "logIndex": "0x111",
          "removed": false
        },
        {
          "address": "0xfff9976782d46cc05630d1f6ebab18b2324d6b14",
          "topics": [
            "0xddf252ad1be2c89b69c2b068fc378daa952ba7f163c4a11628f55a4df523b3ef",
            "0x00000000000000000000000070393314c70c903ebf6ef073783b7f207cc9a5e2",
            "0x00000000000000000000000065b1ddd708dc7e169c831ae1f4fd4dc94bf0a417"
          ],
          "data": "0x000000000000000000000000000000000000000000000000000398badeac2e43",
          "blockHash": "0xf05a0aa95731c08432c3e1aaf321b6e610ffae3278771e11fa8eb41ef0ee8f90",
          "blockNumber": "0x73ecc1",
          "transactionHash": "0x4cf9af805a68af330acc264011cf467542ecbaf5bc5f647f38eca618a7c9b787",
          "transactionIndex": "0xb0",
          "logIndex": "0x112",
          "removed": false
        },
        {
          "address": "0xe8888fe3bde6f287bdd0922bea6e0bf6e5f418e7",
          "topics": [
            "0xddf252ad1be2c89b69c2b068fc378daa952ba7f163c4a11628f55a4df523b3ef",
            "0x00000000000000000000000065b1ddd708dc7e169c831ae1f4fd4dc94bf0a417",
            "0x00000000000000000000000070393314c70c903ebf6ef073783b7f207cc9a5e2"
          ],
          "data": "0x0000000000000000000000000000000000000000000000056d2aa3a5c09a0000",
          "blockHash": "0xf05a0aa95731c08432c3e1aaf321b6e610ffae3278771e11fa8eb41ef0ee8f90",
          "blockNumber": "0x73ecc1",
          "transactionHash": "0x4cf9af805a68af330acc264011cf467542ecbaf5bc5f647f38eca618a7c9b787",
          "transactionIndex": "0xb0",
          "logIndex": "0x113",
          "removed": false
        },
        {
          "address": "0x70393314c70c903ebf6ef073783b7f207cc9a5e2",
          "topics": [
            "0xc42079f94a6350d7e6235f29174924f928cc2ac818eb64fed8004e115fbcca67",
            "0x0000000000000000000000007b192a675ac3877c6308f7d96033b9c2d7ae5600",
            "0x00000000000000000000000065b1ddd708dc7e169c831ae1f4fd4dc94bf0a417"
          ],
          "data": "0x0000000000000000000000000000000000000000000000056d2aa3a5c09a0000fffffffffffffffffffffffffffffffffffffffffffffffffffc67452153d1bd000000000000000000000000000000000000000000d0a7e99f68b871e38925f2000000000000000000000000000000000000000000000018d51d783d1c0bbfa4fffffffffffffffffffffffffffffffffffffffffffffffffffffffffffe3ec8",
          "blockHash": "0xf05a0aa95731c08432c3e1aaf321b6e610ffae3278771e11fa8eb41ef0ee8f90",
          "blockNumber": "0x73ecc1",
          "transactionHash": "0x4cf9af805a68af330acc264011cf467542ecbaf5bc5f647f38eca618a7c9b787",
          "transactionIndex": "0xb0",
          "logIndex": "0x114",
          "removed": false
        },
        {
          "address": "0xfff9976782d46cc05630d1f6ebab18b2324d6b14",
          "topics": [
            "0xddf252ad1be2c89b69c2b068fc378daa952ba7f163c4a11628f55a4df523b3ef",
            "0x00000000000000000000000065b1ddd708dc7e169c831ae1f4fd4dc94bf0a417",
            "0x00000000000000000000000051256f5459c1dde0c794818af42569030901a098"
          ],
          "data": "0x000000000000000000000000000000000000000000000000000000ebb4f56b90",
          "blockHash": "0xf05a0aa95731c08432c3e1aaf321b6e610ffae3278771e11fa8eb41ef0ee8f90",
          "blockNumber": "0x73ecc1",
          "transactionHash": "0x4cf9af805a68af330acc264011cf467542ecbaf5bc5f647f38eca618a7c9b787",
          "transactionIndex": "0xb0",
          "logIndex": "0x115",
          "removed": false
        },
        {
          "address": "0xfff9976782d46cc05630d1f6ebab18b2324d6b14",
          "topics": [
            "0x8c5be1e5ebec7d5bd14f71427d1e84f3dd0314c0f7b2291e5b200ac8c7c3b925",
            "0x00000000000000000000000065b1ddd708dc7e169c831ae1f4fd4dc94bf0a417",
            "0x0000000000000000000000007b192a675ac3877c6308f7d96033b9c2d7ae5600"
          ],
          "data": "0x000000000000000000000000000000000000000000000000000089f8aca836ce",
          "blockHash": "0xf05a0aa95731c08432c3e1aaf321b6e610ffae3278771e11fa8eb41ef0ee8f90",
          "blockNumber": "0x73ecc1",
          "transactionHash": "0x4cf9af805a68af330acc264011cf467542ecbaf5bc5f647f38eca618a7c9b787",
          "transactionIndex": "0xb0",
          "logIndex": "0x116",
          "removed": false
        },
        {
          "address": "0x9cd4f9bec89e00a560840174dc8054fb4b3e1858",
          "topics": [
            "0xddf252ad1be2c89b69c2b068fc378daa952ba7f163c4a11628f55a4df523b3ef",
            "0x00000000000000000000000004910128b1d626f1a144ba59329efe6172cad937",
            "0x00000000000000000000000098e4d7a3cbd82d34a0ea59a062dba356b2e685dd"
          ],
          "data": "0x00000000000000000000000000000000000000000000000063a3fb586c21ca51",
          "blockHash": "0xf05a0aa95731c08432c3e1aaf321b6e610ffae3278771e11fa8eb41ef0ee8f90",
          "blockNumber": "0x73ecc1",
          "transactionHash": "0x4cf9af805a68af330acc264011cf467542ecbaf5bc5f647f38eca618a7c9b787",
          "transactionIndex": "0xb0",
          "logIndex": "0x117",
          "removed": false
        },
        {
          "address": "0xfff9976782d46cc05630d1f6ebab18b2324d6b14",
          "topics": [
            "0xddf252ad1be2c89b69c2b068fc378daa952ba7f163c4a11628f55a4df523b3ef",
            "0x00000000000000000000000065b1ddd708dc7e169c831ae1f4fd4dc94bf0a417",
            "0x00000000000000000000000004910128b1d626f1a144ba59329efe6172cad937"
          ],
          "data": "0x000000000000000000000000000000000000000000000000000089f8aca836ce",
          "blockHash": "0xf05a0aa95731c08432c3e1aaf321b6e610ffae3278771e11fa8eb41ef0ee8f90",
          "blockNumber": "0x73ecc1",
          "transactionHash": "0x4cf9af805a68af330acc264011cf467542ecbaf5bc5f647f38eca618a7c9b787",
          "transactionIndex": "0xb0",
          "logIndex": "0x118",
          "removed": false
        },
        {
          "address": "0x04910128b1d626f1a144ba59329efe6172cad937",
          "topics": [
            "0xc42079f94a6350d7e6235f29174924f928cc2ac818eb64fed8004e115fbcca67",
            "0x0000000000000000000000007b192a675ac3877c6308f7d96033b9c2d7ae5600",
            "0x00000000000000000000000098e4d7a3cbd82d34a0ea59a062dba356b2e685dd"
          ],
          "data": "0xffffffffffffffffffffffffffffffffffffffffffffffff9c5c04a793de35af000000000000000000000000000000000000000000000000000089f8aca836ce0000000000000000000000000000000000000000012ce6b837856fa2e9d2b2900000000000000000000000000000000000000000000000026ca8996ee1c8f3fdfffffffffffffffffffffffffffffffffffffffffffffffffffffffffffe5b63",
          "blockHash": "0xf05a0aa95731c08432c3e1aaf321b6e610ffae3278771e11fa8eb41ef0ee8f90",
          "blockNumber": "0x73ecc1",
          "transactionHash": "0x4cf9af805a68af330acc264011cf467542ecbaf5bc5f647f38eca618a7c9b787",
          "transactionIndex": "0xb0",
          "logIndex": "0x119",
          "removed": false
        },
        {
          "address": "0xfff9976782d46cc05630d1f6ebab18b2324d6b14",
          "topics": [
            "0x8c5be1e5ebec7d5bd14f71427d1e84f3dd0314c0f7b2291e5b200ac8c7c3b925",
            "0x00000000000000000000000065b1ddd708dc7e169c831ae1f4fd4dc94bf0a417",
            "0x0000000000000000000000007b192a675ac3877c6308f7d96033b9c2d7ae5600"
          ],
          "data": "0x000000000000000000000000000000000000000000000000000072f9e536d856",
          "blockHash": "0xf05a0aa95731c08432c3e1aaf321b6e610ffae3278771e11fa8eb41ef0ee8f90",
          "blockNumber": "0x73ecc1",
          "transactionHash": "0x4cf9af805a68af330acc264011cf467542ecbaf5bc5f647f38eca618a7c9b787",
          "transactionIndex": "0xb0",
          "logIndex": "0x11a",
          "removed": false
        },
        {
          "address": "0x8b0d01137979e409bba15098aa5665c647774003",
          "topics": [
            "0xddf252ad1be2c89b69c2b068fc378daa952ba7f163c4a11628f55a4df523b3ef",
            "0x000000000000000000000000d43bb355d6c0ced9b4a62d56f4131672f8098889",
            "0x00000000000000000000000098e4d7a3cbd82d34a0ea59a062dba356b2e685dd"
          ],
          "data": "0x000000000000000000000000000000000000000000000000f8e5b5316e9c528f",
          "blockHash": "0xf05a0aa95731c08432c3e1aaf321b6e610ffae3278771e11fa8eb41ef0ee8f90",
          "blockNumber": "0x73ecc1",
          "transactionHash": "0x4cf9af805a68af330acc264011cf467542ecbaf5bc5f647f38eca618a7c9b787",
          "transactionIndex": "0xb0",
          "logIndex": "0x11b",
          "removed": false
        },
        {
          "address": "0xfff9976782d46cc05630d1f6ebab18b2324d6b14",
          "topics": [
            "0xddf252ad1be2c89b69c2b068fc378daa952ba7f163c4a11628f55a4df523b3ef",
            "0x00000000000000000000000065b1ddd708dc7e169c831ae1f4fd4dc94bf0a417",
            "0x000000000000000000000000d43bb355d6c0ced9b4a62d56f4131672f8098889"
          ],
          "data": "0x000000000000000000000000000000000000000000000000000072f9e536d856",
          "blockHash": "0xf05a0aa95731c08432c3e1aaf321b6e610ffae3278771e11fa8eb41ef0ee8f90",
          "blockNumber": "0x73ecc1",
          "transactionHash": "0x4cf9af805a68af330acc264011cf467542ecbaf5bc5f647f38eca618a7c9b787",
          "transactionIndex": "0xb0",
          "logIndex": "0x11c",
          "removed": false
        },
        {
          "address": "0xd43bb355d6c0ced9b4a62d56f4131672f8098889",
          "topics": [
            "0xc42079f94a6350d7e6235f29174924f928cc2ac818eb64fed8004e115fbcca67",
            "0x0000000000000000000000007b192a675ac3877c6308f7d96033b9c2d7ae5600",
            "0x00000000000000000000000098e4d7a3cbd82d34a0ea59a062dba356b2e685dd"
          ],
          "data": "0xffffffffffffffffffffffffffffffffffffffffffffffff071a4ace9163ad71000000000000000000000000000000000000000000000000000072f9e536d856000000000000000000000000000000000000000000adcdc043672fd8558cd53e000000000000000000000000000000000000000000000003263b689762ad79b1fffffffffffffffffffffffffffffffffffffffffffffffffffffffffffe3081",
          "blockHash": "0xf05a0aa95731c08432c3e1aaf321b6e610ffae3278771e11fa8eb41ef0ee8f90",
          "blockNumber": "0x73ecc1",
          "transactionHash": "0x4cf9af805a68af330acc264011cf467542ecbaf5bc5f647f38eca618a7c9b787",
          "transactionIndex": "0xb0",
          "logIndex": "0x11d",
          "removed": false
        },
        {
          "address": "0xfff9976782d46cc05630d1f6ebab18b2324d6b14",
          "topics": [
            "0x8c5be1e5ebec7d5bd14f71427d1e84f3dd0314c0f7b2291e5b200ac8c7c3b925",
            "0x00000000000000000000000065b1ddd708dc7e169c831ae1f4fd4dc94bf0a417",
            "0x0000000000000000000000007b192a675ac3877c6308f7d96033b9c2d7ae5600"
          ],
          "data": "0x000000000000000000000000000000000000000000000000000072f9e536d856",
          "blockHash": "0xf05a0aa95731c08432c3e1aaf321b6e610ffae3278771e11fa8eb41ef0ee8f90",
          "blockNumber": "0x73ecc1",
          "transactionHash": "0x4cf9af805a68af330acc264011cf467542ecbaf5bc5f647f38eca618a7c9b787",
          "transactionIndex": "0xb0",
          "logIndex": "0x11e",
          "removed": false
        },
        {
          "address": "0xc361ce0885faa9f6f5f41f2b2a08e72e465dfbc6",
          "topics": [
            "0xddf252ad1be2c89b69c2b068fc378daa952ba7f163c4a11628f55a4df523b3ef",
            "0x000000000000000000000000d4c994d5e19288af3027285e123ebaeff65a6144",
            "0x00000000000000000000000098e4d7a3cbd82d34a0ea59a062dba356b2e685dd"
          ],
          "data": "0x000000000000000000000000000000000000000000000000f9173c5a899fecf5",
          "blockHash": "0xf05a0aa95731c08432c3e1aaf321b6e610ffae3278771e11fa8eb41ef0ee8f90",
          "blockNumber": "0x73ecc1",
          "transactionHash": "0x4cf9af805a68af330acc264011cf467542ecbaf5bc5f647f38eca618a7c9b787",
          "transactionIndex": "0xb0",
          "logIndex": "0x11f",
          "removed": false
        },
        {
          "address": "0xfff9976782d46cc05630d1f6ebab18b2324d6b14",
          "topics": [
            "0xddf252ad1be2c89b69c2b068fc378daa952ba7f163c4a11628f55a4df523b3ef",
            "0x00000000000000000000000065b1ddd708dc7e169c831ae1f4fd4dc94bf0a417",
            "0x000000000000000000000000d4c994d5e19288af3027285e123ebaeff65a6144"
          ],
          "data": "0x000000000000000000000000000000000000000000000000000072f9e536d856",
          "blockHash": "0xf05a0aa95731c08432c3e1aaf321b6e610ffae3278771e11fa8eb41ef0ee8f90",
          "blockNumber": "0x73ecc1",
          "transactionHash": "0x4cf9af805a68af330acc264011cf467542ecbaf5bc5f647f38eca618a7c9b787",
          "transactionIndex": "0xb0",
          "logIndex": "0x120",
          "removed": false
        },
        {
          "address": "0xd4c994d5e19288af3027285e123ebaeff65a6144",
          "topics": [
            "0xc42079f94a6350d7e6235f29174924f928cc2ac818eb64fed8004e115fbcca67",
            "0x0000000000000000000000007b192a675ac3877c6308f7d96033b9c2d7ae5600",
            "0x00000000000000000000000098e4d7a3cbd82d34a0ea59a062dba356b2e685dd"
          ],
          "data": "0xffffffffffffffffffffffffffffffffffffffffffffffff06e8c3a57660130b000000000000000000000000000000000000000000000000000072f9e536d856000000000000000000000000000000000000000000adbc79c1947f8a4bd617db000000000000000000000000000000000000000000000003263b689762ad79b1fffffffffffffffffffffffffffffffffffffffffffffffffffffffffffe3079",
          "blockHash": "0xf05a0aa95731c08432c3e1aaf321b6e610ffae3278771e11fa8eb41ef0ee8f90",
          "blockNumber": "0x73ecc1",
          "transactionHash": "0x4cf9af805a68af330acc264011cf467542ecbaf5bc5f647f38eca618a7c9b787",
          "transactionIndex": "0xb0",
          "logIndex": "0x121",
          "removed": false
        },
        {
          "address": "0xfff9976782d46cc05630d1f6ebab18b2324d6b14",
          "topics": [
            "0x8c5be1e5ebec7d5bd14f71427d1e84f3dd0314c0f7b2291e5b200ac8c7c3b925",
            "0x00000000000000000000000065b1ddd708dc7e169c831ae1f4fd4dc94bf0a417",
            "0x0000000000000000000000007b192a675ac3877c6308f7d96033b9c2d7ae5600"
          ],
          "data": "0x0000000000000000000000000000000000000000000000000000563b6be92240",
          "blockHash": "0xf05a0aa95731c08432c3e1aaf321b6e610ffae3278771e11fa8eb41ef0ee8f90",
          "blockNumber": "0x73ecc1",
          "transactionHash": "0x4cf9af805a68af330acc264011cf467542ecbaf5bc5f647f38eca618a7c9b787",
          "transactionIndex": "0xb0",
          "logIndex": "0x122",
          "removed": false
        },
        {
          "address": "0xcac218f00e79a6923228487c52dcba71666c6b17",
          "topics": [
            "0xddf252ad1be2c89b69c2b068fc378daa952ba7f163c4a11628f55a4df523b3ef",
            "0x000000000000000000000000146bb497af6bbe90c49e83b5cc723e0bef9674c1",
            "0x00000000000000000000000098e4d7a3cbd82d34a0ea59a062dba356b2e685dd"
          ],
          "data": "0x000000000000000000000000000000000000000000000000bd3c72126b582529",
          "blockHash": "0xf05a0aa95731c08432c3e1aaf321b6e610ffae3278771e11fa8eb41ef0ee8f90",
          "blockNumber": "0x73ecc1",
          "transactionHash": "0x4cf9af805a68af330acc264011cf467542ecbaf5bc5f647f38eca618a7c9b787",
          "transactionIndex": "0xb0",
          "logIndex": "0x123",
          "removed": false
        },
        {
          "address": "0xfff9976782d46cc05630d1f6ebab18b2324d6b14",
          "topics": [
            "0xddf252ad1be2c89b69c2b068fc378daa952ba7f163c4a11628f55a4df523b3ef",
            "0x00000000000000000000000065b1ddd708dc7e169c831ae1f4fd4dc94bf0a417",
            "0x000000000000000000000000146bb497af6bbe90c49e83b5cc723e0bef9674c1"
          ],
          "data": "0x0000000000000000000000000000000000000000000000000000563b6be92240",
          "blockHash": "0xf05a0aa95731c08432c3e1aaf321b6e610ffae3278771e11fa8eb41ef0ee8f90",
          "blockNumber": "0x73ecc1",
          "transactionHash": "0x4cf9af805a68af330acc264011cf467542ecbaf5bc5f647f38eca618a7c9b787",
          "transactionIndex": "0xb0",
          "logIndex": "0x124",
          "removed": false
        },
        {
          "address": "0x146bb497af6bbe90c49e83b5cc723e0bef9674c1",
          "topics": [
            "0xc42079f94a6350d7e6235f29174924f928cc2ac818eb64fed8004e115fbcca67",
            "0x0000000000000000000000007b192a675ac3877c6308f7d96033b9c2d7ae5600",
            "0x00000000000000000000000098e4d7a3cbd82d34a0ea59a062dba356b2e685dd"
          ],
          "data": "0xffffffffffffffffffffffffffffffffffffffffffffffff42c38ded94a7dad70000000000000000000000000000000000000000000000000000563b6be92240000000000000000000000000000000000000000000ac9af81504a23a874b60c9000000000000000000000000000000000000000000000003263b689762ad79b1fffffffffffffffffffffffffffffffffffffffffffffffffffffffffffe2ff7",
          "blockHash": "0xf05a0aa95731c08432c3e1aaf321b6e610ffae3278771e11fa8eb41ef0ee8f90",
          "blockNumber": "0x73ecc1",
          "transactionHash": "0x4cf9af805a68af330acc264011cf467542ecbaf5bc5f647f38eca618a7c9b787",
          "transactionIndex": "0xb0",
          "logIndex": "0x125",
          "removed": false
        },
        {
          "address": "0xfff9976782d46cc05630d1f6ebab18b2324d6b14",
          "topics": [
            "0x8c5be1e5ebec7d5bd14f71427d1e84f3dd0314c0f7b2291e5b200ac8c7c3b925",
            "0x00000000000000000000000065b1ddd708dc7e169c831ae1f4fd4dc94bf0a417",
            "0x0000000000000000000000007b192a675ac3877c6308f7d96033b9c2d7ae5600"
          ],
          "data": "0x0000000000000000000000000000000000000000000000000000563b6be92240",
          "blockHash": "0xf05a0aa95731c08432c3e1aaf321b6e610ffae3278771e11fa8eb41ef0ee8f90",
          "blockNumber": "0x73ecc1",
          "transactionHash": "0x4cf9af805a68af330acc264011cf467542ecbaf5bc5f647f38eca618a7c9b787",
          "transactionIndex": "0xb0",
          "logIndex": "0x126",
          "removed": false
        },
        {
          "address": "0x861b6db57c71f9e5b989a18d4c6f600b7b26e170",
          "topics": [
            "0xddf252ad1be2c89b69c2b068fc378daa952ba7f163c4a11628f55a4df523b3ef",
            "0x00000000000000000000000011060c179e07b088ddcdd8f735cf9b5d030da0e2",
            "0x00000000000000000000000098e4d7a3cbd82d34a0ea59a062dba356b2e685dd"
          ],
          "data": "0x000000000000000000000000000000000000000000000000bd3c72126b582529",
          "blockHash": "0xf05a0aa95731c08432c3e1aaf321b6e610ffae3278771e11fa8eb41ef0ee8f90",
          "blockNumber": "0x73ecc1",
          "transactionHash": "0x4cf9af805a68af330acc264011cf467542ecbaf5bc5f647f38eca618a7c9b787",
          "transactionIndex": "0xb0",
          "logIndex": "0x127",
          "removed": false
        },
        {
          "address": "0xfff9976782d46cc05630d1f6ebab18b2324d6b14",
          "topics": [
            "0xddf252ad1be2c89b69c2b068fc378daa952ba7f163c4a11628f55a4df523b3ef",
            "0x00000000000000000000000065b1ddd708dc7e169c831ae1f4fd4dc94bf0a417",
            "0x00000000000000000000000011060c179e07b088ddcdd8f735cf9b5d030da0e2"
          ],
          "data": "0x0000000000000000000000000000000000000000000000000000563b6be92240",
          "blockHash": "0xf05a0aa95731c08432c3e1aaf321b6e610ffae3278771e11fa8eb41ef0ee8f90",
          "blockNumber": "0x73ecc1",
          "transactionHash": "0x4cf9af805a68af330acc264011cf467542ecbaf5bc5f647f38eca618a7c9b787",
          "transactionIndex": "0xb0",
          "logIndex": "0x128",
          "removed": false
        },
        {
          "address": "0x11060c179e07b088ddcdd8f735cf9b5d030da0e2",
          "topics": [
            "0xc42079f94a6350d7e6235f29174924f928cc2ac818eb64fed8004e115fbcca67",
            "0x0000000000000000000000007b192a675ac3877c6308f7d96033b9c2d7ae5600",
            "0x00000000000000000000000098e4d7a3cbd82d34a0ea59a062dba356b2e685dd"
          ],
          "data": "0xffffffffffffffffffffffffffffffffffffffffffffffff42c38ded94a7dad70000000000000000000000000000000000000000000000000000563b6be92240000000000000000000000000000000000000000000ac9af81504a23a874b60c9000000000000000000000000000000000000000000000003263b689762ad79b1fffffffffffffffffffffffffffffffffffffffffffffffffffffffffffe2ff7",
          "blockHash": "0xf05a0aa95731c08432c3e1aaf321b6e610ffae3278771e11fa8eb41ef0ee8f90",
          "blockNumber": "0x73ecc1",
          "transactionHash": "0x4cf9af805a68af330acc264011cf467542ecbaf5bc5f647f38eca618a7c9b787",
          "transactionIndex": "0xb0",
          "logIndex": "0x129",
          "removed": false
        },
        {
          "address": "0xfff9976782d46cc05630d1f6ebab18b2324d6b14",
          "topics": [
            "0x8c5be1e5ebec7d5bd14f71427d1e84f3dd0314c0f7b2291e5b200ac8c7c3b925",
            "0x00000000000000000000000065b1ddd708dc7e169c831ae1f4fd4dc94bf0a417",
            "0x0000000000000000000000007b192a675ac3877c6308f7d96033b9c2d7ae5600"
          ],
          "data": "0x000000000000000000000000000000000000000000000000000044fc56541b67",
          "blockHash": "0xf05a0aa95731c08432c3e1aaf321b6e610ffae3278771e11fa8eb41ef0ee8f90",
          "blockNumber": "0x73ecc1",
          "transactionHash": "0x4cf9af805a68af330acc264011cf467542ecbaf5bc5f647f38eca618a7c9b787",
          "transactionIndex": "0xb0",
          "logIndex": "0x12a",
          "removed": false
        },
        {
          "address": "0xe4e401c5a31d43550d9218ccf412a761e5441f39",
          "topics": [
            "0xddf252ad1be2c89b69c2b068fc378daa952ba7f163c4a11628f55a4df523b3ef",
            "0x000000000000000000000000756c03c33a25b32410b28ea43b1a911b60d66ba5",
            "0x00000000000000000000000098e4d7a3cbd82d34a0ea59a062dba356b2e685dd"
          ],
          "data": "0x0000000000000000000000000000000000000000000000009891564cfa66c30f",
          "blockHash": "0xf05a0aa95731c08432c3e1aaf321b6e610ffae3278771e11fa8eb41ef0ee8f90",
          "blockNumber": "0x73ecc1",
          "transactionHash": "0x4cf9af805a68af330acc264011cf467542ecbaf5bc5f647f38eca618a7c9b787",
          "transactionIndex": "0xb0",
          "logIndex": "0x12b",
          "removed": false
        },
        {
          "address": "0xfff9976782d46cc05630d1f6ebab18b2324d6b14",
          "topics": [
            "0xddf252ad1be2c89b69c2b068fc378daa952ba7f163c4a11628f55a4df523b3ef",
            "0x00000000000000000000000065b1ddd708dc7e169c831ae1f4fd4dc94bf0a417",
            "0x000000000000000000000000756c03c33a25b32410b28ea43b1a911b60d66ba5"
          ],
          "data": "0x000000000000000000000000000000000000000000000000000044fc56541b67",
          "blockHash": "0xf05a0aa95731c08432c3e1aaf321b6e610ffae3278771e11fa8eb41ef0ee8f90",
          "blockNumber": "0x73ecc1",
          "transactionHash": "0x4cf9af805a68af330acc264011cf467542ecbaf5bc5f647f38eca618a7c9b787",
          "transactionIndex": "0xb0",
          "logIndex": "0x12c",
          "removed": false
        },
        {
          "address": "0x756c03c33a25b32410b28ea43b1a911b60d66ba5",
          "topics": [
            "0xc42079f94a6350d7e6235f29174924f928cc2ac818eb64fed8004e115fbcca67",
            "0x0000000000000000000000007b192a675ac3877c6308f7d96033b9c2d7ae5600",
            "0x00000000000000000000000098e4d7a3cbd82d34a0ea59a062dba356b2e685dd"
          ],
          "data": "0xffffffffffffffffffffffffffffffffffffffffffffffff676ea9b305993cf1000000000000000000000000000000000000000000000000000044fc56541b67000000000000000000000000000000000000000000abed40aae97cb6d4bf211b000000000000000000000000000000000000000000000003263b689762ad79b1fffffffffffffffffffffffffffffffffffffffffffffffffffffffffffe2fa8",
          "blockHash": "0xf05a0aa95731c08432c3e1aaf321b6e610ffae3278771e11fa8eb41ef0ee8f90",
          "blockNumber": "0x73ecc1",
          "transactionHash": "0x4cf9af805a68af330acc264011cf467542ecbaf5bc5f647f38eca618a7c9b787",
          "transactionIndex": "0xb0",
          "logIndex": "0x12d",
          "removed": false
        },
        {
          "address": "0xfff9976782d46cc05630d1f6ebab18b2324d6b14",
          "topics": [
            "0x8c5be1e5ebec7d5bd14f71427d1e84f3dd0314c0f7b2291e5b200ac8c7c3b925",
            "0x00000000000000000000000065b1ddd708dc7e169c831ae1f4fd4dc94bf0a417",
            "0x0000000000000000000000007b192a675ac3877c6308f7d96033b9c2d7ae5600"
          ],
          "data": "0x000000000000000000000000000000000000000000000000000044fc56541b67",
          "blockHash": "0xf05a0aa95731c08432c3e1aaf321b6e610ffae3278771e11fa8eb41ef0ee8f90",
          "blockNumber": "0x73ecc1",
          "transactionHash": "0x4cf9af805a68af330acc264011cf467542ecbaf5bc5f647f38eca618a7c9b787",
          "transactionIndex": "0xb0",
          "logIndex": "0x12e",
          "removed": false
        },
        {
          "address": "0xdc29d1b632f84b64f9b2742d1cd305d11f9db76a",
          "topics": [
            "0xddf252ad1be2c89b69c2b068fc378daa952ba7f163c4a11628f55a4df523b3ef",
            "0x000000000000000000000000ee7892149fb31686ec289bd3831edc478d2fea0d",
            "0x00000000000000000000000098e4d7a3cbd82d34a0ea59a062dba356b2e685dd"
          ],
          "data": "0x0000000000000000000000000000000000000000000000009891564cfa66c30f",
          "blockHash": "0xf05a0aa95731c08432c3e1aaf321b6e610ffae3278771e11fa8eb41ef0ee8f90",
          "blockNumber": "0x73ecc1",
          "transactionHash": "0x4cf9af805a68af330acc264011cf467542ecbaf5bc5f647f38eca618a7c9b787",
          "transactionIndex": "0xb0",
          "logIndex": "0x12f",
          "removed": false
        },
        {
          "address": "0xfff9976782d46cc05630d1f6ebab18b2324d6b14",
          "topics": [
            "0xddf252ad1be2c89b69c2b068fc378daa952ba7f163c4a11628f55a4df523b3ef",
            "0x00000000000000000000000065b1ddd708dc7e169c831ae1f4fd4dc94bf0a417",
            "0x000000000000000000000000ee7892149fb31686ec289bd3831edc478d2fea0d"
          ],
          "data": "0x000000000000000000000000000000000000000000000000000044fc56541b67",
          "blockHash": "0xf05a0aa95731c08432c3e1aaf321b6e610ffae3278771e11fa8eb41ef0ee8f90",
          "blockNumber": "0x73ecc1",
          "transactionHash": "0x4cf9af805a68af330acc264011cf467542ecbaf5bc5f647f38eca618a7c9b787",
          "transactionIndex": "0xb0",
          "logIndex": "0x130",
          "removed": false
        },
        {
          "address": "0xee7892149fb31686ec289bd3831edc478d2fea0d",
          "topics": [
            "0xc42079f94a6350d7e6235f29174924f928cc2ac818eb64fed8004e115fbcca67",
            "0x0000000000000000000000007b192a675ac3877c6308f7d96033b9c2d7ae5600",
            "0x00000000000000000000000098e4d7a3cbd82d34a0ea59a062dba356b2e685dd"
          ],
          "data": "0xffffffffffffffffffffffffffffffffffffffffffffffff676ea9b305993cf1000000000000000000000000000000000000000000000000000044fc56541b67000000000000000000000000000000000000000000abed40aae97cb6d4bf211b000000000000000000000000000000000000000000000003263b689762ad79b1fffffffffffffffffffffffffffffffffffffffffffffffffffffffffffe2fa8",
          "blockHash": "0xf05a0aa95731c08432c3e1aaf321b6e610ffae3278771e11fa8eb41ef0ee8f90",
          "blockNumber": "0x73ecc1",
          "transactionHash": "0x4cf9af805a68af330acc264011cf467542ecbaf5bc5f647f38eca618a7c9b787",
          "transactionIndex": "0xb0",
          "logIndex": "0x131",
          "removed": false
        },
        {
          "address": "0xfff9976782d46cc05630d1f6ebab18b2324d6b14",
          "topics": [
            "0x8c5be1e5ebec7d5bd14f71427d1e84f3dd0314c0f7b2291e5b200ac8c7c3b925",
            "0x00000000000000000000000065b1ddd708dc7e169c831ae1f4fd4dc94bf0a417",
            "0x0000000000000000000000007b192a675ac3877c6308f7d96033b9c2d7ae5600"
          ],
          "data": "0x000000000000000000000000000000000000000000000000000044fc56541b67",
          "blockHash": "0xf05a0aa95731c08432c3e1aaf321b6e610ffae3278771e11fa8eb41ef0ee8f90",
          "blockNumber": "0x73ecc1",
          "transactionHash": "0x4cf9af805a68af330acc264011cf467542ecbaf5bc5f647f38eca618a7c9b787",
          "transactionIndex": "0xb0",
          "logIndex": "0x132",
          "removed": false
        },
        {
          "address": "0x7844288a55b09af610200c738e9714a3b55eea34",
          "topics": [
            "0xddf252ad1be2c89b69c2b068fc378daa952ba7f163c4a11628f55a4df523b3ef",
            "0x000000000000000000000000f4e6d0f03145882f93fdc53a5ef35abc93f25152",
            "0x00000000000000000000000098e4d7a3cbd82d34a0ea59a062dba356b2e685dd"
          ],
          "data": "0x0000000000000000000000000000000000000000000000009891564cfa66c30f",
          "blockHash": "0xf05a0aa95731c08432c3e1aaf321b6e610ffae3278771e11fa8eb41ef0ee8f90",
          "blockNumber": "0x73ecc1",
          "transactionHash": "0x4cf9af805a68af330acc264011cf467542ecbaf5bc5f647f38eca618a7c9b787",
          "transactionIndex": "0xb0",
          "logIndex": "0x133",
          "removed": false
        },
        {
          "address": "0xfff9976782d46cc05630d1f6ebab18b2324d6b14",
          "topics": [
            "0xddf252ad1be2c89b69c2b068fc378daa952ba7f163c4a11628f55a4df523b3ef",
            "0x00000000000000000000000065b1ddd708dc7e169c831ae1f4fd4dc94bf0a417",
            "0x000000000000000000000000f4e6d0f03145882f93fdc53a5ef35abc93f25152"
          ],
          "data": "0x000000000000000000000000000000000000000000000000000044fc56541b67",
          "blockHash": "0xf05a0aa95731c08432c3e1aaf321b6e610ffae3278771e11fa8eb41ef0ee8f90",
          "blockNumber": "0x73ecc1",
          "transactionHash": "0x4cf9af805a68af330acc264011cf467542ecbaf5bc5f647f38eca618a7c9b787",
          "transactionIndex": "0xb0",
          "logIndex": "0x134",
          "removed": false
        },
        {
          "address": "0xf4e6d0f03145882f93fdc53a5ef35abc93f25152",
          "topics": [
            "0xc42079f94a6350d7e6235f29174924f928cc2ac818eb64fed8004e115fbcca67",
            "0x0000000000000000000000007b192a675ac3877c6308f7d96033b9c2d7ae5600",
            "0x00000000000000000000000098e4d7a3cbd82d34a0ea59a062dba356b2e685dd"
          ],
          "data": "0xffffffffffffffffffffffffffffffffffffffffffffffff676ea9b305993cf1000000000000000000000000000000000000000000000000000044fc56541b67000000000000000000000000000000000000000000abed40aae97cb6d4bf211b000000000000000000000000000000000000000000000003263b689762ad79b1fffffffffffffffffffffffffffffffffffffffffffffffffffffffffffe2fa8",
          "blockHash": "0xf05a0aa95731c08432c3e1aaf321b6e610ffae3278771e11fa8eb41ef0ee8f90",
          "blockNumber": "0x73ecc1",
          "transactionHash": "0x4cf9af805a68af330acc264011cf467542ecbaf5bc5f647f38eca618a7c9b787",
          "transactionIndex": "0xb0",
          "logIndex": "0x135",
          "removed": false
        },
        {
          "address": "0xfff9976782d46cc05630d1f6ebab18b2324d6b14",
          "topics": [
            "0x8c5be1e5ebec7d5bd14f71427d1e84f3dd0314c0f7b2291e5b200ac8c7c3b925",
            "0x00000000000000000000000065b1ddd708dc7e169c831ae1f4fd4dc94bf0a417",
            "0x0000000000000000000000007b192a675ac3877c6308f7d96033b9c2d7ae5600"
          ],
          "data": "0x0000000000000000000000000000000000000000000000000000397cf29b6c2b",
          "blockHash": "0xf05a0aa95731c08432c3e1aaf321b6e610ffae3278771e11fa8eb41ef0ee8f90",
          "blockNumber": "0x73ecc1",
          "transactionHash": "0x4cf9af805a68af330acc264011cf467542ecbaf5bc5f647f38eca618a7c9b787",
          "transactionIndex": "0xb0",
          "logIndex": "0x136",
          "removed": false
        },
        {
          "address": "0x46f7ba9b4bfa0f7179a01bf42143e78e65fd7904",
          "topics": [
            "0xddf252ad1be2c89b69c2b068fc378daa952ba7f163c4a11628f55a4df523b3ef",
            "0x000000000000000000000000b51d0cfa14c32407efeb6f509686d143863d8150",
            "0x00000000000000000000000098e4d7a3cbd82d34a0ea59a062dba356b2e685dd"
          ],
          "data": "0x0000000000000000000000000000000000000000000000007fcd14863e06a985",
          "blockHash": "0xf05a0aa95731c08432c3e1aaf321b6e610ffae3278771e11fa8eb41ef0ee8f90",
          "blockNumber": "0x73ecc1",
          "transactionHash": "0x4cf9af805a68af330acc264011cf467542ecbaf5bc5f647f38eca618a7c9b787",
          "transactionIndex": "0xb0",
          "logIndex": "0x137",
          "removed": false
        },
        {
          "address": "0xfff9976782d46cc05630d1f6ebab18b2324d6b14",
          "topics": [
            "0xddf252ad1be2c89b69c2b068fc378daa952ba7f163c4a11628f55a4df523b3ef",
            "0x00000000000000000000000065b1ddd708dc7e169c831ae1f4fd4dc94bf0a417",
            "0x000000000000000000000000b51d0cfa14c32407efeb6f509686d143863d8150"
          ],
          "data": "0x0000000000000000000000000000000000000000000000000000397cf29b6c2b",
          "blockHash": "0xf05a0aa95731c08432c3e1aaf321b6e610ffae3278771e11fa8eb41ef0ee8f90",
          "blockNumber": "0x73ecc1",
          "transactionHash": "0x4cf9af805a68af330acc264011cf467542ecbaf5bc5f647f38eca618a7c9b787",
          "transactionIndex": "0xb0",
          "logIndex": "0x138",
          "removed": false
        },
        {
          "address": "0xb51d0cfa14c32407efeb6f509686d143863d8150",
          "topics": [
            "0xc42079f94a6350d7e6235f29174924f928cc2ac818eb64fed8004e115fbcca67",
            "0x0000000000000000000000007b192a675ac3877c6308f7d96033b9c2d7ae5600",
            "0x00000000000000000000000098e4d7a3cbd82d34a0ea59a062dba356b2e685dd"
          ],
          "data": "0xffffffffffffffffffffffffffffffffffffffffffffffff8032eb79c1f9567b0000000000000000000000000000000000000000000000000000397cf29b6c2b000000000000000000000000000000000000000000ab796fb861f49329e15357000000000000000000000000000000000000000000000003263b689762ad79b1fffffffffffffffffffffffffffffffffffffffffffffffffffffffffffe2f73",
          "blockHash": "0xf05a0aa95731c08432c3e1aaf321b6e610ffae3278771e11fa8eb41ef0ee8f90",
          "blockNumber": "0x73ecc1",
          "transactionHash": "0x4cf9af805a68af330acc264011cf467542ecbaf5bc5f647f38eca618a7c9b787",
          "transactionIndex": "0xb0",
          "logIndex": "0x139",
          "removed": false
        },
        {
          "address": "0xfff9976782d46cc05630d1f6ebab18b2324d6b14",
          "topics": [
            "0x8c5be1e5ebec7d5bd14f71427d1e84f3dd0314c0f7b2291e5b200ac8c7c3b925",
            "0x00000000000000000000000065b1ddd708dc7e169c831ae1f4fd4dc94bf0a417",
            "0x0000000000000000000000007b192a675ac3877c6308f7d96033b9c2d7ae5600"
          ],
          "data": "0x0000000000000000000000000000000000000000000000000000397cf29b6c2b",
          "blockHash": "0xf05a0aa95731c08432c3e1aaf321b6e610ffae3278771e11fa8eb41ef0ee8f90",
          "blockNumber": "0x73ecc1",
          "transactionHash": "0x4cf9af805a68af330acc264011cf467542ecbaf5bc5f647f38eca618a7c9b787",
          "transactionIndex": "0xb0",
          "logIndex": "0x13a",
          "removed": false
        },
        {
          "address": "0x2a0fda08272292883187019773f5c655cc7804ff",
          "topics": [
            "0xddf252ad1be2c89b69c2b068fc378daa952ba7f163c4a11628f55a4df523b3ef",
            "0x0000000000000000000000000e398baf5a436eaad7be991bbabd060034b81398",
            "0x00000000000000000000000098e4d7a3cbd82d34a0ea59a062dba356b2e685dd"
          ],
          "data": "0x0000000000000000000000000000000000000000000000007fcd14863e06a985",
          "blockHash": "0xf05a0aa95731c08432c3e1aaf321b6e610ffae3278771e11fa8eb41ef0ee8f90",
          "blockNumber": "0x73ecc1",
          "transactionHash": "0x4cf9af805a68af330acc264011cf467542ecbaf5bc5f647f38eca618a7c9b787",
          "transactionIndex": "0xb0",
          "logIndex": "0x13b",
          "removed": false
        },
        {
          "address": "0xfff9976782d46cc05630d1f6ebab18b2324d6b14",
          "topics": [
            "0xddf252ad1be2c89b69c2b068fc378daa952ba7f163c4a11628f55a4df523b3ef",
            "0x00000000000000000000000065b1ddd708dc7e169c831ae1f4fd4dc94bf0a417",
            "0x0000000000000000000000000e398baf5a436eaad7be991bbabd060034b81398"
          ],
          "data": "0x0000000000000000000000000000000000000000000000000000397cf29b6c2b",
          "blockHash": "0xf05a0aa95731c08432c3e1aaf321b6e610ffae3278771e11fa8eb41ef0ee8f90",
          "blockNumber": "0x73ecc1",
          "transactionHash": "0x4cf9af805a68af330acc264011cf467542ecbaf5bc5f647f38eca618a7c9b787",
          "transactionIndex": "0xb0",
          "logIndex": "0x13c",
          "removed": false
        },
        {
          "address": "0x0e398baf5a436eaad7be991bbabd060034b81398",
          "topics": [
            "0xc42079f94a6350d7e6235f29174924f928cc2ac818eb64fed8004e115fbcca67",
            "0x0000000000000000000000007b192a675ac3877c6308f7d96033b9c2d7ae5600",
            "0x00000000000000000000000098e4d7a3cbd82d34a0ea59a062dba356b2e685dd"
          ],
          "data": "0xffffffffffffffffffffffffffffffffffffffffffffffff8032eb79c1f9567b0000000000000000000000000000000000000000000000000000397cf29b6c2b000000000000000000000000000000000000000000ab796fb861f49329e15357000000000000000000000000000000000000000000000003263b689762ad79b1fffffffffffffffffffffffffffffffffffffffffffffffffffffffffffe2f73",
          "blockHash": "0xf05a0aa95731c08432c3e1aaf321b6e610ffae3278771e11fa8eb41ef0ee8f90",
          "blockNumber": "0x73ecc1",
          "transactionHash": "0x4cf9af805a68af330acc264011cf467542ecbaf5bc5f647f38eca618a7c9b787",
          "transactionIndex": "0xb0",
          "logIndex": "0x13d",
          "removed": false
        },
        {
          "address": "0xfff9976782d46cc05630d1f6ebab18b2324d6b14",
          "topics": [
            "0x8c5be1e5ebec7d5bd14f71427d1e84f3dd0314c0f7b2291e5b200ac8c7c3b925",
            "0x00000000000000000000000065b1ddd708dc7e169c831ae1f4fd4dc94bf0a417",
            "0x0000000000000000000000007b192a675ac3877c6308f7d96033b9c2d7ae5600"
          ],
          "data": "0x0000000000000000000000000000000000000000000000000000397cf29b6c2b",
          "blockHash": "0xf05a0aa95731c08432c3e1aaf321b6e610ffae3278771e11fa8eb41ef0ee8f90",
          "blockNumber": "0x73ecc1",
          "transactionHash": "0x4cf9af805a68af330acc264011cf467542ecbaf5bc5f647f38eca618a7c9b787",
          "transactionIndex": "0xb0",
          "logIndex": "0x13e",
          "removed": false
        },
        {
          "address": "0x6aefff05e69df302e4fe508778c23996a53b440f",
          "topics": [
            "0xddf252ad1be2c89b69c2b068fc378daa952ba7f163c4a11628f55a4df523b3ef",
            "0x000000000000000000000000804b914be6f5617f4a4a927581a12a8155f91472",
            "0x00000000000000000000000098e4d7a3cbd82d34a0ea59a062dba356b2e685dd"
          ],
          "data": "0x0000000000000000000000000000000000000000000000007fcd14863e06a985",
          "blockHash": "0xf05a0aa95731c08432c3e1aaf321b6e610ffae3278771e11fa8eb41ef0ee8f90",
          "blockNumber": "0x73ecc1",
          "transactionHash": "0x4cf9af805a68af330acc264011cf467542ecbaf5bc5f647f38eca618a7c9b787",
          "transactionIndex": "0xb0",
          "logIndex": "0x13f",
          "removed": false
        },
        {
          "address": "0xfff9976782d46cc05630d1f6ebab18b2324d6b14",
          "topics": [
            "0xddf252ad1be2c89b69c2b068fc378daa952ba7f163c4a11628f55a4df523b3ef",
            "0x00000000000000000000000065b1ddd708dc7e169c831ae1f4fd4dc94bf0a417",
            "0x000000000000000000000000804b914be6f5617f4a4a927581a12a8155f91472"
          ],
          "data": "0x0000000000000000000000000000000000000000000000000000397cf29b6c2b",
          "blockHash": "0xf05a0aa95731c08432c3e1aaf321b6e610ffae3278771e11fa8eb41ef0ee8f90",
          "blockNumber": "0x73ecc1",
          "transactionHash": "0x4cf9af805a68af330acc264011cf467542ecbaf5bc5f647f38eca618a7c9b787",
          "transactionIndex": "0xb0",
          "logIndex": "0x140",
          "removed": false
        },
        {
          "address": "0x804b914be6f5617f4a4a927581a12a8155f91472",
          "topics": [
            "0xc42079f94a6350d7e6235f29174924f928cc2ac818eb64fed8004e115fbcca67",
            "0x0000000000000000000000007b192a675ac3877c6308f7d96033b9c2d7ae5600",
            "0x00000000000000000000000098e4d7a3cbd82d34a0ea59a062dba356b2e685dd"
          ],
          "data": "0xffffffffffffffffffffffffffffffffffffffffffffffff8032eb79c1f9567b0000000000000000000000000000000000000000000000000000397cf29b6c2b000000000000000000000000000000000000000000ab796fb861f49329e15357000000000000000000000000000000000000000000000003263b689762ad79b1fffffffffffffffffffffffffffffffffffffffffffffffffffffffffffe2f73",
          "blockHash": "0xf05a0aa95731c08432c3e1aaf321b6e610ffae3278771e11fa8eb41ef0ee8f90",
          "blockNumber": "0x73ecc1",
          "transactionHash": "0x4cf9af805a68af330acc264011cf467542ecbaf5bc5f647f38eca618a7c9b787",
          "transactionIndex": "0xb0",
          "logIndex": "0x141",
          "removed": false
        },
        {
          "address": "0xe22a1e2bf573b84e6e676c49d2b5742afb9ba935",
          "topics": [
            "0xddf252ad1be2c89b69c2b068fc378daa952ba7f163c4a11628f55a4df523b3ef",
            "0x0000000000000000000000000000000000000000000000000000000000000000",
            "0x00000000000000000000000051256f5459c1dde0c794818af42569030901a098"
          ],
          "data": "0x000000000000000000000000000000000000000000000010f288abfa5876edfc",
          "blockHash": "0xf05a0aa95731c08432c3e1aaf321b6e610ffae3278771e11fa8eb41ef0ee8f90",
          "blockNumber": "0x73ecc1",
          "transactionHash": "0x4cf9af805a68af330acc264011cf467542ecbaf5bc5f647f38eca618a7c9b787",
          "transactionIndex": "0xb0",
          "logIndex": "0x142",
          "removed": false
        },
        {
          "address": "0x65b1ddd708dc7e169c831ae1f4fd4dc94bf0a417",
          "topics": [
            "0x4fee1c514ee0e252e3a0babfa8b5030fb89be7ea2b38df9a7fbbf788e54f3d91",
            "0x00000000000000000000000051256f5459c1dde0c794818af42569030901a098",
            "0x000000000000000000000000e8888fe3bde6f287bdd0922bea6e0bf6e5f418e7"
          ],
          "data": "0x0000000000000000000000000000000000000000000000056bc75e2d63100000000000000000000000000000000000000000000000000010f288abfa5876edfc00000000000000000000000000000000000000000000000000000000679a5dac",
          "blockHash": "0xf05a0aa95731c08432c3e1aaf321b6e610ffae3278771e11fa8eb41ef0ee8f90",
          "blockNumber": "0x73ecc1",
          "transactionHash": "0x4cf9af805a68af330acc264011cf467542ecbaf5bc5f647f38eca618a7c9b787",
          "transactionIndex": "0xb0",
          "logIndex": "0x143",
          "removed": false
        }
      ],
      "logsBloom": "0x008200800000000200040400000020040000000000220004000000000000000000000000040008880800400000400000108004000018210c000040000022000001a408010022804c08202008000000800020600300400000800000024000000000000200030008000808000020010810000000000000040808000010000c000882400000000100000401000044800000800000100000012000002001000000000200200002010800c2001030004000440011000882010000008000001100000008000042000000000002001010080100000000000000000000000208000038000010000004000000010010410000080080000000000000040610480042902000",
      "type": "0x2",
      "transactionHash": "0x4cf9af805a68af330acc264011cf467542ecbaf5bc5f647f38eca618a7c9b787",
      "transactionIndex": "0xb0",
      "blockHash": "0xf05a0aa95731c08432c3e1aaf321b6e610ffae3278771e11fa8eb41ef0ee8f90",
      "blockNumber": "0x73ecc1",
      "gasUsed": "0x1ca826",
      "effectiveGasPrice": "0x192aa6ac8",
      "from": "0x51256f5459c1dde0c794818af42569030901a098",
      "to": "0x65b1ddd708dc7e169c831ae1f4fd4dc94bf0a417",
      "contractAddress": null
    },
    {
      "status": "0x1",
      "cumulativeGasUsed": "0x10a4f5e",
      "logs": [
        {
          "address": "0xe22a1e2bf573b84e6e676c49d2b5742afb9ba935",
          "topics": [
            "0xddf252ad1be2c89b69c2b068fc378daa952ba7f163c4a11628f55a4df523b3ef",
            "0x00000000000000000000000051256f5459c1dde0c794818af42569030901a098",
            "0x0000000000000000000000000000000000000000000000000000000000000000"
          ],
          "data": "0x000000000000000000000000000000000000000000000010f288abfa5876edfc",
          "blockHash": "0xf05a0aa95731c08432c3e1aaf321b6e610ffae3278771e11fa8eb41ef0ee8f90",
          "blockNumber": "0x73ecc1",
          "transactionHash": "0x66a8ad8f910528cc9cf1c4882aca9fc5a460c123ba7ea1a260780e065436d141",
          "transactionIndex": "0xb1",
          "logIndex": "0x144",
          "removed": false
        },
        {
          "address": "0x98e4d7a3cbd82d34a0ea59a062dba356b2e685dd",
          "topics": [
            "0xa92ff919b850e4909ab2261d907ef955f11bc1716733a6cbece38d163a69af8a"
          ],
          "data": "0x0000000000000000000000009cd4f9bec89e00a560840174dc8054fb4b3e185800000000000000000000000065b1ddd708dc7e169c831ae1f4fd4dc94bf0a41700000000000000000000000000000000000000000000000063a3fb586c21ca51",
          "blockHash": "0xf05a0aa95731c08432c3e1aaf321b6e610ffae3278771e11fa8eb41ef0ee8f90",
          "blockNumber": "0x73ecc1",
          "transactionHash": "0x66a8ad8f910528cc9cf1c4882aca9fc5a460c123ba7ea1a260780e065436d141",
          "transactionIndex": "0xb1",
          "logIndex": "0x145",
          "removed": false
        },
        {
          "address": "0x9cd4f9bec89e00a560840174dc8054fb4b3e1858",
          "topics": [
            "0xddf252ad1be2c89b69c2b068fc378daa952ba7f163c4a11628f55a4df523b3ef",
            "0x00000000000000000000000098e4d7a3cbd82d34a0ea59a062dba356b2e685dd",
            "0x00000000000000000000000065b1ddd708dc7e169c831ae1f4fd4dc94bf0a417"
          ],
          "data": "0x00000000000000000000000000000000000000000000000063a3fb586c21ca51",
          "blockHash": "0xf05a0aa95731c08432c3e1aaf321b6e610ffae3278771e11fa8eb41ef0ee8f90",
          "blockNumber": "0x73ecc1",
          "transactionHash": "0x66a8ad8f910528cc9cf1c4882aca9fc5a460c123ba7ea1a260780e065436d141",
          "transactionIndex": "0xb1",
          "logIndex": "0x146",
          "removed": false
        },
        {
          "address": "0x9cd4f9bec89e00a560840174dc8054fb4b3e1858",
          "topics": [
            "0x8c5be1e5ebec7d5bd14f71427d1e84f3dd0314c0f7b2291e5b200ac8c7c3b925",
            "0x00000000000000000000000065b1ddd708dc7e169c831ae1f4fd4dc94bf0a417",
            "0x0000000000000000000000007b192a675ac3877c6308f7d96033b9c2d7ae5600"
          ],
          "data": "0x00000000000000000000000000000000000000000000000063a3fb586c21ca51",
          "blockHash": "0xf05a0aa95731c08432c3e1aaf321b6e610ffae3278771e11fa8eb41ef0ee8f90",
          "blockNumber": "0x73ecc1",
          "transactionHash": "0x66a8ad8f910528cc9cf1c4882aca9fc5a460c123ba7ea1a260780e065436d141",
          "transactionIndex": "0xb1",
          "logIndex": "0x147",
          "removed": false
        },
        {
          "address": "0xfff9976782d46cc05630d1f6ebab18b2324d6b14",
          "topics": [
            "0xddf252ad1be2c89b69c2b068fc378daa952ba7f163c4a11628f55a4df523b3ef",
            "0x00000000000000000000000004910128b1d626f1a144ba59329efe6172cad937",
            "0x00000000000000000000000065b1ddd708dc7e169c831ae1f4fd4dc94bf0a417"
          ],
          "data": "0x00000000000000000000000000000000000000000000000000008925255725b9",
          "blockHash": "0xf05a0aa95731c08432c3e1aaf321b6e610ffae3278771e11fa8eb41ef0ee8f90",
          "blockNumber": "0x73ecc1",
          "transactionHash": "0x66a8ad8f910528cc9cf1c4882aca9fc5a460c123ba7ea1a260780e065436d141",
          "transactionIndex": "0xb1",
          "logIndex": "0x148",
          "removed": false
        },
        {
          "address": "0x9cd4f9bec89e00a560840174dc8054fb4b3e1858",
          "topics": [
            "0xddf252ad1be2c89b69c2b068fc378daa952ba7f163c4a11628f55a4df523b3ef",
            "0x00000000000000000000000065b1ddd708dc7e169c831ae1f4fd4dc94bf0a417",
            "0x00000000000000000000000004910128b1d626f1a144ba59329efe6172cad937"
          ],
          "data": "0x00000000000000000000000000000000000000000000000063a3fb586c21ca51",
          "blockHash": "0xf05a0aa95731c08432c3e1aaf321b6e610ffae3278771e11fa8eb41ef0ee8f90",
          "blockNumber": "0x73ecc1",
          "transactionHash": "0x66a8ad8f910528cc9cf1c4882aca9fc5a460c123ba7ea1a260780e065436d141",
          "transactionIndex": "0xb1",
          "logIndex": "0x149",
          "removed": false
        },
        {
          "address": "0x04910128b1d626f1a144ba59329efe6172cad937",
          "topics": [
            "0xc42079f94a6350d7e6235f29174924f928cc2ac818eb64fed8004e115fbcca67",
            "0x0000000000000000000000007b192a675ac3877c6308f7d96033b9c2d7ae5600",
            "0x00000000000000000000000065b1ddd708dc7e169c831ae1f4fd4dc94bf0a417"
          ],
          "data": "0x00000000000000000000000000000000000000000000000063a3fb586c21ca51ffffffffffffffffffffffffffffffffffffffffffffffffffff76dadaa8da470000000000000000000000000000000000000000012cae26eb82fd1c478509540000000000000000000000000000000000000000000000026ca8996ee1c8f3fdfffffffffffffffffffffffffffffffffffffffffffffffffffffffffffe5b54",
          "blockHash": "0xf05a0aa95731c08432c3e1aaf321b6e610ffae3278771e11fa8eb41ef0ee8f90",
          "blockNumber": "0x73ecc1",
          "transactionHash": "0x66a8ad8f910528cc9cf1c4882aca9fc5a460c123ba7ea1a260780e065436d141",
          "transactionIndex": "0xb1",
          "logIndex": "0x14a",
          "removed": false
        },
        {
          "address": "0x98e4d7a3cbd82d34a0ea59a062dba356b2e685dd",
          "topics": [
            "0xa92ff919b850e4909ab2261d907ef955f11bc1716733a6cbece38d163a69af8a"
          ],
          "data": "0x0000000000000000000000008b0d01137979e409bba15098aa5665c64777400300000000000000000000000065b1ddd708dc7e169c831ae1f4fd4dc94bf0a417000000000000000000000000000000000000000000000000f8e5b5316e9c528f",
          "blockHash": "0xf05a0aa95731c08432c3e1aaf321b6e610ffae3278771e11fa8eb41ef0ee8f90",
          "blockNumber": "0x73ecc1",
          "transactionHash": "0x66a8ad8f910528cc9cf1c4882aca9fc5a460c123ba7ea1a260780e065436d141",
          "transactionIndex": "0xb1",
          "logIndex": "0x14b",
          "removed": false
        },
        {
          "address": "0x8b0d01137979e409bba15098aa5665c647774003",
          "topics": [
            "0xddf252ad1be2c89b69c2b068fc378daa952ba7f163c4a11628f55a4df523b3ef",
            "0x00000000000000000000000098e4d7a3cbd82d34a0ea59a062dba356b2e685dd",
            "0x00000000000000000000000065b1ddd708dc7e169c831ae1f4fd4dc94bf0a417"
          ],
          "data": "0x000000000000000000000000000000000000000000000000f8e5b5316e9c528f",
          "blockHash": "0xf05a0aa95731c08432c3e1aaf321b6e610ffae3278771e11fa8eb41ef0ee8f90",
          "blockNumber": "0x73ecc1",
          "transactionHash": "0x66a8ad8f910528cc9cf1c4882aca9fc5a460c123ba7ea1a260780e065436d141",
          "transactionIndex": "0xb1",
          "logIndex": "0x14c",
          "removed": false
        },
        {
          "address": "0x8b0d01137979e409bba15098aa5665c647774003",
          "topics": [
            "0x8c5be1e5ebec7d5bd14f71427d1e84f3dd0314c0f7b2291e5b200ac8c7c3b925",
            "0x00000000000000000000000065b1ddd708dc7e169c831ae1f4fd4dc94bf0a417",
            "0x0000000000000000000000007b192a675ac3877c6308f7d96033b9c2d7ae5600"
          ],
          "data": "0x000000000000000000000000000000000000000000000000f8e5b5316e9c528f",
          "blockHash": "0xf05a0aa95731c08432c3e1aaf321b6e610ffae3278771e11fa8eb41ef0ee8f90",
          "blockNumber": "0x73ecc1",
          "transactionHash": "0x66a8ad8f910528cc9cf1c4882aca9fc5a460c123ba7ea1a260780e065436d141",
          "transactionIndex": "0xb1",
          "logIndex": "0x14d",
          "removed": false
        },
        {
          "address": "0xfff9976782d46cc05630d1f6ebab18b2324d6b14",
          "topics": [
            "0xddf252ad1be2c89b69c2b068fc378daa952ba7f163c4a11628f55a4df523b3ef",
            "0x000000000000000000000000d43bb355d6c0ced9b4a62d56f4131672f8098889",
            "0x00000000000000000000000065b1ddd708dc7e169c831ae1f4fd4dc94bf0a417"
          ],
          "data": "0x00000000000000000000000000000000000000000000000000007249a0f2c2ba",
          "blockHash": "0xf05a0aa95731c08432c3e1aaf321b6e610ffae3278771e11fa8eb41ef0ee8f90",
          "blockNumber": "0x73ecc1",
          "transactionHash": "0x66a8ad8f910528cc9cf1c4882aca9fc5a460c123ba7ea1a260780e065436d141",
          "transactionIndex": "0xb1",
          "logIndex": "0x14e",
          "removed": false
        },
        {
          "address": "0x8b0d01137979e409bba15098aa5665c647774003",
          "topics": [
            "0xddf252ad1be2c89b69c2b068fc378daa952ba7f163c4a11628f55a4df523b3ef",
            "0x00000000000000000000000065b1ddd708dc7e169c831ae1f4fd4dc94bf0a417",
            "0x000000000000000000000000d43bb355d6c0ced9b4a62d56f4131672f8098889"
          ],
          "data": "0x000000000000000000000000000000000000000000000000f8e5b5316e9c528f",
          "blockHash": "0xf05a0aa95731c08432c3e1aaf321b6e610ffae3278771e11fa8eb41ef0ee8f90",
          "blockNumber": "0x73ecc1",
          "transactionHash": "0x66a8ad8f910528cc9cf1c4882aca9fc5a460c123ba7ea1a260780e065436d141",
          "transactionIndex": "0xb1",
          "logIndex": "0x14f",
          "removed": false
        },
        {
          "address": "0xd43bb355d6c0ced9b4a62d56f4131672f8098889",
          "topics": [
            "0xc42079f94a6350d7e6235f29174924f928cc2ac818eb64fed8004e115fbcca67",
            "0x0000000000000000000000007b192a675ac3877c6308f7d96033b9c2d7ae5600",
            "0x00000000000000000000000065b1ddd708dc7e169c831ae1f4fd4dc94bf0a417"
          ],
          "data": "0x000000000000000000000000000000000000000000000000f8e5b5316e9c528fffffffffffffffffffffffffffffffffffffffffffffffffffff8db65f0d3d46000000000000000000000000000000000000000000ada97631485e07f1e7bccd000000000000000000000000000000000000000000000003263b689762ad79b1fffffffffffffffffffffffffffffffffffffffffffffffffffffffffffe3071",
          "blockHash": "0xf05a0aa95731c08432c3e1aaf321b6e610ffae3278771e11fa8eb41ef0ee8f90",
          "blockNumber": "0x73ecc1",
          "transactionHash": "0x66a8ad8f910528cc9cf1c4882aca9fc5a460c123ba7ea1a260780e065436d141",
          "transactionIndex": "0xb1",
          "logIndex": "0x150",
          "removed": false
        },
        {
          "address": "0x98e4d7a3cbd82d34a0ea59a062dba356b2e685dd",
          "topics": [
            "0xa92ff919b850e4909ab2261d907ef955f11bc1716733a6cbece38d163a69af8a"
          ],
          "data": "0x000000000000000000000000c361ce0885faa9f6f5f41f2b2a08e72e465dfbc600000000000000000000000065b1ddd708dc7e169c831ae1f4fd4dc94bf0a417000000000000000000000000000000000000000000000000f9173c5a899fecf5",
          "blockHash": "0xf05a0aa95731c08432c3e1aaf321b6e610ffae3278771e11fa8eb41ef0ee8f90",
          "blockNumber": "0x73ecc1",
          "transactionHash": "0x66a8ad8f910528cc9cf1c4882aca9fc5a460c123ba7ea1a260780e065436d141",
          "transactionIndex": "0xb1",
          "logIndex": "0x151",
          "removed": false
        },
        {
          "address": "0xc361ce0885faa9f6f5f41f2b2a08e72e465dfbc6",
          "topics": [
            "0xddf252ad1be2c89b69c2b068fc378daa952ba7f163c4a11628f55a4df523b3ef",
            "0x00000000000000000000000098e4d7a3cbd82d34a0ea59a062dba356b2e685dd",
            "0x00000000000000000000000065b1ddd708dc7e169c831ae1f4fd4dc94bf0a417"
          ],
          "data": "0x000000000000000000000000000000000000000000000000f9173c5a899fecf5",
          "blockHash": "0xf05a0aa95731c08432c3e1aaf321b6e610ffae3278771e11fa8eb41ef0ee8f90",
          "blockNumber": "0x73ecc1",
          "transactionHash": "0x66a8ad8f910528cc9cf1c4882aca9fc5a460c123ba7ea1a260780e065436d141",
          "transactionIndex": "0xb1",
          "logIndex": "0x152",
          "removed": false
        },
        {
          "address": "0xc361ce0885faa9f6f5f41f2b2a08e72e465dfbc6",
          "topics": [
            "0x8c5be1e5ebec7d5bd14f71427d1e84f3dd0314c0f7b2291e5b200ac8c7c3b925",
            "0x00000000000000000000000065b1ddd708dc7e169c831ae1f4fd4dc94bf0a417",
            "0x0000000000000000000000007b192a675ac3877c6308f7d96033b9c2d7ae5600"
          ],
          "data": "0x000000000000000000000000000000000000000000000000f9173c5a899fecf5",
          "blockHash": "0xf05a0aa95731c08432c3e1aaf321b6e610ffae3278771e11fa8eb41ef0ee8f90",
          "blockNumber": "0x73ecc1",
          "transactionHash": "0x66a8ad8f910528cc9cf1c4882aca9fc5a460c123ba7ea1a260780e065436d141",
          "transactionIndex": "0xb1",
          "logIndex": "0x153",
          "removed": false
        },
        {
          "address": "0xfff9976782d46cc05630d1f6ebab18b2324d6b14",
          "topics": [
            "0xddf252ad1be2c89b69c2b068fc378daa952ba7f163c4a11628f55a4df523b3ef",
            "0x000000000000000000000000d4c994d5e19288af3027285e123ebaeff65a6144",
            "0x00000000000000000000000065b1ddd708dc7e169c831ae1f4fd4dc94bf0a417"
          ],
          "data": "0x00000000000000000000000000000000000000000000000000007249a0f496a3",
          "blockHash": "0xf05a0aa95731c08432c3e1aaf321b6e610ffae3278771e11fa8eb41ef0ee8f90",
          "blockNumber": "0x73ecc1",
          "transactionHash": "0x66a8ad8f910528cc9cf1c4882aca9fc5a460c123ba7ea1a260780e065436d141",
          "transactionIndex": "0xb1",
          "logIndex": "0x154",
          "removed": false
        },
        {
          "address": "0xc361ce0885faa9f6f5f41f2b2a08e72e465dfbc6",
          "topics": [
            "0xddf252ad1be2c89b69c2b068fc378daa952ba7f163c4a11628f55a4df523b3ef",
            "0x00000000000000000000000065b1ddd708dc7e169c831ae1f4fd4dc94bf0a417",
            "0x000000000000000000000000d4c994d5e19288af3027285e123ebaeff65a6144"
          ],
          "data": "0x000000000000000000000000000000000000000000000000f9173c5a899fecf5",
          "blockHash": "0xf05a0aa95731c08432c3e1aaf321b6e610ffae3278771e11fa8eb41ef0ee8f90",
          "blockNumber": "0x73ecc1",
          "transactionHash": "0x66a8ad8f910528cc9cf1c4882aca9fc5a460c123ba7ea1a260780e065436d141",
          "transactionIndex": "0xb1",
          "logIndex": "0x155",
          "removed": false
        },
        {
          "address": "0xd4c994d5e19288af3027285e123ebaeff65a6144",
          "topics": [
            "0xc42079f94a6350d7e6235f29174924f928cc2ac818eb64fed8004e115fbcca67",
            "0x0000000000000000000000007b192a675ac3877c6308f7d96033b9c2d7ae5600",
            "0x00000000000000000000000065b1ddd708dc7e169c831ae1f4fd4dc94bf0a417"
          ],
          "data": "0x000000000000000000000000000000000000000000000000f9173c5a899fecf5ffffffffffffffffffffffffffffffffffffffffffffffffffff8db65f0b695d000000000000000000000000000000000000000000ad982faf751926ec80f71c000000000000000000000000000000000000000000000003263b689762ad79b1fffffffffffffffffffffffffffffffffffffffffffffffffffffffffffe3069",
          "blockHash": "0xf05a0aa95731c08432c3e1aaf321b6e610ffae3278771e11fa8eb41ef0ee8f90",
          "blockNumber": "0x73ecc1",
          "transactionHash": "0x66a8ad8f910528cc9cf1c4882aca9fc5a460c123ba7ea1a260780e065436d141",
          "transactionIndex": "0xb1",
          "logIndex": "0x156",
          "removed": false
        },
        {
          "address": "0x98e4d7a3cbd82d34a0ea59a062dba356b2e685dd",
          "topics": [
            "0xa92ff919b850e4909ab2261d907ef955f11bc1716733a6cbece38d163a69af8a"
          ],
          "data": "0x000000000000000000000000cac218f00e79a6923228487c52dcba71666c6b1700000000000000000000000065b1ddd708dc7e169c831ae1f4fd4dc94bf0a417000000000000000000000000000000000000000000000000bd3c72126b582529",
          "blockHash": "0xf05a0aa95731c08432c3e1aaf321b6e610ffae3278771e11fa8eb41ef0ee8f90",
          "blockNumber": "0x73ecc1",
          "transactionHash": "0x66a8ad8f910528cc9cf1c4882aca9fc5a460c123ba7ea1a260780e065436d141",
          "transactionIndex": "0xb1",
          "logIndex": "0x157",
          "removed": false
        },
        {
          "address": "0xcac218f00e79a6923228487c52dcba71666c6b17",
          "topics": [
            "0xddf252ad1be2c89b69c2b068fc378daa952ba7f163c4a11628f55a4df523b3ef",
            "0x00000000000000000000000098e4d7a3cbd82d34a0ea59a062dba356b2e685dd",
            "0x00000000000000000000000065b1ddd708dc7e169c831ae1f4fd4dc94bf0a417"
          ],
          "data": "0x000000000000000000000000000000000000000000000000bd3c72126b582529",
          "blockHash": "0xf05a0aa95731c08432c3e1aaf321b6e610ffae3278771e11fa8eb41ef0ee8f90",
          "blockNumber": "0x73ecc1",
          "transactionHash": "0x66a8ad8f910528cc9cf1c4882aca9fc5a460c123ba7ea1a260780e065436d141",
          "transactionIndex": "0xb1",
          "logIndex": "0x158",
          "removed": false
        },
        {
          "address": "0xcac218f00e79a6923228487c52dcba71666c6b17",
          "topics": [
            "0x8c5be1e5ebec7d5bd14f71427d1e84f3dd0314c0f7b2291e5b200ac8c7c3b925",
            "0x00000000000000000000000065b1ddd708dc7e169c831ae1f4fd4dc94bf0a417",
            "0x0000000000000000000000007b192a675ac3877c6308f7d96033b9c2d7ae5600"
          ],
          "data": "0x000000000000000000000000000000000000000000000000bd3c72126b582529",
          "blockHash": "0xf05a0aa95731c08432c3e1aaf321b6e610ffae3278771e11fa8eb41ef0ee8f90",
          "blockNumber": "0x73ecc1",
          "transactionHash": "0x66a8ad8f910528cc9cf1c4882aca9fc5a460c123ba7ea1a260780e065436d141",
          "transactionIndex": "0xb1",
          "logIndex": "0x159",
          "removed": false
        },
        {
          "address": "0xfff9976782d46cc05630d1f6ebab18b2324d6b14",
          "topics": [
            "0xddf252ad1be2c89b69c2b068fc378daa952ba7f163c4a11628f55a4df523b3ef",
            "0x000000000000000000000000146bb497af6bbe90c49e83b5cc723e0bef9674c1",
            "0x00000000000000000000000065b1ddd708dc7e169c831ae1f4fd4dc94bf0a417"
          ],
          "data": "0x000000000000000000000000000000000000000000000000000055b7355620b0",
          "blockHash": "0xf05a0aa95731c08432c3e1aaf321b6e610ffae3278771e11fa8eb41ef0ee8f90",
          "blockNumber": "0x73ecc1",
          "transactionHash": "0x66a8ad8f910528cc9cf1c4882aca9fc5a460c123ba7ea1a260780e065436d141",
          "transactionIndex": "0xb1",
          "logIndex": "0x15a",
          "removed": false
        },
        {
          "address": "0xcac218f00e79a6923228487c52dcba71666c6b17",
          "topics": [
            "0xddf252ad1be2c89b69c2b068fc378daa952ba7f163c4a11628f55a4df523b3ef",
            "0x00000000000000000000000065b1ddd708dc7e169c831ae1f4fd4dc94bf0a417",
            "0x000000000000000000000000146bb497af6bbe90c49e83b5cc723e0bef9674c1"
          ],
          "data": "0x000000000000000000000000000000000000000000000000bd3c72126b582529",
          "blockHash": "0xf05a0aa95731c08432c3e1aaf321b6e610ffae3278771e11fa8eb41ef0ee8f90",
          "blockNumber": "0x73ecc1",
          "transactionHash": "0x66a8ad8f910528cc9cf1c4882aca9fc5a460c123ba7ea1a260780e065436d141",
          "transactionIndex": "0xb1",
          "logIndex": "0x15b",
          "removed": false
        },
        {
          "address": "0x146bb497af6bbe90c49e83b5cc723e0bef9674c1",
          "topics": [
            "0xc42079f94a6350d7e6235f29174924f928cc2ac818eb64fed8004e115fbcca67",
            "0x0000000000000000000000007b192a675ac3877c6308f7d96033b9c2d7ae5600",
            "0x00000000000000000000000065b1ddd708dc7e169c831ae1f4fd4dc94bf0a417"
          ],
          "data": "0x000000000000000000000000000000000000000000000000bd3c72126b582529ffffffffffffffffffffffffffffffffffffffffffffffffffffaa48caa9df50000000000000000000000000000000000000000000ac7fc0887fd7fcdc948126000000000000000000000000000000000000000000000003263b689762ad79b1fffffffffffffffffffffffffffffffffffffffffffffffffffffffffffe2fea",
          "blockHash": "0xf05a0aa95731c08432c3e1aaf321b6e610ffae3278771e11fa8eb41ef0ee8f90",
          "blockNumber": "0x73ecc1",
          "transactionHash": "0x66a8ad8f910528cc9cf1c4882aca9fc5a460c123ba7ea1a260780e065436d141",
          "transactionIndex": "0xb1",
          "logIndex": "0x15c",
          "removed": false
        },
        {
          "address": "0x98e4d7a3cbd82d34a0ea59a062dba356b2e685dd",
          "topics": [
            "0xa92ff919b850e4909ab2261d907ef955f11bc1716733a6cbece38d163a69af8a"
          ],
          "data": "0x000000000000000000000000861b6db57c71f9e5b989a18d4c6f600b7b26e17000000000000000000000000065b1ddd708dc7e169c831ae1f4fd4dc94bf0a417000000000000000000000000000000000000000000000000bd3c72126b582529",
          "blockHash": "0xf05a0aa95731c08432c3e1aaf321b6e610ffae3278771e11fa8eb41ef0ee8f90",
          "blockNumber": "0x73ecc1",
          "transactionHash": "0x66a8ad8f910528cc9cf1c4882aca9fc5a460c123ba7ea1a260780e065436d141",
          "transactionIndex": "0xb1",
          "logIndex": "0x15d",
          "removed": false
        },
        {
          "address": "0x861b6db57c71f9e5b989a18d4c6f600b7b26e170",
          "topics": [
            "0xddf252ad1be2c89b69c2b068fc378daa952ba7f163c4a11628f55a4df523b3ef",
            "0x00000000000000000000000098e4d7a3cbd82d34a0ea59a062dba356b2e685dd",
            "0x00000000000000000000000065b1ddd708dc7e169c831ae1f4fd4dc94bf0a417"
          ],
          "data": "0x000000000000000000000000000000000000000000000000bd3c72126b582529",
          "blockHash": "0xf05a0aa95731c08432c3e1aaf321b6e610ffae3278771e11fa8eb41ef0ee8f90",
          "blockNumber": "0x73ecc1",
          "transactionHash": "0x66a8ad8f910528cc9cf1c4882aca9fc5a460c123ba7ea1a260780e065436d141",
          "transactionIndex": "0xb1",
          "logIndex": "0x15e",
          "removed": false
        },
        {
          "address": "0x861b6db57c71f9e5b989a18d4c6f600b7b26e170",
          "topics": [
            "0x8c5be1e5ebec7d5bd14f71427d1e84f3dd0314c0f7b2291e5b200ac8c7c3b925",
            "0x00000000000000000000000065b1ddd708dc7e169c831ae1f4fd4dc94bf0a417",
            "0x0000000000000000000000007b192a675ac3877c6308f7d96033b9c2d7ae5600"
          ],
          "data": "0x000000000000000000000000000000000000000000000000bd3c72126b582529",
          "blockHash": "0xf05a0aa95731c08432c3e1aaf321b6e610ffae3278771e11fa8eb41ef0ee8f90",
          "blockNumber": "0x73ecc1",
          "transactionHash": "0x66a8ad8f910528cc9cf1c4882aca9fc5a460c123ba7ea1a260780e065436d141",
          "transactionIndex": "0xb1",
          "logIndex": "0x15f",
          "removed": false
        },
        {
          "address": "0xfff9976782d46cc05630d1f6ebab18b2324d6b14",
          "topics": [
            "0xddf252ad1be2c89b69c2b068fc378daa952ba7f163c4a11628f55a4df523b3ef",
            "0x00000000000000000000000011060c179e07b088ddcdd8f735cf9b5d030da0e2",
            "0x00000000000000000000000065b1ddd708dc7e169c831ae1f4fd4dc94bf0a417"
          ],
          "data": "0x000000000000000000000000000000000000000000000000000055b7355620b0",
          "blockHash": "0xf05a0aa95731c08432c3e1aaf321b6e610ffae3278771e11fa8eb41ef0ee8f90",
          "blockNumber": "0x73ecc1",
          "transactionHash": "0x66a8ad8f910528cc9cf1c4882aca9fc5a460c123ba7ea1a260780e065436d141",
          "transactionIndex": "0xb1",
          "logIndex": "0x160",
          "removed": false
        },
        {
          "address": "0x861b6db57c71f9e5b989a18d4c6f600b7b26e170",
          "topics": [
            "0xddf252ad1be2c89b69c2b068fc378daa952ba7f163c4a11628f55a4df523b3ef",
            "0x00000000000000000000000065b1ddd708dc7e169c831ae1f4fd4dc94bf0a417",
            "0x00000000000000000000000011060c179e07b088ddcdd8f735cf9b5d030da0e2"
          ],
          "data": "0x000000000000000000000000000000000000000000000000bd3c72126b582529",
          "blockHash": "0xf05a0aa95731c08432c3e1aaf321b6e610ffae3278771e11fa8eb41ef0ee8f90",
          "blockNumber": "0x73ecc1",
          "transactionHash": "0x66a8ad8f910528cc9cf1c4882aca9fc5a460c123ba7ea1a260780e065436d141",
          "transactionIndex": "0xb1",
          "logIndex": "0x161",
          "removed": false
        },
        {
          "address": "0x11060c179e07b088ddcdd8f735cf9b5d030da0e2",
          "topics": [
            "0xc42079f94a6350d7e6235f29174924f928cc2ac818eb64fed8004e115fbcca67",
            "0x0000000000000000000000007b192a675ac3877c6308f7d96033b9c2d7ae5600",
            "0x00000000000000000000000065b1ddd708dc7e169c831ae1f4fd4dc94bf0a417"
          ],
          "data": "0x000000000000000000000000000000000000000000000000bd3c72126b582529ffffffffffffffffffffffffffffffffffffffffffffffffffffaa48caa9df50000000000000000000000000000000000000000000ac7fc0887fd7fcdc948126000000000000000000000000000000000000000000000003263b689762ad79b1fffffffffffffffffffffffffffffffffffffffffffffffffffffffffffe2fea",
          "blockHash": "0xf05a0aa95731c08432c3e1aaf321b6e610ffae3278771e11fa8eb41ef0ee8f90",
          "blockNumber": "0x73ecc1",
          "transactionHash": "0x66a8ad8f910528cc9cf1c4882aca9fc5a460c123ba7ea1a260780e065436d141",
          "transactionIndex": "0xb1",
          "logIndex": "0x162",
          "removed": false
        },
        {
          "address": "0x98e4d7a3cbd82d34a0ea59a062dba356b2e685dd",
          "topics": [
            "0xa92ff919b850e4909ab2261d907ef955f11bc1716733a6cbece38d163a69af8a"
          ],
          "data": "0x000000000000000000000000e4e401c5a31d43550d9218ccf412a761e5441f3900000000000000000000000065b1ddd708dc7e169c831ae1f4fd4dc94bf0a4170000000000000000000000000000000000000000000000009891564cfa66c30f",
          "blockHash": "0xf05a0aa95731c08432c3e1aaf321b6e610ffae3278771e11fa8eb41ef0ee8f90",
          "blockNumber": "0x73ecc1",
          "transactionHash": "0x66a8ad8f910528cc9cf1c4882aca9fc5a460c123ba7ea1a260780e065436d141",
          "transactionIndex": "0xb1",
          "logIndex": "0x163",
          "removed": false
        },
        {
          "address": "0xe4e401c5a31d43550d9218ccf412a761e5441f39",
          "topics": [
            "0xddf252ad1be2c89b69c2b068fc378daa952ba7f163c4a11628f55a4df523b3ef",
            "0x00000000000000000000000098e4d7a3cbd82d34a0ea59a062dba356b2e685dd",
            "0x00000000000000000000000065b1ddd708dc7e169c831ae1f4fd4dc94bf0a417"
          ],
          "data": "0x0000000000000000000000000000000000000000000000009891564cfa66c30f",
          "blockHash": "0xf05a0aa95731c08432c3e1aaf321b6e610ffae3278771e11fa8eb41ef0ee8f90",
          "blockNumber": "0x73ecc1",
          "transactionHash": "0x66a8ad8f910528cc9cf1c4882aca9fc5a460c123ba7ea1a260780e065436d141",
          "transactionIndex": "0xb1",
          "logIndex": "0x164",
          "removed": false
        },
        {
          "address": "0xe4e401c5a31d43550d9218ccf412a761e5441f39",
          "topics": [
            "0x8c5be1e5ebec7d5bd14f71427d1e84f3dd0314c0f7b2291e5b200ac8c7c3b925",
            "0x00000000000000000000000065b1ddd708dc7e169c831ae1f4fd4dc94bf0a417",
            "0x0000000000000000000000007b192a675ac3877c6308f7d96033b9c2d7ae5600"
          ],
          "data": "0x0000000000000000000000000000000000000000000000009891564cfa66c30f",
          "blockHash": "0xf05a0aa95731c08432c3e1aaf321b6e610ffae3278771e11fa8eb41ef0ee8f90",
          "blockNumber": "0x73ecc1",
          "transactionHash": "0x66a8ad8f910528cc9cf1c4882aca9fc5a460c123ba7ea1a260780e065436d141",
          "transactionIndex": "0xb1",
          "logIndex": "0x165",
          "removed": false
        },
        {
          "address": "0xfff9976782d46cc05630d1f6ebab18b2324d6b14",
          "topics": [
            "0xddf252ad1be2c89b69c2b068fc378daa952ba7f163c4a11628f55a4df523b3ef",
            "0x000000000000000000000000756c03c33a25b32410b28ea43b1a911b60d66ba5",
            "0x00000000000000000000000065b1ddd708dc7e169c831ae1f4fd4dc94bf0a417"
          ],
          "data": "0x000000000000000000000000000000000000000000000000000044928f6dfb31",
          "blockHash": "0xf05a0aa95731c08432c3e1aaf321b6e610ffae3278771e11fa8eb41ef0ee8f90",
          "blockNumber": "0x73ecc1",
          "transactionHash": "0x66a8ad8f910528cc9cf1c4882aca9fc5a460c123ba7ea1a260780e065436d141",
          "transactionIndex": "0xb1",
          "logIndex": "0x166",
          "removed": false
        },
        {
          "address": "0xe4e401c5a31d43550d9218ccf412a761e5441f39",
          "topics": [
            "0xddf252ad1be2c89b69c2b068fc378daa952ba7f163c4a11628f55a4df523b3ef",
            "0x00000000000000000000000065b1ddd708dc7e169c831ae1f4fd4dc94bf0a417",
            "0x000000000000000000000000756c03c33a25b32410b28ea43b1a911b60d66ba5"
          ],
          "data": "0x0000000000000000000000000000000000000000000000009891564cfa66c30f",
          "blockHash": "0xf05a0aa95731c08432c3e1aaf321b6e610ffae3278771e11fa8eb41ef0ee8f90",
          "blockNumber": "0x73ecc1",
          "transactionHash": "0x66a8ad8f910528cc9cf1c4882aca9fc5a460c123ba7ea1a260780e065436d141",
          "transactionIndex": "0xb1",
          "logIndex": "0x167",
          "removed": false
        },
        {
          "address": "0x756c03c33a25b32410b28ea43b1a911b60d66ba5",
          "topics": [
            "0xc42079f94a6350d7e6235f29174924f928cc2ac818eb64fed8004e115fbcca67",
            "0x0000000000000000000000007b192a675ac3877c6308f7d96033b9c2d7ae5600",
            "0x00000000000000000000000065b1ddd708dc7e169c831ae1f4fd4dc94bf0a417"
          ],
          "data": "0x0000000000000000000000000000000000000000000000009891564cfa66c30fffffffffffffffffffffffffffffffffffffffffffffffffffffbb6d709204cf000000000000000000000000000000000000000000abd77aa16aed7adb2a712b000000000000000000000000000000000000000000000003263b689762ad79b1fffffffffffffffffffffffffffffffffffffffffffffffffffffffffffe2f9e",
          "blockHash": "0xf05a0aa95731c08432c3e1aaf321b6e610ffae3278771e11fa8eb41ef0ee8f90",
          "blockNumber": "0x73ecc1",
          "transactionHash": "0x66a8ad8f910528cc9cf1c4882aca9fc5a460c123ba7ea1a260780e065436d141",
          "transactionIndex": "0xb1",
          "logIndex": "0x168",
          "removed": false
        },
        {
          "address": "0x98e4d7a3cbd82d34a0ea59a062dba356b2e685dd",
          "topics": [
            "0xa92ff919b850e4909ab2261d907ef955f11bc1716733a6cbece38d163a69af8a"
          ],
          "data": "0x000000000000000000000000dc29d1b632f84b64f9b2742d1cd305d11f9db76a00000000000000000000000065b1ddd708dc7e169c831ae1f4fd4dc94bf0a4170000000000000000000000000000000000000000000000009891564cfa66c30f",
          "blockHash": "0xf05a0aa95731c08432c3e1aaf321b6e610ffae3278771e11fa8eb41ef0ee8f90",
          "blockNumber": "0x73ecc1",
          "transactionHash": "0x66a8ad8f910528cc9cf1c4882aca9fc5a460c123ba7ea1a260780e065436d141",
          "transactionIndex": "0xb1",
          "logIndex": "0x169",
          "removed": false
        },
        {
          "address": "0xdc29d1b632f84b64f9b2742d1cd305d11f9db76a",
          "topics": [
            "0xddf252ad1be2c89b69c2b068fc378daa952ba7f163c4a11628f55a4df523b3ef",
            "0x00000000000000000000000098e4d7a3cbd82d34a0ea59a062dba356b2e685dd",
            "0x00000000000000000000000065b1ddd708dc7e169c831ae1f4fd4dc94bf0a417"
          ],
          "data": "0x0000000000000000000000000000000000000000000000009891564cfa66c30f",
          "blockHash": "0xf05a0aa95731c08432c3e1aaf321b6e610ffae3278771e11fa8eb41ef0ee8f90",
          "blockNumber": "0x73ecc1",
          "transactionHash": "0x66a8ad8f910528cc9cf1c4882aca9fc5a460c123ba7ea1a260780e065436d141",
          "transactionIndex": "0xb1",
          "logIndex": "0x16a",
          "removed": false
        },
        {
          "address": "0xdc29d1b632f84b64f9b2742d1cd305d11f9db76a",
          "topics": [
            "0x8c5be1e5ebec7d5bd14f71427d1e84f3dd0314c0f7b2291e5b200ac8c7c3b925",
            "0x00000000000000000000000065b1ddd708dc7e169c831ae1f4fd4dc94bf0a417",
            "0x0000000000000000000000007b192a675ac3877c6308f7d96033b9c2d7ae5600"
          ],
          "data": "0x0000000000000000000000000000000000000000000000009891564cfa66c30f",
          "blockHash": "0xf05a0aa95731c08432c3e1aaf321b6e610ffae3278771e11fa8eb41ef0ee8f90",
          "blockNumber": "0x73ecc1",
          "transactionHash": "0x66a8ad8f910528cc9cf1c4882aca9fc5a460c123ba7ea1a260780e065436d141",
          "transactionIndex": "0xb1",
          "logIndex": "0x16b",
          "removed": false
        },
        {
          "address": "0xfff9976782d46cc05630d1f6ebab18b2324d6b14",
          "topics": [
            "0xddf252ad1be2c89b69c2b068fc378daa952ba7f163c4a11628f55a4df523b3ef",
            "0x000000000000000000000000ee7892149fb31686ec289bd3831edc478d2fea0d",
            "0x00000000000000000000000065b1ddd708dc7e169c831ae1f4fd4dc94bf0a417"
          ],
          "data": "0x000000000000000000000000000000000000000000000000000044928f6dfb31",
          "blockHash": "0xf05a0aa95731c08432c3e1aaf321b6e610ffae3278771e11fa8eb41ef0ee8f90",
          "blockNumber": "0x73ecc1",
          "transactionHash": "0x66a8ad8f910528cc9cf1c4882aca9fc5a460c123ba7ea1a260780e065436d141",
          "transactionIndex": "0xb1",
          "logIndex": "0x16c",
          "removed": false
        },
        {
          "address": "0xdc29d1b632f84b64f9b2742d1cd305d11f9db76a",
          "topics": [
            "0xddf252ad1be2c89b69c2b068fc378daa952ba7f163c4a11628f55a4df523b3ef",
            "0x00000000000000000000000065b1ddd708dc7e169c831ae1f4fd4dc94bf0a417",
            "0x000000000000000000000000ee7892149fb31686ec289bd3831edc478d2fea0d"
          ],
          "data": "0x0000000000000000000000000000000000000000000000009891564cfa66c30f",
          "blockHash": "0xf05a0aa95731c08432c3e1aaf321b6e610ffae3278771e11fa8eb41ef0ee8f90",
          "blockNumber": "0x73ecc1",
          "transactionHash": "0x66a8ad8f910528cc9cf1c4882aca9fc5a460c123ba7ea1a260780e065436d141",
          "transactionIndex": "0xb1",
          "logIndex": "0x16d",
          "removed": false
        },
        {
          "address": "0xee7892149fb31686ec289bd3831edc478d2fea0d",
          "topics": [
            "0xc42079f94a6350d7e6235f29174924f928cc2ac818eb64fed8004e115fbcca67",
            "0x0000000000000000000000007b192a675ac3877c6308f7d96033b9c2d7ae5600",
            "0x00000000000000000000000065b1ddd708dc7e169c831ae1f4fd4dc94bf0a417"
          ],
          "data": "0x0000000000000000000000000000000000000000000000009891564cfa66c30fffffffffffffffffffffffffffffffffffffffffffffffffffffbb6d709204cf000000000000000000000000000000000000000000abd77aa16aed7adb2a712b000000000000000000000000000000000000000000000003263b689762ad79b1fffffffffffffffffffffffffffffffffffffffffffffffffffffffffffe2f9e",
          "blockHash": "0xf05a0aa95731c08432c3e1aaf321b6e610ffae3278771e11fa8eb41ef0ee8f90",
          "blockNumber": "0x73ecc1",
          "transactionHash": "0x66a8ad8f910528cc9cf1c4882aca9fc5a460c123ba7ea1a260780e065436d141",
          "transactionIndex": "0xb1",
          "logIndex": "0x16e",
          "removed": false
        },
        {
          "address": "0x98e4d7a3cbd82d34a0ea59a062dba356b2e685dd",
          "topics": [
            "0xa92ff919b850e4909ab2261d907ef955f11bc1716733a6cbece38d163a69af8a"
          ],
          "data": "0x0000000000000000000000007844288a55b09af610200c738e9714a3b55eea3400000000000000000000000065b1ddd708dc7e169c831ae1f4fd4dc94bf0a4170000000000000000000000000000000000000000000000009891564cfa66c30f",
          "blockHash": "0xf05a0aa95731c08432c3e1aaf321b6e610ffae3278771e11fa8eb41ef0ee8f90",
          "blockNumber": "0x73ecc1",
          "transactionHash": "0x66a8ad8f910528cc9cf1c4882aca9fc5a460c123ba7ea1a260780e065436d141",
          "transactionIndex": "0xb1",
          "logIndex": "0x16f",
          "removed": false
        },
        {
          "address": "0x7844288a55b09af610200c738e9714a3b55eea34",
          "topics": [
            "0xddf252ad1be2c89b69c2b068fc378daa952ba7f163c4a11628f55a4df523b3ef",
            "0x00000000000000000000000098e4d7a3cbd82d34a0ea59a062dba356b2e685dd",
            "0x00000000000000000000000065b1ddd708dc7e169c831ae1f4fd4dc94bf0a417"
          ],
          "data": "0x0000000000000000000000000000000000000000000000009891564cfa66c30f",
          "blockHash": "0xf05a0aa95731c08432c3e1aaf321b6e610ffae3278771e11fa8eb41ef0ee8f90",
          "blockNumber": "0x73ecc1",
          "transactionHash": "0x66a8ad8f910528cc9cf1c4882aca9fc5a460c123ba7ea1a260780e065436d141",
          "transactionIndex": "0xb1",
          "logIndex": "0x170",
          "removed": false
        },
        {
          "address": "0x7844288a55b09af610200c738e9714a3b55eea34",
          "topics": [
            "0x8c5be1e5ebec7d5bd14f71427d1e84f3dd0314c0f7b2291e5b200ac8c7c3b925",
            "0x00000000000000000000000065b1ddd708dc7e169c831ae1f4fd4dc94bf0a417",
            "0x0000000000000000000000007b192a675ac3877c6308f7d96033b9c2d7ae5600"
          ],
          "data": "0x0000000000000000000000000000000000000000000000009891564cfa66c30f",
          "blockHash": "0xf05a0aa95731c08432c3e1aaf321b6e610ffae3278771e11fa8eb41ef0ee8f90",
          "blockNumber": "0x73ecc1",
          "transactionHash": "0x66a8ad8f910528cc9cf1c4882aca9fc5a460c123ba7ea1a260780e065436d141",
          "transactionIndex": "0xb1",
          "logIndex": "0x171",
          "removed": false
        },
        {
          "address": "0xfff9976782d46cc05630d1f6ebab18b2324d6b14",
          "topics": [
            "0xddf252ad1be2c89b69c2b068fc378daa952ba7f163c4a11628f55a4df523b3ef",
            "0x000000000000000000000000f4e6d0f03145882f93fdc53a5ef35abc93f25152",
            "0x00000000000000000000000065b1ddd708dc7e169c831ae1f4fd4dc94bf0a417"
          ],
          "data": "0x000000000000000000000000000000000000000000000000000044928f6dfb31",
          "blockHash": "0xf05a0aa95731c08432c3e1aaf321b6e610ffae3278771e11fa8eb41ef0ee8f90",
          "blockNumber": "0x73ecc1",
          "transactionHash": "0x66a8ad8f910528cc9cf1c4882aca9fc5a460c123ba7ea1a260780e065436d141",
          "transactionIndex": "0xb1",
          "logIndex": "0x172",
          "removed": false
        },
        {
          "address": "0x7844288a55b09af610200c738e9714a3b55eea34",
          "topics": [
            "0xddf252ad1be2c89b69c2b068fc378daa952ba7f163c4a11628f55a4df523b3ef",
            "0x00000000000000000000000065b1ddd708dc7e169c831ae1f4fd4dc94bf0a417",
            "0x000000000000000000000000f4e6d0f03145882f93fdc53a5ef35abc93f25152"
          ],
          "data": "0x0000000000000000000000000000000000000000000000009891564cfa66c30f",
          "blockHash": "0xf05a0aa95731c08432c3e1aaf321b6e610ffae3278771e11fa8eb41ef0ee8f90",
          "blockNumber": "0x73ecc1",
          "transactionHash": "0x66a8ad8f910528cc9cf1c4882aca9fc5a460c123ba7ea1a260780e065436d141",
          "transactionIndex": "0xb1",
          "logIndex": "0x173",
          "removed": false
        },
        {
          "address": "0xf4e6d0f03145882f93fdc53a5ef35abc93f25152",
          "topics": [
            "0xc42079f94a6350d7e6235f29174924f928cc2ac818eb64fed8004e115fbcca67",
            "0x0000000000000000000000007b192a675ac3877c6308f7d96033b9c2d7ae5600",
            "0x00000000000000000000000065b1ddd708dc7e169c831ae1f4fd4dc94bf0a417"
          ],
          "data": "0x0000000000000000000000000000000000000000000000009891564cfa66c30fffffffffffffffffffffffffffffffffffffffffffffffffffffbb6d709204cf000000000000000000000000000000000000000000abd77aa16aed7adb2a712b000000000000000000000000000000000000000000000003263b689762ad79b1fffffffffffffffffffffffffffffffffffffffffffffffffffffffffffe2f9e",
          "blockHash": "0xf05a0aa95731c08432c3e1aaf321b6e610ffae3278771e11fa8eb41ef0ee8f90",
          "blockNumber": "0x73ecc1",
          "transactionHash": "0x66a8ad8f910528cc9cf1c4882aca9fc5a460c123ba7ea1a260780e065436d141",
          "transactionIndex": "0xb1",
          "logIndex": "0x174",
          "removed": false
        },
        {
          "address": "0x98e4d7a3cbd82d34a0ea59a062dba356b2e685dd",
          "topics": [
            "0xa92ff919b850e4909ab2261d907ef955f11bc1716733a6cbece38d163a69af8a"
          ],
          "data": "0x00000000000000000000000046f7ba9b4bfa0f7179a01bf42143e78e65fd790400000000000000000000000065b1ddd708dc7e169c831ae1f4fd4dc94bf0a4170000000000000000000000000000000000000000000000007fcd14863e06a985",
          "blockHash": "0xf05a0aa95731c08432c3e1aaf321b6e610ffae3278771e11fa8eb41ef0ee8f90",
          "blockNumber": "0x73ecc1",
          "transactionHash": "0x66a8ad8f910528cc9cf1c4882aca9fc5a460c123ba7ea1a260780e065436d141",
          "transactionIndex": "0xb1",
          "logIndex": "0x175",
          "removed": false
        },
        {
          "address": "0x46f7ba9b4bfa0f7179a01bf42143e78e65fd7904",
          "topics": [
            "0xddf252ad1be2c89b69c2b068fc378daa952ba7f163c4a11628f55a4df523b3ef",
            "0x00000000000000000000000098e4d7a3cbd82d34a0ea59a062dba356b2e685dd",
            "0x00000000000000000000000065b1ddd708dc7e169c831ae1f4fd4dc94bf0a417"
          ],
          "data": "0x0000000000000000000000000000000000000000000000007fcd14863e06a985",
          "blockHash": "0xf05a0aa95731c08432c3e1aaf321b6e610ffae3278771e11fa8eb41ef0ee8f90",
          "blockNumber": "0x73ecc1",
          "transactionHash": "0x66a8ad8f910528cc9cf1c4882aca9fc5a460c123ba7ea1a260780e065436d141",
          "transactionIndex": "0xb1",
          "logIndex": "0x176",
          "removed": false
        },
        {
          "address": "0x46f7ba9b4bfa0f7179a01bf42143e78e65fd7904",
          "topics": [
            "0x8c5be1e5ebec7d5bd14f71427d1e84f3dd0314c0f7b2291e5b200ac8c7c3b925",
            "0x00000000000000000000000065b1ddd708dc7e169c831ae1f4fd4dc94bf0a417",
            "0x0000000000000000000000007b192a675ac3877c6308f7d96033b9c2d7ae5600"
          ],
          "data": "0x0000000000000000000000000000000000000000000000007fcd14863e06a985",
          "blockHash": "0xf05a0aa95731c08432c3e1aaf321b6e610ffae3278771e11fa8eb41ef0ee8f90",
          "blockNumber": "0x73ecc1",
          "transactionHash": "0x66a8ad8f910528cc9cf1c4882aca9fc5a460c123ba7ea1a260780e065436d141",
          "transactionIndex": "0xb1",
          "logIndex": "0x177",
          "removed": false
        },
        {
          "address": "0xfff9976782d46cc05630d1f6ebab18b2324d6b14",
          "topics": [
            "0xddf252ad1be2c89b69c2b068fc378daa952ba7f163c4a11628f55a4df523b3ef",
            "0x000000000000000000000000b51d0cfa14c32407efeb6f509686d143863d8150",
            "0x00000000000000000000000065b1ddd708dc7e169c831ae1f4fd4dc94bf0a417"
          ],
          "data": "0x00000000000000000000000000000000000000000000000000003924cbf0ef60",
          "blockHash": "0xf05a0aa95731c08432c3e1aaf321b6e610ffae3278771e11fa8eb41ef0ee8f90",
          "blockNumber": "0x73ecc1",
          "transactionHash": "0x66a8ad8f910528cc9cf1c4882aca9fc5a460c123ba7ea1a260780e065436d141",
          "transactionIndex": "0xb1",
          "logIndex": "0x178",
          "removed": false
        },
        {
          "address": "0x46f7ba9b4bfa0f7179a01bf42143e78e65fd7904",
          "topics": [
            "0xddf252ad1be2c89b69c2b068fc378daa952ba7f163c4a11628f55a4df523b3ef",
            "0x00000000000000000000000065b1ddd708dc7e169c831ae1f4fd4dc94bf0a417",
            "0x000000000000000000000000b51d0cfa14c32407efeb6f509686d143863d8150"
          ],
          "data": "0x0000000000000000000000000000000000000000000000007fcd14863e06a985",
          "blockHash": "0xf05a0aa95731c08432c3e1aaf321b6e610ffae3278771e11fa8eb41ef0ee8f90",
          "blockNumber": "0x73ecc1",
          "transactionHash": "0x66a8ad8f910528cc9cf1c4882aca9fc5a460c123ba7ea1a260780e065436d141",
          "transactionIndex": "0xb1",
          "logIndex": "0x179",
          "removed": false
        },
        {
          "address": "0xb51d0cfa14c32407efeb6f509686d143863d8150",
          "topics": [
            "0xc42079f94a6350d7e6235f29174924f928cc2ac818eb64fed8004e115fbcca67",
            "0x0000000000000000000000007b192a675ac3877c6308f7d96033b9c2d7ae5600",
            "0x00000000000000000000000065b1ddd708dc7e169c831ae1f4fd4dc94bf0a417"
          ],
          "data": "0x0000000000000000000000000000000000000000000000007fcd14863e06a985ffffffffffffffffffffffffffffffffffffffffffffffffffffc6db340f10a0000000000000000000000000000000000000000000ab674ab0c30483bd602f91000000000000000000000000000000000000000000000003263b689762ad79b1fffffffffffffffffffffffffffffffffffffffffffffffffffffffffffe2f6b",
          "blockHash": "0xf05a0aa95731c08432c3e1aaf321b6e610ffae3278771e11fa8eb41ef0ee8f90",
          "blockNumber": "0x73ecc1",
          "transactionHash": "0x66a8ad8f910528cc9cf1c4882aca9fc5a460c123ba7ea1a260780e065436d141",
          "transactionIndex": "0xb1",
          "logIndex": "0x17a",
          "removed": false
        },
        {
          "address": "0x98e4d7a3cbd82d34a0ea59a062dba356b2e685dd",
          "topics": [
            "0xa92ff919b850e4909ab2261d907ef955f11bc1716733a6cbece38d163a69af8a"
          ],
          "data": "0x0000000000000000000000002a0fda08272292883187019773f5c655cc7804ff00000000000000000000000065b1ddd708dc7e169c831ae1f4fd4dc94bf0a4170000000000000000000000000000000000000000000000007fcd14863e06a985",
          "blockHash": "0xf05a0aa95731c08432c3e1aaf321b6e610ffae3278771e11fa8eb41ef0ee8f90",
          "blockNumber": "0x73ecc1",
          "transactionHash": "0x66a8ad8f910528cc9cf1c4882aca9fc5a460c123ba7ea1a260780e065436d141",
          "transactionIndex": "0xb1",
          "logIndex": "0x17b",
          "removed": false
        },
        {
          "address": "0x2a0fda08272292883187019773f5c655cc7804ff",
          "topics": [
            "0xddf252ad1be2c89b69c2b068fc378daa952ba7f163c4a11628f55a4df523b3ef",
            "0x00000000000000000000000098e4d7a3cbd82d34a0ea59a062dba356b2e685dd",
            "0x00000000000000000000000065b1ddd708dc7e169c831ae1f4fd4dc94bf0a417"
          ],
          "data": "0x0000000000000000000000000000000000000000000000007fcd14863e06a985",
          "blockHash": "0xf05a0aa95731c08432c3e1aaf321b6e610ffae3278771e11fa8eb41ef0ee8f90",
          "blockNumber": "0x73ecc1",
          "transactionHash": "0x66a8ad8f910528cc9cf1c4882aca9fc5a460c123ba7ea1a260780e065436d141",
          "transactionIndex": "0xb1",
          "logIndex": "0x17c",
          "removed": false
        },
        {
          "address": "0x2a0fda08272292883187019773f5c655cc7804ff",
          "topics": [
            "0x8c5be1e5ebec7d5bd14f71427d1e84f3dd0314c0f7b2291e5b200ac8c7c3b925",
            "0x00000000000000000000000065b1ddd708dc7e169c831ae1f4fd4dc94bf0a417",
            "0x0000000000000000000000007b192a675ac3877c6308f7d96033b9c2d7ae5600"
          ],
          "data": "0x0000000000000000000000000000000000000000000000007fcd14863e06a985",
          "blockHash": "0xf05a0aa95731c08432c3e1aaf321b6e610ffae3278771e11fa8eb41ef0ee8f90",
          "blockNumber": "0x73ecc1",
          "transactionHash": "0x66a8ad8f910528cc9cf1c4882aca9fc5a460c123ba7ea1a260780e065436d141",
          "transactionIndex": "0xb1",
          "logIndex": "0x17d",
          "removed": false
        },
        {
          "address": "0xfff9976782d46cc05630d1f6ebab18b2324d6b14",
          "topics": [
            "0xddf252ad1be2c89b69c2b068fc378daa952ba7f163c4a11628f55a4df523b3ef",
            "0x0000000000000000000000000e398baf5a436eaad7be991bbabd060034b81398",
            "0x00000000000000000000000065b1ddd708dc7e169c831ae1f4fd4dc94bf0a417"
          ],
          "data": "0x00000000000000000000000000000000000000000000000000003924cbf0ef60",
          "blockHash": "0xf05a0aa95731c08432c3e1aaf321b6e610ffae3278771e11fa8eb41ef0ee8f90",
          "blockNumber": "0x73ecc1",
          "transactionHash": "0x66a8ad8f910528cc9cf1c4882aca9fc5a460c123ba7ea1a260780e065436d141",
          "transactionIndex": "0xb1",
          "logIndex": "0x17e",
          "removed": false
        },
        {
          "address": "0x2a0fda08272292883187019773f5c655cc7804ff",
          "topics": [
            "0xddf252ad1be2c89b69c2b068fc378daa952ba7f163c4a11628f55a4df523b3ef",
            "0x00000000000000000000000065b1ddd708dc7e169c831ae1f4fd4dc94bf0a417",
            "0x0000000000000000000000000e398baf5a436eaad7be991bbabd060034b81398"
          ],
          "data": "0x0000000000000000000000000000000000000000000000007fcd14863e06a985",
          "blockHash": "0xf05a0aa95731c08432c3e1aaf321b6e610ffae3278771e11fa8eb41ef0ee8f90",
          "blockNumber": "0x73ecc1",
          "transactionHash": "0x66a8ad8f910528cc9cf1c4882aca9fc5a460c123ba7ea1a260780e065436d141",
          "transactionIndex": "0xb1",
          "logIndex": "0x17f",
          "removed": false
        },
        {
          "address": "0x0e398baf5a436eaad7be991bbabd060034b81398",
          "topics": [
            "0xc42079f94a6350d7e6235f29174924f928cc2ac818eb64fed8004e115fbcca67",
            "0x0000000000000000000000007b192a675ac3877c6308f7d96033b9c2d7ae5600",
            "0x00000000000000000000000065b1ddd708dc7e169c831ae1f4fd4dc94bf0a417"
          ],
          "data": "0x0000000000000000000000000000000000000000000000007fcd14863e06a985ffffffffffffffffffffffffffffffffffffffffffffffffffffc6db340f10a0000000000000000000000000000000000000000000ab674ab0c30483bd602f91000000000000000000000000000000000000000000000003263b689762ad79b1fffffffffffffffffffffffffffffffffffffffffffffffffffffffffffe2f6b",
          "blockHash": "0xf05a0aa95731c08432c3e1aaf321b6e610ffae3278771e11fa8eb41ef0ee8f90",
          "blockNumber": "0x73ecc1",
          "transactionHash": "0x66a8ad8f910528cc9cf1c4882aca9fc5a460c123ba7ea1a260780e065436d141",
          "transactionIndex": "0xb1",
          "logIndex": "0x180",
          "removed": false
        },
        {
          "address": "0x98e4d7a3cbd82d34a0ea59a062dba356b2e685dd",
          "topics": [
            "0xa92ff919b850e4909ab2261d907ef955f11bc1716733a6cbece38d163a69af8a"
          ],
          "data": "0x0000000000000000000000006aefff05e69df302e4fe508778c23996a53b440f00000000000000000000000065b1ddd708dc7e169c831ae1f4fd4dc94bf0a4170000000000000000000000000000000000000000000000007fcd14863e06a985",
          "blockHash": "0xf05a0aa95731c08432c3e1aaf321b6e610ffae3278771e11fa8eb41ef0ee8f90",
          "blockNumber": "0x73ecc1",
          "transactionHash": "0x66a8ad8f910528cc9cf1c4882aca9fc5a460c123ba7ea1a260780e065436d141",
          "transactionIndex": "0xb1",
          "logIndex": "0x181",
          "removed": false
        },
        {
          "address": "0x6aefff05e69df302e4fe508778c23996a53b440f",
          "topics": [
            "0xddf252ad1be2c89b69c2b068fc378daa952ba7f163c4a11628f55a4df523b3ef",
            "0x00000000000000000000000098e4d7a3cbd82d34a0ea59a062dba356b2e685dd",
            "0x00000000000000000000000065b1ddd708dc7e169c831ae1f4fd4dc94bf0a417"
          ],
          "data": "0x0000000000000000000000000000000000000000000000007fcd14863e06a985",
          "blockHash": "0xf05a0aa95731c08432c3e1aaf321b6e610ffae3278771e11fa8eb41ef0ee8f90",
          "blockNumber": "0x73ecc1",
          "transactionHash": "0x66a8ad8f910528cc9cf1c4882aca9fc5a460c123ba7ea1a260780e065436d141",
          "transactionIndex": "0xb1",
          "logIndex": "0x182",
          "removed": false
        },
        {
          "address": "0x6aefff05e69df302e4fe508778c23996a53b440f",
          "topics": [
            "0x8c5be1e5ebec7d5bd14f71427d1e84f3dd0314c0f7b2291e5b200ac8c7c3b925",
            "0x00000000000000000000000065b1ddd708dc7e169c831ae1f4fd4dc94bf0a417",
            "0x0000000000000000000000007b192a675ac3877c6308f7d96033b9c2d7ae5600"
          ],
          "data": "0x0000000000000000000000000000000000000000000000007fcd14863e06a985",
          "blockHash": "0xf05a0aa95731c08432c3e1aaf321b6e610ffae3278771e11fa8eb41ef0ee8f90",
          "blockNumber": "0x73ecc1",
          "transactionHash": "0x66a8ad8f910528cc9cf1c4882aca9fc5a460c123ba7ea1a260780e065436d141",
          "transactionIndex": "0xb1",
          "logIndex": "0x183",
          "removed": false
        },
        {
          "address": "0xfff9976782d46cc05630d1f6ebab18b2324d6b14",
          "topics": [
            "0xddf252ad1be2c89b69c2b068fc378daa952ba7f163c4a11628f55a4df523b3ef",
            "0x000000000000000000000000804b914be6f5617f4a4a927581a12a8155f91472",
            "0x00000000000000000000000065b1ddd708dc7e169c831ae1f4fd4dc94bf0a417"
          ],
          "data": "0x00000000000000000000000000000000000000000000000000003924cbf0ef60",
          "blockHash": "0xf05a0aa95731c08432c3e1aaf321b6e610ffae3278771e11fa8eb41ef0ee8f90",
          "blockNumber": "0x73ecc1",
          "transactionHash": "0x66a8ad8f910528cc9cf1c4882aca9fc5a460c123ba7ea1a260780e065436d141",
          "transactionIndex": "0xb1",
          "logIndex": "0x184",
          "removed": false
        },
        {
          "address": "0x6aefff05e69df302e4fe508778c23996a53b440f",
          "topics": [
            "0xddf252ad1be2c89b69c2b068fc378daa952ba7f163c4a11628f55a4df523b3ef",
            "0x00000000000000000000000065b1ddd708dc7e169c831ae1f4fd4dc94bf0a417",
            "0x000000000000000000000000804b914be6f5617f4a4a927581a12a8155f91472"
          ],
          "data": "0x0000000000000000000000000000000000000000000000007fcd14863e06a985",
          "blockHash": "0xf05a0aa95731c08432c3e1aaf321b6e610ffae3278771e11fa8eb41ef0ee8f90",
          "blockNumber": "0x73ecc1",
          "transactionHash": "0x66a8ad8f910528cc9cf1c4882aca9fc5a460c123ba7ea1a260780e065436d141",
          "transactionIndex": "0xb1",
          "logIndex": "0x185",
          "removed": false
        },
        {
          "address": "0x804b914be6f5617f4a4a927581a12a8155f91472",
          "topics": [
            "0xc42079f94a6350d7e6235f29174924f928cc2ac818eb64fed8004e115fbcca67",
            "0x0000000000000000000000007b192a675ac3877c6308f7d96033b9c2d7ae5600",
            "0x00000000000000000000000065b1ddd708dc7e169c831ae1f4fd4dc94bf0a417"
          ],
          "data": "0x0000000000000000000000000000000000000000000000007fcd14863e06a985ffffffffffffffffffffffffffffffffffffffffffffffffffffc6db340f10a0000000000000000000000000000000000000000000ab674ab0c30483bd602f91000000000000000000000000000000000000000000000003263b689762ad79b1fffffffffffffffffffffffffffffffffffffffffffffffffffffffffffe2f6b",
          "blockHash": "0xf05a0aa95731c08432c3e1aaf321b6e610ffae3278771e11fa8eb41ef0ee8f90",
          "blockNumber": "0x73ecc1",
          "transactionHash": "0x66a8ad8f910528cc9cf1c4882aca9fc5a460c123ba7ea1a260780e065436d141",
          "transactionIndex": "0xb1",
          "logIndex": "0x186",
          "removed": false
        },
        {
          "address": "0xfff9976782d46cc05630d1f6ebab18b2324d6b14",
          "topics": [
            "0x7fcf532c15f0a6db0bd6d0e038bea71d30d808c7d98cb3bf7268a95bf5081b65",
            "0x00000000000000000000000065b1ddd708dc7e169c831ae1f4fd4dc94bf0a417"
          ],
          "data": "0x00000000000000000000000000000000000000000000000000039162d470f713",
          "blockHash": "0xf05a0aa95731c08432c3e1aaf321b6e610ffae3278771e11fa8eb41ef0ee8f90",
          "blockNumber": "0x73ecc1",
          "transactionHash": "0x66a8ad8f910528cc9cf1c4882aca9fc5a460c123ba7ea1a260780e065436d141",
          "transactionIndex": "0xb1",
          "logIndex": "0x187",
          "removed": false
        },
        {
          "address": "0xfff9976782d46cc05630d1f6ebab18b2324d6b14",
          "topics": [
            "0xddf252ad1be2c89b69c2b068fc378daa952ba7f163c4a11628f55a4df523b3ef",
            "0x00000000000000000000000065b1ddd708dc7e169c831ae1f4fd4dc94bf0a417",
            "0x00000000000000000000000051256f5459c1dde0c794818af42569030901a098"
          ],
          "data": "0x000000000000000000000000000000000000000000000000000000ea0f968916",
          "blockHash": "0xf05a0aa95731c08432c3e1aaf321b6e610ffae3278771e11fa8eb41ef0ee8f90",
          "blockNumber": "0x73ecc1",
          "transactionHash": "0x66a8ad8f910528cc9cf1c4882aca9fc5a460c123ba7ea1a260780e065436d141",
          "transactionIndex": "0xb1",
          "logIndex": "0x188",
          "removed": false
        },
        {
          "address": "0x65b1ddd708dc7e169c831ae1f4fd4dc94bf0a417",
          "topics": [
            "0x4f808f68134f8b72b842a276c2b37b03415d4992c65a94fcee50d33201915b99",
            "0x00000000000000000000000051256f5459c1dde0c794818af42569030901a098",
            "0x000000000000000000000000fff9976782d46cc05630d1f6ebab18b2324d6b14"
          ],
          "data": "0x0000000000000000000000000000000000000000000000000de0b6b3a764000000000000000000000000000000000000000000000000000000039162d470f71300000000000000000000000000000000000000000000000000000000679a5dac",
          "blockHash": "0xf05a0aa95731c08432c3e1aaf321b6e610ffae3278771e11fa8eb41ef0ee8f90",
          "blockNumber": "0x73ecc1",
          "transactionHash": "0x66a8ad8f910528cc9cf1c4882aca9fc5a460c123ba7ea1a260780e065436d141",
          "transactionIndex": "0xb1",
          "logIndex": "0x189",
          "removed": false
        }
      ],
      "logsBloom": "0x00820080001000020004040000002004000000000002000400000000100000000000000104000888080040000040000010800a000018210c000040000022000001a408010022804c08202008000000800020600300400000800000024000000000000200030008000808000020010810000800000000040008020010000c0008024000000001000004010000448000008000001040000000000020010000000002002000020108004200102000400044001100088201000000800000110001000800004200000000000202100108000000000000000000000000000a000030000010000004000000010010010000080080000000000000040610480042902000",
      "type": "0x2",
      "transactionHash": "0x66a8ad8f910528cc9cf1c4882aca9fc5a460c123ba7ea1a260780e065436d141",
      "transactionIndex": "0xb1",
      "blockHash": "0xf05a0aa95731c08432c3e1aaf321b6e610ffae3278771e11fa8eb41ef0ee8f90",
      "blockNumber": "0x73ecc1",
      "gasUsed": "0x17b107",
      "effectiveGasPrice": "0x192aa6ac8",
      "from": "0x51256f5459c1dde0c794818af42569030901a098",
      "to": "0x65b1ddd708dc7e169c831ae1f4fd4dc94bf0a417",
      "contractAddress": null
    }
  ],
  "libraries": [],
  "pending": [],
  "returns": {},
  "timestamp": 1738169773,
  "chain": 11155111,
  "commit": "5a8789f"
}