{
  "transactions": [
    {
      "hash": "0xfff067dad9e26453ba2674b0fb18ceb9b4f0942793fec90d928e95b65f0daa64",
      "transactionType": "CALL",
      "contractName": null,
      "contractAddress": "0x70195bd938bb6f558d8d688d4a45335e073d20af",
      "function": "setMinter(address)",
      "arguments": [
        "0x2f2C4d407c086C3155568dCc1eD4ee25106045Ff"
      ],
      "transaction": {
        "from": "0x11a8e23dafbe058e9758c899daee0e43f287a96d",
        "to": "0x70195bd938bb6f558d8d688d4a45335e073d20af",
        "gas": "0x1669e",
        "value": "0x0",
        "input": "0xfca3b5aa0000000000000000000000002f2c4d407c086c3155568dcc1ed4ee25106045ff",
        "nonce": "0x26",
        "chainId": "0xa4b1"
      },
      "additionalContracts": [],
      "isFixedGasLimit": false
    },
    {
      "hash": "0xf4a2bd6a35eb0d2e60ebb36e54363531fd8ca93e8fd02d72c42056fc204578a1",
      "transactionType": "CALL",
      "contractName": null,
      "contractAddress": "0x66b13dbcc6b107668f46174d0964030f103c3d3a",
      "function": "setFeeReceiver(address)",
      "arguments": [
        "0x11a8E23DAfbE058e9758c899dAEe0e43f287A96D"
      ],
      "transaction": {
        "from": "0x11a8e23dafbe058e9758c899daee0e43f287a96d",
        "to": "0x66b13dbcc6b107668f46174d0964030f103c3d3a",
        "gas": "0x15a85",
        "value": "0x0",
        "input": "0xefdcd97400000000000000000000000011a8e23dafbe058e9758c899daee0e43f287a96d",
        "nonce": "0x27",
        "chainId": "0xa4b1"
      },
      "additionalContracts": [],
      "isFixedGasLimit": false
    },
    {
      "hash": "0x6db291bf85832429f84de71a051e2a344572a92ddae0e3e909da313543e1f899",
      "transactionType": "CALL",
      "contractName": null,
      "contractAddress": "0x66b13dbcc6b107668f46174d0964030f103c3d3a",
      "function": "setPriceOracle(address)",
      "arguments": [
        "0xf152eC679af54997fdfeFf8e9c5d32a8bB51c871"
      ],
      "transaction": {
        "from": "0x11a8e23dafbe058e9758c899daee0e43f287a96d",
        "to": "0x66b13dbcc6b107668f46174d0964030f103c3d3a",
        "gas": "0x15871",
        "value": "0x0",
        "input": "0x530e784f000000000000000000000000f152ec679af54997fdfeff8e9c5d32a8bb51c871",
        "nonce": "0x28",
        "chainId": "0xa4b1"
      },
      "additionalContracts": [],
      "isFixedGasLimit": false
    },
    {
      "hash": "0xc147229aea797d926d31504d505ef40da233692d5fdb4d45291e2e00df0ae53c",
      "transactionType": "CALL",
      "contractName": null,
      "contractAddress": "0x66b13dbcc6b107668f46174d0964030f103c3d3a",
      "function": "setVault(address)",
      "arguments": [
        "0x3Cb3E448c3f30C1c3655722bDb54541D89ec8E09"
      ],
      "transaction": {
        "from": "0x11a8e23dafbe058e9758c899daee0e43f287a96d",
        "to": "0x66b13dbcc6b107668f46174d0964030f103c3d3a",
        "gas": "0x1587c",
        "value": "0x0",
        "input": "0x6817031b0000000000000000000000003cb3e448c3f30c1c3655722bdb54541d89ec8e09",
        "nonce": "0x29",
        "chainId": "0xa4b1"
      },
      "additionalContracts": [],
      "isFixedGasLimit": false
    },
    {
      "hash": "0x8988a37794e41c8a3ea73e3dcf8004bc0c139c9cc118bde51d9a6936ccbbce48",
      "transactionType": "CALL",
      "contractName": null,
      "contractAddress": "0x66b13dbcc6b107668f46174d0964030f103c3d3a",
      "function": "setFactoryBalancer(address)",
      "arguments": [
        "0xaF5F884e945c464f2E2ac799821b834835FD4eBa"
      ],
      "transaction": {
        "from": "0x11a8e23dafbe058e9758c899daee0e43f287a96d",
        "to": "0x66b13dbcc6b107668f46174d0964030f103c3d3a",
        "gas": "0x15950",
        "value": "0x0",
        "input": "0xd5fbea63000000000000000000000000af5f884e945c464f2e2ac799821b834835fd4eba",
        "nonce": "0x2a",
        "chainId": "0xa4b1"
      },
      "additionalContracts": [],
      "isFixedGasLimit": false
    },
    {
      "hash": "0x501f727ec2d984ffec039b26ac0a9c0a6695a1033662c92f124d0d2238cb3b73",
      "transactionType": "CALL",
      "contractName": null,
      "contractAddress": "0x3cb3e448c3f30c1c3655722bdb54541d89ec8e09",
      "function": "setOperator(address,bool)",
      "arguments": [
        "0x2f2C4d407c086C3155568dCc1eD4ee25106045Ff",
        "true"
      ],
      "transaction": {
        "from": "0x11a8e23dafbe058e9758c899daee0e43f287a96d",
        "to": "0x3cb3e448c3f30c1c3655722bdb54541d89ec8e09",
        "gas": "0x1d5a6",
        "value": "0x0",
        "input": "0x558a72970000000000000000000000002f2c4d407c086c3155568dcc1ed4ee25106045ff0000000000000000000000000000000000000000000000000000000000000001",
        "nonce": "0x2b",
        "chainId": "0xa4b1"
      },
      "additionalContracts": [],
      "isFixedGasLimit": false
    },
    {
      "hash": "0x5cf565be7b8a3b148d74d9429bbcd407c4c1af884da56f3127713c286b2a68c7",
      "transactionType": "CALL",
      "contractName": null,
      "contractAddress": "0x3cb3e448c3f30c1c3655722bdb54541d89ec8e09",
      "function": "setOperator(address,bool)",
      "arguments": [
        "0xaF5F884e945c464f2E2ac799821b834835FD4eBa",
        "true"
      ],
      "transaction": {
        "from": "0x11a8e23dafbe058e9758c899daee0e43f287a96d",
        "to": "0x3cb3e448c3f30c1c3655722bdb54541d89ec8e09",
        "gas": "0x17903",
        "value": "0x0",
        "input": "0x558a7297000000000000000000000000af5f884e945c464f2e2ac799821b834835fd4eba0000000000000000000000000000000000000000000000000000000000000001",
        "nonce": "0x2c",
        "chainId": "0xa4b1"
      },
      "additionalContracts": [],
      "isFixedGasLimit": false
    },
    {
      "hash": "0x541744b388c2abc5d7ef03988f35d7c4c83c53008420e7a96176d3df7545c98f",
      "transactionType": "CALL",
      "contractName": null,
      "contractAddress": "0x66b13dbcc6b107668f46174d0964030f103c3d3a",
      "function": "mockFillAssetsList(address[],bytes[],uint256[],uint24[])",
      "arguments": [
        "[0x0c880f6761F1af8d9Aa9C466984b80DAb9a8c9e8, 0x6694340fc020c5E6B96567843da2df01b2CE1eb6, 0xFa7F8980b0f1E64A2062791cc3b0871572f1F7f0, 0x354A6dA3fcde098F8389cad84b0182725c6C91dE, 0xfc5A1A6EB076a2C7aD06eD22C90d7E710E35ad0a]",
        "[0x000000000000000000000000000000000000000000000000000000000000004000000000000000000000000000000000000000000000000000000000000000a0000000000000000000000000000000000000000000000000000000000000000200000000000000000000000082af49447d8a07e3bd95bd0d56f35241523fbab10000000000000000000000000c880f6761f1af8d9aa9c466984b80dab9a8c9e800000000000000000000000000000000000000000000000000000000000000010000000000000000000000000000000000000000000000000000000000000bb8, 0x000000000000000000000000000000000000000000000000000000000000004000000000000000000000000000000000000000000000000000000000000000a0000000000000000000000000000000000000000000000000000000000000000200000000000000000000000082af49447d8a07e3bd95bd0d56f35241523fbab10000000000000000000000006694340fc020c5e6b96567843da2df01b2ce1eb600000000000000000000000000000000000000000000000000000000000000010000000000000000000000000000000000000000000000000000000000000bb8, 0x000000000000000000000000000000000000000000000000000000000000004000000000000000000000000000000000000000000000000000000000000000a0000000000000000000000000000000000000000000000000000000000000000200000000000000000000000082af49447d8a07e3bd95bd0d56f35241523fbab1000000000000000000000000fa7f8980b0f1e64a2062791cc3b0871572f1f7f000000000000000000000000000000000000000000000000000000000000000010000000000000000000000000000000000000000000000000000000000000bb8, 0x000000000000000000000000000000000000000000000000000000000000004000000000000000000000000000000000000000000000000000000000000000a0000000000000000000000000000000000000000000000000000000000000000200000000000000000000000082af49447d8a07e3bd95bd0d56f35241523fbab1000000000000000000000000354a6da3fcde098f8389cad84b0182725c6c91de00000000000000000000000000000000000000000000000000000000000000010000000000000000000000000000000000000000000000000000000000000bb8, 0x000000000000000000000000000000000000000000000000000000000000004000000000000000000000000000000000000000000000000000000000000000a0000000000000000000000000000000000000000000000000000000000000000200000000000000000000000082af49447d8a07e3bd95bd0d56f35241523fbab1000000000000000000000000fc5a1a6eb076a2c7ad06ed22c90d7e710e35ad0a00000000000000000000000000000000000000000000000000000000000000010000000000000000000000000000000000000000000000000000000000000bb8]",
        "[280000000000000000, 230000000000000000, 180000000000000000, 180000000000000000, 130000000000000000]",
        "[3, 3, 3, 3, 3]"
      ],
      "transaction": {
        "from": "0x11a8e23dafbe058e9758c899daee0e43f287a96d",
        "to": "0x66b13dbcc6b107668f46174d0964030f103c3d3a",
        "gas": "0x791c9",
        "value": "0x0",
        "input": "0x33d8025400000000000000000000000000000000000000000000000000000000000000800000000000000000000000000000000000000000000000000000000000000140000000000000000000000000000000000000000000000000000000000000070000000000000000000000000000000000000000000000000000000000000007c000000000000000000000000000000000000000000000000000000000000000050000000000000000000000000c880f6761f1af8d9aa9c466984b80dab9a8c9e80000000000000000000000006694340fc020c5e6b96567843da2df01b2ce1eb6000000000000000000000000fa7f8980b0f1e64a2062791cc3b0871572f1f7f0000000000000000000000000354a6da3fcde098f8389cad84b0182725c6c91de000000000000000000000000fc5a1a6eb076a2c7ad06ed22c90d7e710e35ad0a000000000000000000000000000000000000000000000000000000000000000500000000000000000000000000000000000000000000000000000000000000a000000000000000000000000000000000000000000000000000000000000001a000000000000000000000000000000000000000000000000000000000000002a000000000000000000000000000000000000000000000000000000000000003a000000000000000000000000000000000000000000000000000000000000004a000000000000000000000000000000000000000000000000000000000000000e0000000000000000000000000000000000000000000000000000000000000004000000000000000000000000000000000000000000000000000000000000000a0000000000000000000000000000000000000000000000000000000000000000200000000000000000000000082af49447d8a07e3bd95bd0d56f35241523fbab10000000000000000000000000c880f6761f1af8d9aa9c466984b80dab9a8c9e800000000000000000000000000000000000000000000000000000000000000010000000000000000000000000000000000000000000000000000000000000bb800000000000000000000000000000000000000000000000000000000000000e0000000000000000000000000000000000000000000000000000000000000004000000000000000000000000000000000000000000000000000000000000000a0000000000000000000000000000000000000000000000000000000000000000200000000000000000000000082af49447d8a07e3bd95bd0d56f35241523fbab10000000000000000000000006694340fc020c5e6b96567843da2df01b2ce1eb600000000000000000000000000000000000000000000000000000000000000010000000000000000000000000000000000000000000000000000000000000bb800000000000000000000000000000000000000000000000000000000000000e0000000000000000000000000000000000000000000000000000000000000004000000000000000000000000000000000000000000000000000000000000000a0000000000000000000000000000000000000000000000000000000000000000200000000000000000000000082af49447d8a07e3bd95bd0d56f35241523fbab1000000000000000000000000fa7f8980b0f1e64a2062791cc3b0871572f1f7f000000000000000000000000000000000000000000000000000000000000000010000000000000000000000000000000000000000000000000000000000000bb800000000000000000000000000000000000000000000000000000000000000e0000000000000000000000000000000000000000000000000000000000000004000000000000000000000000000000000000000000000000000000000000000a0000000000000000000000000000000000000000000000000000000000000000200000000000000000000000082af49447d8a07e3bd95bd0d56f35241523fbab1000000000000000000000000354a6da3fcde098f8389cad84b0182725c6c91de00000000000000000000000000000000000000000000000000000000000000010000000000000000000000000000000000000000000000000000000000000bb800000000000000000000000000000000000000000000000000000000000000e0000000000000000000000000000000000000000000000000000000000000004000000000000000000000000000000000000000000000000000000000000000a0000000000000000000000000000000000000000000000000000000000000000200000000000000000000000082af49447d8a07e3bd95bd0d56f35241523fbab1000000000000000000000000fc5a1a6eb076a2c7ad06ed22c90d7e710e35ad0a00000000000000000000000000000000000000000000000000000000000000010000000000000000000000000000000000000000000000000000000000000bb8000000000000000000000000000000000000000000000000000000000000000500000000000000000000000000000000000000000000000003e2c284391c000000000000000000000000000000000000000000000000000003311fc80a570000000000000000000000000000000000000000000000000000027f7d0bdb920000000000000000000000000000000000000000000000000000027f7d0bdb92000000000000000000000000000000000000000000000000000001cdda4faccd0000000000000000000000000000000000000000000000000000000000000000000500000000000000000000000000000000000000000000000000000000000000030000000000000000000000000000000000000000000000000000000000000003000000000000000000000000000000000000000000000000000000000000000300000000000000000000000000000000000000000000000000000000000000030000000000000000000000000000000000000000000000000000000000000003",
        "nonce": "0x2d",
        "chainId": "0xa4b1"
      },
      "additionalContracts": [],
      "isFixedGasLimit": false
    }
  ],
  "receipts": [
    {
      "status": "0x1",
      "cumulativeGasUsed": "0x9f2bc",
      "logs": [
        {
          "address": "0x70195bd938bb6f558d8d688d4a45335e073d20af",
          "topics": [
            "0x726b590ef91a8c76ad05bbe91a57ef84605276528f49cd47d787f558a4e755b6",
            "0x0000000000000000000000002f2c4d407c086c3155568dcc1ed4ee25106045ff"
          ],
          "data": "0x",
          "blockHash": "0x240c83461114116e05484bfa992256f30c86be475b5c621c4a566a05ec542373",
          "blockNumber": "0x11eaf196",
          "transactionHash": "0xfff067dad9e26453ba2674b0fb18ceb9b4f0942793fec90d928e95b65f0daa64",
          "transactionIndex": "0x3",
          "logIndex": "0x4",
          "removed": false
        }
      ],
      "logsBloom": "0x00000000000000000000000000000000000000000000000000000000000000000000040000000000000000000000000000000000000000000080000000800000000000000000200000000000000000000800000000000000000000000000000000000000000000000000000400000000000000000000000000000000000000000000000000000000000000000000000000000000000000000000000000000000000000080000200000000000000000000000000000000000000000000000000000000000000000000000000000000800000000000000000000000000000000000000000000000000000000000000000000000000000000000000000000000000",
      "type": "0x2",
      "transactionHash": "0xfff067dad9e26453ba2674b0fb18ceb9b4f0942793fec90d928e95b65f0daa64",
      "transactionIndex": "0x3",
      "blockHash": "0x240c83461114116e05484bfa992256f30c86be475b5c621c4a566a05ec542373",
      "blockNumber": "0x11eaf196",
      "gasUsed": "0xe37d",
      "effectiveGasPrice": "0x8963a18",
      "from": "0x11a8e23dafbe058e9758c899daee0e43f287a96d",
      "to": "0x70195bd938bb6f558d8d688d4a45335e073d20af",
      "contractAddress": null,
      "gasUsedForL1": "0x517d",
      "l1BlockNumber": "0x14b9cdb"
    },
    {
      "status": "0x1",
      "cumulativeGasUsed": "0x180bca",
      "logs": [
        {
          "address": "0x66b13dbcc6b107668f46174d0964030f103c3d3a",
          "topics": [
            "0xbdf37c276f641820b141429d245add2552b4118c0866e5a78638e3de5ef18d9d",
            "0x00000000000000000000000011a8e23dafbe058e9758c899daee0e43f287a96d"
          ],
          "data": "0x",
          "blockHash": "0x210c8ba25d653c114ce64bb7dc520e7759594cfaf9fceb7c80d5baecd56a1638",
          "blockNumber": "0x11eaf19a",
          "transactionHash": "0xf4a2bd6a35eb0d2e60ebb36e54363531fd8ca93e8fd02d72c42056fc204578a1",
          "transactionIndex": "0xa",
          "logIndex": "0x19",
          "removed": false
        }
      ],
      "logsBloom": "0x00000000000000000000000000000000000000008000000000000000000000000000000000000000000000000000000000000000000000000000000000000000000000000000000000000000000000000000000000000400000000000000000000000000000000000000000000000000000000000000000000000100000000000000000000000000000000000000000080000000000000000000000000000000000040000000000000000000000000000000000008000000000000000004000000000000000000000000000000000000000000000000000000000000000000000000000000000000000000400000000000000100000000000000000000000000",
      "type": "0x2",
      "transactionHash": "0xf4a2bd6a35eb0d2e60ebb36e54363531fd8ca93e8fd02d72c42056fc204578a1",
      "transactionIndex": "0xa",
      "blockHash": "0x210c8ba25d653c114ce64bb7dc520e7759594cfaf9fceb7c80d5baecd56a1638",
      "blockNumber": "0x11eaf19a",
      "gasUsed": "0xd846",
      "effectiveGasPrice": "0x89718c0",
      "from": "0x11a8e23dafbe058e9758c899daee0e43f287a96d",
      "to": "0x66b13dbcc6b107668f46174d0964030f103c3d3a",
      "contractAddress": null,
      "gasUsedForL1": "0x5175",
      "l1BlockNumber": "0x14b9cdb"
    },
    {
      "status": "0x1",
      "cumulativeGasUsed": "0xfc5ad",
      "logs": [],
      "logsBloom": "0x00000000000000000000000000000000000000000000000000000000000000000000000000000000000000000000000000000000000000000000000000000000000000000000000000000000000000000000000000000000000000000000000000000000000000000000000000000000000000000000000000000000000000000000000000000000000000000000000000000000000000000000000000000000000000000000000000000000000000000000000000000000000000000000000000000000000000000000000000000000000000000000000000000000000000000000000000000000000000000000000000000000000000000000000000000000",
      "type": "0x2",
      "transactionHash": "0x6db291bf85832429f84de71a051e2a344572a92ddae0e3e909da313543e1f899",
      "transactionIndex": "0x4",
      "blockHash": "0x16f0d0bc903e87b459144026db808b3f14d5fbc3ca45994037e60a2f2d5d7a51",
      "blockNumber": "0x11eaf1a1",
      "gasUsed": "0xd43c",
      "effectiveGasPrice": "0x8902380",
      "from": "0x11a8e23dafbe058e9758c899daee0e43f287a96d",
      "to": "0x66b13dbcc6b107668f46174d0964030f103c3d3a",
      "contractAddress": null,
      "gasUsedForL1": "0x51b7",
      "l1BlockNumber": "0x14b9cdb"
    },
    {
      "status": "0x1",
      "cumulativeGasUsed": "0xdb7a4",
      "logs": [],
      "logsBloom": "0x00000000000000000000000000000000000000000000000000000000000000000000000000000000000000000000000000000000000000000000000000000000000000000000000000000000000000000000000000000000000000000000000000000000000000000000000000000000000000000000000000000000000000000000000000000000000000000000000000000000000000000000000000000000000000000000000000000000000000000000000000000000000000000000000000000000000000000000000000000000000000000000000000000000000000000000000000000000000000000000000000000000000000000000000000000000",
      "type": "0x2",
      "transactionHash": "0xc147229aea797d926d31504d505ef40da233692d5fdb4d45291e2e00df0ae53c",
      "transactionIndex": "0x2",
      "blockHash": "0xb897ab18f1ad75547bae5e9533b3b7a3e17333be24be78b4187a31ee21fb9023",
      "blockNumber": "0x11eaf1a5",
      "gasUsed": "0xd491",
      "effectiveGasPrice": "0x8880948",
      "from": "0x11a8e23dafbe058e9758c899daee0e43f287a96d",
      "to": "0x66b13dbcc6b107668f46174d0964030f103c3d3a",
      "contractAddress": null,
      "gasUsedForL1": "0x5204",
      "l1BlockNumber": "0x14b9cdb"
    },
    {
      "status": "0x1",
      "cumulativeGasUsed": "0x69b878",
      "logs": [],
      "logsBloom": "0x00000000000000000000000000000000000000000000000000000000000000000000000000000000000000000000000000000000000000000000000000000000000000000000000000000000000000000000000000000000000000000000000000000000000000000000000000000000000000000000000000000000000000000000000000000000000000000000000000000000000000000000000000000000000000000000000000000000000000000000000000000000000000000000000000000000000000000000000000000000000000000000000000000000000000000000000000000000000000000000000000000000000000000000000000000000",
      "type": "0x2",
      "transactionHash": "0x8988a37794e41c8a3ea73e3dcf8004bc0c139c9cc118bde51d9a6936ccbbce48",
      "transactionIndex": "0x5",
      "blockHash": "0x575f2761640ec37c7f74a689f6da4cf6772b1c23d773aaa912eace3a8ebe5a15",
      "blockNumber": "0x11eaf1aa",
      "gasUsed": "0xd3cd",
      "effectiveGasPrice": "0x89a31b8",
      "from": "0x11a8e23dafbe058e9758c899daee0e43f287a96d",
      "to": "0x66b13dbcc6b107668f46174d0964030f103c3d3a",
      "contractAddress": null,
      "gasUsedForL1": "0x5157",
      "l1BlockNumber": "0x14b9cdb"
    },
    {
      "status": "0x1",
      "cumulativeGasUsed": "0xb0dfa",
      "logs": [],
      "logsBloom": "0x00000000000000000000000000000000000000000000000000000000000000000000000000000000000000000000000000000000000000000000000000000000000000000000000000000000000000000000000000000000000000000000000000000000000000000000000000000000000000000000000000000000000000000000000000000000000000000000000000000000000000000000000000000000000000000000000000000000000000000000000000000000000000000000000000000000000000000000000000000000000000000000000000000000000000000000000000000000000000000000000000000000000000000000000000000000",
      "type": "0x2",
      "transactionHash": "0x501f727ec2d984ffec039b26ac0a9c0a6695a1033662c92f124d0d2238cb3b73",
      "transactionIndex": "0x2",
      "blockHash": "0x785f46351c9ae5631f937751a82e11b56fbc79c81fe503c779a0d51ea25005aa",
      "blockNumber": "0x11eaf1ae",
      "gasUsed": "0x133ff",
      "effectiveGasPrice": "0x8a87de0",
      "from": "0x11a8e23dafbe058e9758c899daee0e43f287a96d",
      "to": "0x3cb3e448c3f30c1c3655722bdb54541d89ec8e09",
      "contractAddress": null,
      "gasUsedForL1": "0x62d6",
      "l1BlockNumber": "0x14b9cdb"
    },
    {
      "status": "0x1",
      "cumulativeGasUsed": "0x1e94a2",
      "logs": [],
      "logsBloom": "0x00000000000000000000000000000000000000000000000000000000000000000000000000000000000000000000000000000000000000000000000000000000000000000000000000000000000000000000000000000000000000000000000000000000000000000000000000000000000000000000000000000000000000000000000000000000000000000000000000000000000000000000000000000000000000000000000000000000000000000000000000000000000000000000000000000000000000000000000000000000000000000000000000000000000000000000000000000000000000000000000000000000000000000000000000000000",
      "type": "0x2",
      "transactionHash": "0x5cf565be7b8a3b148d74d9429bbcd407c4c1af884da56f3127713c286b2a68c7",
      "transactionIndex": "0x6",
      "blockHash": "0x16c817ebfd561a3664750378cf4c0d90861630a81c175734ca918c481404c669",
      "blockNumber": "0x11eaf1b2",
      "gasUsed": "0xe69e",
      "effectiveGasPrice": "0x8a09a58",
      "from": "0x11a8e23dafbe058e9758c899daee0e43f287a96d",
      "to": "0x3cb3e448c3f30c1c3655722bdb54541d89ec8e09",
      "contractAddress": null,
      "gasUsedForL1": "0x6331",
      "l1BlockNumber": "0x14b9cdb"
    },
    {
      "status": "0x1",
      "cumulativeGasUsed": "0x55afa",
      "logs": [],
      "logsBloom": "0x00000000000000000000000000000000000000000000000000000000000000000000000000000000000000000000000000000000000000000000000000000000000000000000000000000000000000000000000000000000000000000000000000000000000000000000000000000000000000000000000000000000000000000000000000000000000000000000000000000000000000000000000000000000000000000000000000000000000000000000000000000000000000000000000000000000000000000000000000000000000000000000000000000000000000000000000000000000000000000000000000000000000000000000000000000000",
      "type": "0x2",
      "transactionHash": "0x541744b388c2abc5d7ef03988f35d7c4c83c53008420e7a96176d3df7545c98f",
      "transactionIndex": "0x1",
      "blockHash": "0x09e882718934a0c3ae11c274fea51b8e3ccd16ec62ae0fd5a8b7a641a056a989",
      "blockNumber": "0x11eaf1b6",
      "gasUsed": "0x55afa",
      "effectiveGasPrice": "0x8a96840",
      "from": "0x11a8e23dafbe058e9758c899daee0e43f287a96d",
      "to": "0x66b13dbcc6b107668f46174d0964030f103c3d3a",
      "contractAddress": null,
      "gasUsedForL1": "0x11bd6",
      "l1BlockNumber": "0x14b9cdc"
    }
  ],
  "libraries": [],
  "pending": [],
  "returns": {},
  "timestamp": 1738182494,
  "chain": 42161,
  "commit": "5a8789f"
}