{
  "transactions": [
    {
      "hash": "0x632f7c67f66ebf368594e72056c33f018518e8efcf0b55ae5c20ffd6a476a236",
      "transactionType": "CALL",
      "contractName": null,
      "contractAddress": "0x70195bd938bb6f558d8d688d4a45335e073d20af",
      "function": "setMinter(address)",
      "arguments": [
        "0x7C846a936c512D56B60e0Ec285dE091c369c61C4"
      ],
      "transaction": {
        "from": "0x11a8e23dafbe058e9758c899daee0e43f287a96d",
        "to": "0x70195bd938bb6f558d8d688d4a45335e073d20af",
        "gas": "0x1efee",
        "value": "0x0",
        "input": "0xfca3b5aa0000000000000000000000007c846a936c512d56b60e0ec285de091c369c61c4",
        "nonce": "0x1b",
        "chainId": "0xa4b1"
      },
      "additionalContracts": [],
      "isFixedGasLimit": false
    },
    {
      "hash": "0xec8527987be0904c3a87d17c02e162873ecc5045fe1e82cc9a90ddba5a506f4a",
      "transactionType": "CALL",
      "contractName": null,
      "contractAddress": "0x66b13dbcc6b107668f46174d0964030f103c3d3a",
      "function": "setFeeReceiver(address)",
      "arguments": [
        "0x11a8E23DAfbE058e9758c899dAEe0e43f287A96D"
      ],
      "transaction": {
        "from": "0x11a8e23dafbe058e9758c899daee0e43f287a96d",
        "to": "0x66b13dbcc6b107668f46174d0964030f103c3d3a",
        "gas": "0x1f272",
        "value": "0x0",
        "input": "0xefdcd97400000000000000000000000011a8e23dafbe058e9758c899daee0e43f287a96d",
        "nonce": "0x1c",
        "chainId": "0xa4b1"
      },
      "additionalContracts": [],
      "isFixedGasLimit": false
    },
    {
      "hash": "0x4e8014e619a6bcede5cc9bfebcadacba802d4c65cd0f40570b57a0a46a1ae18a",
      "transactionType": "CALL",
      "contractName": null,
      "contractAddress": "0x66b13dbcc6b107668f46174d0964030f103c3d3a",
      "function": "setPriceOracle(address)",
      "arguments": [
        "0xf152eC679af54997fdfeFf8e9c5d32a8bB51c871"
      ],
      "transaction": {
        "from": "0x11a8e23dafbe058e9758c899daee0e43f287a96d",
        "to": "0x66b13dbcc6b107668f46174d0964030f103c3d3a",
        "gas": "0x24ca9",
        "value": "0x0",
        "input": "0x530e784f000000000000000000000000f152ec679af54997fdfeff8e9c5d32a8bb51c871",
        "nonce": "0x1d",
        "chainId": "0xa4b1"
      },
      "additionalContracts": [],
      "isFixedGasLimit": false
    },
    {
      "hash": "0x371508dfbd90824c68175fcadee17316e17fe89a2194c5d79fc12239600f6c01",
      "transactionType": "CALL",
      "contractName": null,
      "contractAddress": "0x66b13dbcc6b107668f46174d0964030f103c3d3a",
      "function": "setVault(address)",
      "arguments": [
        "0x3Cb3E448c3f30C1c3655722bDb54541D89ec8E09"
      ],
      "transaction": {
        "from": "0x11a8e23dafbe058e9758c899daee0e43f287a96d",
        "to": "0x66b13dbcc6b107668f46174d0964030f103c3d3a",
        "gas": "0x24cb3",
        "value": "0x0",
        "input": "0x6817031b0000000000000000000000003cb3e448c3f30c1c3655722bdb54541d89ec8e09",
        "nonce": "0x1e",
        "chainId": "0xa4b1"
      },
      "additionalContracts": [],
      "isFixedGasLimit": false
    },
    {
      "hash": "0xf7c7a136408c38b8ac92f92f9e4a71cdb4460faac4d3e0181a721c533a48f580",
      "transactionType": "CALL",
      "contractName": null,
      "contractAddress": "0x66b13dbcc6b107668f46174d0964030f103c3d3a",
      "function": "setFactoryBalancer(address)",
      "arguments": [
        "0xaF5F884e945c464f2E2ac799821b834835FD4eBa"
      ],
      "transaction": {
        "from": "0x11a8e23dafbe058e9758c899daee0e43f287a96d",
        "to": "0x66b13dbcc6b107668f46174d0964030f103c3d3a",
        "gas": "0x24c70",
        "value": "0x0",
        "input": "0xd5fbea63000000000000000000000000af5f884e945c464f2e2ac799821b834835fd4eba",
        "nonce": "0x1f",
        "chainId": "0xa4b1"
      },
      "additionalContracts": [],
      "isFixedGasLimit": false
    },
    {
      "hash": "0xd1446db53d18e6e78b7e16db8e833164ae8129dcd6852b8f2ae02a9d69d5ca4a",
      "transactionType": "CALL",
      "contractName": null,
      "contractAddress": "0x3cb3e448c3f30c1c3655722bdb54541d89ec8e09",
      "function": "setOperator(address,bool)",
      "arguments": [
        "0x7C846a936c512D56B60e0Ec285dE091c369c61C4",
        "true"
      ],
      "transaction": {
        "from": "0x11a8e23dafbe058e9758c899daee0e43f287a96d",
        "to": "0x3cb3e448c3f30c1c3655722bdb54541d89ec8e09",
        "gas": "0x22c7f",
        "value": "0x0",
        "input": "0x558a72970000000000000000000000007c846a936c512d56b60e0ec285de091c369c61c40000000000000000000000000000000000000000000000000000000000000001",
        "nonce": "0x20",
        "chainId": "0xa4b1"
      },
      "additionalContracts": [],
      "isFixedGasLimit": false
    },
    {
      "hash": "0xe5550cc27d7427c664aa18a3a501a02fafe35a57260192e12f5e987ac0a3afe4",
      "transactionType": "CALL",
      "contractName": null,
      "contractAddress": "0x3cb3e448c3f30c1c3655722bdb54541d89ec8e09",
      "function": "setOperator(address,bool)",
      "arguments": [
        "0xaF5F884e945c464f2E2ac799821b834835FD4eBa",
        "true"
      ],
      "transaction": {
        "from": "0x11a8e23dafbe058e9758c899daee0e43f287a96d",
        "to": "0x3cb3e448c3f30c1c3655722bdb54541d89ec8e09",
        "gas": "0x22c7f",
        "value": "0x0",
        "input": "0x558a7297000000000000000000000000af5f884e945c464f2e2ac799821b834835fd4eba0000000000000000000000000000000000000000000000000000000000000001",
        "nonce": "0x21",
        "chainId": "0xa4b1"
      },
      "additionalContracts": [],
      "isFixedGasLimit": false
    },
    {
      "hash": "0x95eb6120be283393e1d3ed373bde99fa63cf37f9993618419291cec4cbf61321",
      "transactionType": "CALL",
      "contractName": null,
      "contractAddress": "0x66b13dbcc6b107668f46174d0964030f103c3d3a",
      "function": "mockFillAssetsList(address[],bytes[],uint256[],uint24[])",
      "arguments": [
        "[0x0c880f6761F1af8d9Aa9C466984b80DAb9a8c9e8, 0x6694340fc020c5E6B96567843da2df01b2CE1eb6, 0xFa7F8980b0f1E64A2062791cc3b0871572f1F7f0, 0x354A6dA3fcde098F8389cad84b0182725c6C91dE, 0xfc5A1A6EB076a2C7aD06eD22C90d7E710E35ad0a]",
        "[0x000000000000000000000000000000000000000000000000000000000000004000000000000000000000000000000000000000000000000000000000000000a0000000000000000000000000000000000000000000000000000000000000000200000000000000000000000082af49447d8a07e3bd95bd0d56f35241523fbab10000000000000000000000000c880f6761f1af8d9aa9c466984b80dab9a8c9e800000000000000000000000000000000000000000000000000000000000000010000000000000000000000000000000000000000000000000000000000000bb8, 0x000000000000000000000000000000000000000000000000000000000000004000000000000000000000000000000000000000000000000000000000000000a0000000000000000000000000000000000000000000000000000000000000000200000000000000000000000082af49447d8a07e3bd95bd0d56f35241523fbab10000000000000000000000006694340fc020c5e6b96567843da2df01b2ce1eb600000000000000000000000000000000000000000000000000000000000000010000000000000000000000000000000000000000000000000000000000000bb8, 0x000000000000000000000000000000000000000000000000000000000000004000000000000000000000000000000000000000000000000000000000000000a0000000000000000000000000000000000000000000000000000000000000000200000000000000000000000082af49447d8a07e3bd95bd0d56f35241523fbab1000000000000000000000000fa7f8980b0f1e64a2062791cc3b0871572f1f7f000000000000000000000000000000000000000000000000000000000000000010000000000000000000000000000000000000000000000000000000000000bb8, 0x000000000000000000000000000000000000000000000000000000000000004000000000000000000000000000000000000000000000000000000000000000a0000000000000000000000000000000000000000000000000000000000000000200000000000000000000000082af49447d8a07e3bd95bd0d56f35241523fbab1000000000000000000000000354a6da3fcde098f8389cad84b0182725c6c91de00000000000000000000000000000000000000000000000000000000000000010000000000000000000000000000000000000000000000000000000000000bb8, 0x000000000000000000000000000000000000000000000000000000000000004000000000000000000000000000000000000000000000000000000000000000a0000000000000000000000000000000000000000000000000000000000000000200000000000000000000000082af49447d8a07e3bd95bd0d56f35241523fbab1000000000000000000000000fc5a1a6eb076a2c7ad06ed22c90d7e710e35ad0a00000000000000000000000000000000000000000000000000000000000000010000000000000000000000000000000000000000000000000000000000000bb8]",
        "[280000000000000000, 230000000000000000, 180000000000000000, 180000000000000000, 130000000000000000]",
        "[3, 3, 3, 3, 3]"
      ],
      "transaction": {
        "from": "0x11a8e23dafbe058e9758c899daee0e43f287a96d",
        "to": "0x66b13dbcc6b107668f46174d0964030f103c3d3a",
        "gas": "0x2caff0",
        "value": "0x0",
        "input": "0x33d8025400000000000000000000000000000000000000000000000000000000000000800000000000000000000000000000000000000000000000000000000000000140000000000000000000000000000000000000000000000000000000000000070000000000000000000000000000000000000000000000000000000000000007c000000000000000000000000000000000000000000000000000000000000000050000000000000000000000000c880f6761f1af8d9aa9c466984b80dab9a8c9e80000000000000000000000006694340fc020c5e6b96567843da2df01b2ce1eb6000000000000000000000000fa7f8980b0f1e64a2062791cc3b0871572f1f7f0000000000000000000000000354a6da3fcde098f8389cad84b0182725c6c91de000000000000000000000000fc5a1a6eb076a2c7ad06ed22c90d7e710e35ad0a000000000000000000000000000000000000000000000000000000000000000500000000000000000000000000000000000000000000000000000000000000a000000000000000000000000000000000000000000000000000000000000001a000000000000000000000000000000000000000000000000000000000000002a000000000000000000000000000000000000000000000000000000000000003a000000000000000000000000000000000000000000000000000000000000004a000000000000000000000000000000000000000000000000000000000000000e0000000000000000000000000000000000000000000000000000000000000004000000000000000000000000000000000000000000000000000000000000000a0000000000000000000000000000000000000000000000000000000000000000200000000000000000000000082af49447d8a07e3bd95bd0d56f35241523fbab10000000000000000000000000c880f6761f1af8d9aa9c466984b80dab9a8c9e800000000000000000000000000000000000000000000000000000000000000010000000000000000000000000000000000000000000000000000000000000bb800000000000000000000000000000000000000000000000000000000000000e0000000000000000000000000000000000000000000000000000000000000004000000000000000000000000000000000000000000000000000000000000000a0000000000000000000000000000000000000000000000000000000000000000200000000000000000000000082af49447d8a07e3bd95bd0d56f35241523fbab10000000000000000000000006694340fc020c5e6b96567843da2df01b2ce1eb600000000000000000000000000000000000000000000000000000000000000010000000000000000000000000000000000000000000000000000000000000bb800000000000000000000000000000000000000000000000000000000000000e0000000000000000000000000000000000000000000000000000000000000004000000000000000000000000000000000000000000000000000000000000000a0000000000000000000000000000000000000000000000000000000000000000200000000000000000000000082af49447d8a07e3bd95bd0d56f35241523fbab1000000000000000000000000fa7f8980b0f1e64a2062791cc3b0871572f1f7f000000000000000000000000000000000000000000000000000000000000000010000000000000000000000000000000000000000000000000000000000000bb800000000000000000000000000000000000000000000000000000000000000e0000000000000000000000000000000000000000000000000000000000000004000000000000000000000000000000000000000000000000000000000000000a0000000000000000000000000000000000000000000000000000000000000000200000000000000000000000082af49447d8a07e3bd95bd0d56f35241523fbab1000000000000000000000000354a6da3fcde098f8389cad84b0182725c6c91de00000000000000000000000000000000000000000000000000000000000000010000000000000000000000000000000000000000000000000000000000000bb800000000000000000000000000000000000000000000000000000000000000e0000000000000000000000000000000000000000000000000000000000000004000000000000000000000000000000000000000000000000000000000000000a0000000000000000000000000000000000000000000000000000000000000000200000000000000000000000082af49447d8a07e3bd95bd0d56f35241523fbab1000000000000000000000000fc5a1a6eb076a2c7ad06ed22c90d7e710e35ad0a00000000000000000000000000000000000000000000000000000000000000010000000000000000000000000000000000000000000000000000000000000bb8000000000000000000000000000000000000000000000000000000000000000500000000000000000000000000000000000000000000000003e2c284391c000000000000000000000000000000000000000000000000000003311fc80a570000000000000000000000000000000000000000000000000000027f7d0bdb920000000000000000000000000000000000000000000000000000027f7d0bdb92000000000000000000000000000000000000000000000000000001cdda4faccd0000000000000000000000000000000000000000000000000000000000000000000500000000000000000000000000000000000000000000000000000000000000030000000000000000000000000000000000000000000000000000000000000003000000000000000000000000000000000000000000000000000000000000000300000000000000000000000000000000000000000000000000000000000000030000000000000000000000000000000000000000000000000000000000000003",
        "nonce": "0x22",
        "chainId": "0xa4b1"
      },
      "additionalContracts": [],
      "isFixedGasLimit": false
    }
  ],
  "receipts": [
    {
      "status": "0x1",
      "cumulativeGasUsed": "0x6307d",
      "logs": [
        {
          "address": "0x70195bd938bb6f558d8d688d4a45335e073d20af",
          "topics": [
            "0x726b590ef91a8c76ad05bbe91a57ef84605276528f49cd47d787f558a4e755b6",
            "0x0000000000000000000000007c846a936c512d56b60e0ec285de091c369c61c4"
          ],
          "data": "0x",
          "blockHash": "0x48b13407ff619f4550198146eddfd54362ffe309444218bd1e25c9afb2cd2069",
          "blockNumber": "0x11eae771",
          "transactionHash": "0x632f7c67f66ebf368594e72056c33f018518e8efcf0b55ae5c20ffd6a476a236",
          "transactionIndex": "0x2",
          "logIndex": "0x3",
          "removed": false
        }
      ],
      "logsBloom": "0x00000000000000000000000000000000000000000000000000000000000000000000040000000000000000000000000000000000000000000080000000000000000000000000000000000000000000000800000000000000000000000000000000000000000000000000000400000000000000000000000000000000000000000000000000000000000000000000000000000200000000000000000000000000000000080000000000000000000000000000000000000000000000000002000000000000000000000000000000000800000000000000000000000000000000000000000000000010000000000000000000000000000000000000000000000000",
      "type": "0x2",
      "transactionHash": "0x632f7c67f66ebf368594e72056c33f018518e8efcf0b55ae5c20ffd6a476a236",
      "transactionIndex": "0x2",
      "blockHash": "0x48b13407ff619f4550198146eddfd54362ffe309444218bd1e25c9afb2cd2069",
      "blockNumber": "0x11eae771",
      "gasUsed": "0x126ef",
      "effectiveGasPrice": "0x24ef140",
      "from": "0x11a8e23dafbe058e9758c899daee0e43f287a96d",
      "to": "0x70195bd938bb6f558d8d688d4a45335e073d20af",
      "contractAddress": null,
      "gasUsedForL1": "0x9fdf",
      "l1BlockNumber": "0x14b9ca5"
    },
    {
      "status": "0x1",
      "cumulativeGasUsed": "0x4696a",
      "logs": [
        {
          "address": "0x66b13dbcc6b107668f46174d0964030f103c3d3a",
          "topics": [
            "0xbdf37c276f641820b141429d245add2552b4118c0866e5a78638e3de5ef18d9d",
            "0x00000000000000000000000011a8e23dafbe058e9758c899daee0e43f287a96d"
          ],
          "data": "0x",
          "blockHash": "0x473ff098dee5609e02ae36f2383a132070d2449c2100735a8d6599b916cf4736",
          "blockNumber": "0x11eae776",
          "transactionHash": "0xec8527987be0904c3a87d17c02e162873ecc5045fe1e82cc9a90ddba5a506f4a",
          "transactionIndex": "0x3",
          "logIndex": "0x2",
          "removed": false
        }
      ],
      "logsBloom": "0x00000000000000000000000000000000000000008000000000000000000000000000000000000000000000000000000000000000000000000000000000000000000000000000000000000000000000000000000000000400000000000000000000000000000000000000000000000000000000000000000000000100000000000000000000000000000000000000000080000000000000000000000000000000000040000000000000000000000000000000000008000000000000000004000000000000000000000000000000000000000000000000000000000000000000000000000000000000000000400000000000000100000000000000000000000000",
      "type": "0x2",
      "transactionHash": "0xec8527987be0904c3a87d17c02e162873ecc5045fe1e82cc9a90ddba5a506f4a",
      "transactionIndex": "0x3",
      "blockHash": "0x473ff098dee5609e02ae36f2383a132070d2449c2100735a8d6599b916cf4736",
      "blockNumber": "0x11eae776",
      "gasUsed": "0x1292b",
      "effectiveGasPrice": "0x245e8c0",
      "from": "0x11a8e23dafbe058e9758c899daee0e43f287a96d",
      "to": "0x66b13dbcc6b107668f46174d0964030f103c3d3a",
      "contractAddress": null,
      "gasUsedForL1": "0xa25a",
      "l1BlockNumber": "0x14b9ca5"
    },
    {
      "status": "0x1",
      "cumulativeGasUsed": "0x3119d",
      "logs": [],
      "logsBloom": "0x00000000000000000000000000000000000000000000000000000000000000000000000000000000000000000000000000000000000000000000000000000000000000000000000000000000000000000000000000000000000000000000000000000000000000000000000000000000000000000000000000000000000000000000000000000000000000000000000000000000000000000000000000000000000000000000000000000000000000000000000000000000000000000000000000000000000000000000000000000000000000000000000000000000000000000000000000000000000000000000000000000000000000000000000000000000",
      "type": "0x2",
      "transactionHash": "0x4e8014e619a6bcede5cc9bfebcadacba802d4c65cd0f40570b57a0a46a1ae18a",
      "transactionIndex": "0x2",
      "blockHash": "0x0d4bed7a9283df0e3696203de480775447fba02e03ae72d84c955eb369fa8135",
      "blockNumber": "0x11eae77c",
      "gasUsed": "0x1726e",
      "effectiveGasPrice": "0x2429918",
      "from": "0x11a8e23dafbe058e9758c899daee0e43f287a96d",
      "to": "0x66b13dbcc6b107668f46174d0964030f103c3d3a",
      "contractAddress": null,
      "gasUsedForL1": "0xa22d",
      "l1BlockNumber": "0x14b9ca5"
    },
    {
      "status": "0x1",
      "cumulativeGasUsed": "0x175a4",
      "logs": [],
      "logsBloom": "0x00000000000000000000000000000000000000000000000000000000000000000000000000000000000000000000000000000000000000000000000000000000000000000000000000000000000000000000000000000000000000000000000000000000000000000000000000000000000000000000000000000000000000000000000000000000000000000000000000000000000000000000000000000000000000000000000000000000000000000000000000000000000000000000000000000000000000000000000000000000000000000000000000000000000000000000000000000000000000000000000000000000000000000000000000000000",
      "type": "0x2",
      "transactionHash": "0x371508dfbd90824c68175fcadee17316e17fe89a2194c5d79fc12239600f6c01",
      "transactionIndex": "0x1",
      "blockHash": "0xc6115dca303780cd400f8d78e4ceb26c9bd9b5434f96653f28f2d3a00fd695eb",
      "blockNumber": "0x11eae782",
      "gasUsed": "0x175a4",
      "effectiveGasPrice": "0x23b55b8",
      "from": "0x11a8e23dafbe058e9758c899daee0e43f287a96d",
      "to": "0x66b13dbcc6b107668f46174d0964030f103c3d3a",
      "contractAddress": null,
      "gasUsedForL1": "0xa55b",
      "l1BlockNumber": "0x14b9ca5"
    },
    {
      "status": "0x1",
      "cumulativeGasUsed": "0x11dc30",
      "logs": [],
      "logsBloom": "0x00000000000000000000000000000000000000000000000000000000000000000000000000000000000000000000000000000000000000000000000000000000000000000000000000000000000000000000000000000000000000000000000000000000000000000000000000000000000000000000000000000000000000000000000000000000000000000000000000000000000000000000000000000000000000000000000000000000000000000000000000000000000000000000000000000000000000000000000000000000000000000000000000000000000000000000000000000000000000000000000000000000000000000000000000000000",
      "type": "0x2",
      "transactionHash": "0xf7c7a136408c38b8ac92f92f9e4a71cdb4460faac4d3e0181a721c533a48f580",
      "transactionIndex": "0x5",
      "blockHash": "0xfb6caed1c7ae745db5007d1dab81e17002a7c07dea34d272e4aa6363b1045742",
      "blockNumber": "0x11eae786",
      "gasUsed": "0x175d7",
      "effectiveGasPrice": "0x23a57d0",
      "from": "0x11a8e23dafbe058e9758c899daee0e43f287a96d",
      "to": "0x66b13dbcc6b107668f46174d0964030f103c3d3a",
      "contractAddress": null,
      "gasUsedForL1": "0xa5a5",
      "l1BlockNumber": "0x14b9ca5"
    },
    {
      "status": "0x1",
      "cumulativeGasUsed": "0x9b7b4",
      "logs": [],
      "logsBloom": "0x00000000000000000000000000000000000000000000000000000000000000000000000000000000000000000000000000000000000000000000000000000000000000000000000000000000000000000000000000000000000000000000000000000000000000000000000000000000000000000000000000000000000000000000000000000000000000000000000000000000000000000000000000000000000000000000000000000000000000000000000000000000000000000000000000000000000000000000000000000000000000000000000000000000000000000000000000000000000000000000000000000000000000000000000000000000",
      "type": "0x2",
      "transactionHash": "0xd1446db53d18e6e78b7e16db8e833164ae8129dcd6852b8f2ae02a9d69d5ca4a",
      "transactionIndex": "0x3",
      "blockHash": "0xd2595f8ff00c9d16181a6490f353544baca4ae85d9810ee58ef0c74041ff9d41",
      "blockNumber": "0x11eae78a",
      "gasUsed": "0x14e41",
      "effectiveGasPrice": "0x239a420",
      "from": "0x11a8e23dafbe058e9758c899daee0e43f287a96d",
      "to": "0x3cb3e448c3f30c1c3655722bdb54541d89ec8e09",
      "contractAddress": null,
      "gasUsedForL1": "0xcad4",
      "l1BlockNumber": "0x14b9ca5"
    },
    {
      "status": "0x1",
      "cumulativeGasUsed": "0x67ebc",
      "logs": [],
      "logsBloom": "0x00000000000000000000000000000000000000000000000000000000000000000000000000000000000000000000000000000000000000000000000000000000000000000000000000000000000000000000000000000000000000000000000000000000000000000000000000000000000000000000000000000000000000000000000000000000000000000000000000000000000000000000000000000000000000000000000000000000000000000000000000000000000000000000000000000000000000000000000000000000000000000000000000000000000000000000000000000000000000000000000000000000000000000000000000000000",
      "type": "0x2",
      "transactionHash": "0xe5550cc27d7427c664aa18a3a501a02fafe35a57260192e12f5e987ac0a3afe4",
      "transactionIndex": "0x2",
      "blockHash": "0xc069d9d51b5e151793bfc3c48e7ba9f0c6f93681b4b2620847db9cf86525246e",
      "blockNumber": "0x11eae78e",
      "gasUsed": "0x14fc4",
      "effectiveGasPrice": "0x2356e00",
      "from": "0x11a8e23dafbe058e9758c899daee0e43f287a96d",
      "to": "0x3cb3e448c3f30c1c3655722bdb54541d89ec8e09",
      "contractAddress": null,
      "gasUsedForL1": "0xcc57",
      "l1BlockNumber": "0x14b9ca5"
    },
    {
      "status": "0x1",
      "cumulativeGasUsed": "0x2134d2",
      "logs": [],
      "logsBloom": "0x00000000000000000000000000000000000000000000000000000000000000000000000000000000000000000000000000000000000000000000000000000000000000000000000000000000000000000000000000000000000000000000000000000000000000000000000000000000000000000000000000000000000000000000000000000000000000000000000000000000000000000000000000000000000000000000000000000000000000000000000000000000000000000000000000000000000000000000000000000000000000000000000000000000000000000000000000000000000000000000000000000000000000000000000000000000",
      "type": "0x2",
      "transactionHash": "0x95eb6120be283393e1d3ed373bde99fa63cf37f9993618419291cec4cbf61321",
      "transactionIndex": "0x1",
      "blockHash": "0xa979faa440d8907c3ed880efc93da7353bdac59b917fb558041810ec7d259533",
      "blockNumber": "0x11eae793",
      "gasUsed": "0x2134d2",
      "effectiveGasPrice": "0x2326c78",
      "from": "0x11a8e23dafbe058e9758c899daee0e43f287a96d",
      "to": "0x66b13dbcc6b107668f46174d0964030f103c3d3a",
      "contractAddress": null,
      "gasUsedForL1": "0x25623",
      "l1BlockNumber": "0x14b9ca5"
    }
  ],
  "libraries": [],
  "pending": [],
  "returns": {},
  "timestamp": 1738181846,
  "chain": 42161,
  "commit": "5a8789f"
}