{
  "transactions": [
    {
      "hash": "0x65229ebe1ef224a29f4618bd439be503d968828d078875af88de224ee65b6bad",
      "transactionType": "CALL",
      "contractName": null,
      "contractAddress": "0x2f2c4d407c086c3155568dcc1ed4ee25106045ff",
      "function": "redemption(uint256,address,address[],uint24[],uint24)",
      "arguments": [
        "321027878661652287128780",
        "0x82aF49447D8a07e3bd95BD0d56f35241523fBab1",
        "[0x82aF49447D8a07e3bd95BD0d56f35241523fBab1, 0xaf88d065e77c8cC2239327C5EDb3A432268e5831]",
        "[3000]",
        "3"
      ],
      "transaction": {
        "from": "0x11a8e23dafbe058e9758c899daee0e43f287a96d",
        "to": "0x2f2c4d407c086c3155568dcc1ed4ee25106045ff",
        "gas": "0x19abf2",
        "value": "0x0",
        "input": "0xf76a48e40000000000000000000000000000000000000000000043faf4c7cc2cdc8104cc00000000000000000000000082af49447d8a07e3bd95bd0d56f35241523fbab100000000000000000000000000000000000000000000000000000000000000a000000000000000000000000000000000000000000000000000000000000001000000000000000000000000000000000000000000000000000000000000000003000000000000000000000000000000000000000000000000000000000000000200000000000000000000000082af49447d8a07e3bd95bd0d56f35241523fbab1000000000000000000000000af88d065e77c8cc2239327c5edb3a432268e583100000000000000000000000000000000000000000000000000000000000000010000000000000000000000000000000000000000000000000000000000000bb8",
        "nonce": "0x32",
        "chainId": "0xa4b1"
      },
      "additionalContracts": [],
      "isFixedGasLimit": false
    }
  ],
  "receipts": [
    {
      "status": "0x1",
      "cumulativeGasUsed": "0x2906fe",
      "logs": [
        {
          "address": "0x70195bd938bb6f558d8d688d4a45335e073d20af",
          "topics": [
            "0xddf252ad1be2c89b69c2b068fc378daa952ba7f163c4a11628f55a4df523b3ef",
            "0x00000000000000000000000011a8e23dafbe058e9758c899daee0e43f287a96d",
            "0x0000000000000000000000000000000000000000000000000000000000000000"
          ],
          "data": "0x0000000000000000000000000000000000000000000043faf4c7cc2cdc8104cc",
          "blockHash": "0xe14d8125352725efed8c202fc1b1458ebc997b03b9c4a11f6614a530092753b8",
          "blockNumber": "0x11eb004a",
          "transactionHash": "0x65229ebe1ef224a29f4618bd439be503d968828d078875af88de224ee65b6bad",
          "transactionIndex": "0x6",
          "logIndex": "0x9",
          "removed": false
        },
        {
          "address": "0x3cb3e448c3f30c1c3655722bdb54541d89ec8e09",
          "topics": [
            "0xa92ff919b850e4909ab2261d907ef955f11bc1716733a6cbece38d163a69af8a"
          ],
          "data": "0x0000000000000000000000000c880f6761f1af8d9aa9c466984b80dab9a8c9e80000000000000000000000002f2c4d407c086c3155568dcc1ed4ee25106045ff0000000000000000000000000000000000000000000000000001d6338c9915d3",
          "blockHash": "0xe14d8125352725efed8c202fc1b1458ebc997b03b9c4a11f6614a530092753b8",
          "blockNumber": "0x11eb004a",
          "transactionHash": "0x65229ebe1ef224a29f4618bd439be503d968828d078875af88de224ee65b6bad",
          "transactionIndex": "0x6",
          "logIndex": "0xa",
          "removed": false
        },
        {
          "address": "0x0c880f6761f1af8d9aa9c466984b80dab9a8c9e8",
          "topics": [
            "0xddf252ad1be2c89b69c2b068fc378daa952ba7f163c4a11628f55a4df523b3ef",
            "0x0000000000000000000000003cb3e448c3f30c1c3655722bdb54541d89ec8e09",
            "0x0000000000000000000000002f2c4d407c086c3155568dcc1ed4ee25106045ff"
          ],
          "data": "0x0000000000000000000000000000000000000000000000000001d6338c9915d3",
          "blockHash": "0xe14d8125352725efed8c202fc1b1458ebc997b03b9c4a11f6614a530092753b8",
          "blockNumber": "0x11eb004a",
          "transactionHash": "0x65229ebe1ef224a29f4618bd439be503d968828d078875af88de224ee65b6bad",
          "transactionIndex": "0x6",
          "logIndex": "0xb",
          "removed": false
        },
        {
          "address": "0x0c880f6761f1af8d9aa9c466984b80dab9a8c9e8",
          "topics": [
            "0x8c5be1e5ebec7d5bd14f71427d1e84f3dd0314c0f7b2291e5b200ac8c7c3b925",
            "0x0000000000000000000000002f2c4d407c086c3155568dcc1ed4ee25106045ff",
            "0x000000000000000000000000e592427a0aece92de3edee1f18e0157c05861564"
          ],
          "data": "0x0000000000000000000000000000000000000000000000000001d6338c9915d3",
          "blockHash": "0xe14d8125352725efed8c202fc1b1458ebc997b03b9c4a11f6614a530092753b8",
          "blockNumber": "0x11eb004a",
          "transactionHash": "0x65229ebe1ef224a29f4618bd439be503d968828d078875af88de224ee65b6bad",
          "transactionIndex": "0x6",
          "logIndex": "0xc",
          "removed": false
        },
        {
          "address": "0x82af49447d8a07e3bd95bd0d56f35241523fbab1",
          "topics": [
            "0xddf252ad1be2c89b69c2b068fc378daa952ba7f163c4a11628f55a4df523b3ef",
            "0x000000000000000000000000dbaeb7f0dfe3a0aafd798ccecb5b22e708f7852c",
            "0x0000000000000000000000002f2c4d407c086c3155568dcc1ed4ee25106045ff"
          ],
          "data": "0x0000000000000000000000000000000000000000000000000000008161da222f",
          "blockHash": "0xe14d8125352725efed8c202fc1b1458ebc997b03b9c4a11f6614a530092753b8",
          "blockNumber": "0x11eb004a",
          "transactionHash": "0x65229ebe1ef224a29f4618bd439be503d968828d078875af88de224ee65b6bad",
          "transactionIndex": "0x6",
          "logIndex": "0xd",
          "removed": false
        },
        {
          "address": "0x0c880f6761f1af8d9aa9c466984b80dab9a8c9e8",
          "topics": [
            "0xddf252ad1be2c89b69c2b068fc378daa952ba7f163c4a11628f55a4df523b3ef",
            "0x0000000000000000000000002f2c4d407c086c3155568dcc1ed4ee25106045ff",
            "0x000000000000000000000000dbaeb7f0dfe3a0aafd798ccecb5b22e708f7852c"
          ],
          "data": "0x0000000000000000000000000000000000000000000000000001d6338c9915d3",
          "blockHash": "0xe14d8125352725efed8c202fc1b1458ebc997b03b9c4a11f6614a530092753b8",
          "blockNumber": "0x11eb004a",
          "transactionHash": "0x65229ebe1ef224a29f4618bd439be503d968828d078875af88de224ee65b6bad",
          "transactionIndex": "0x6",
          "logIndex": "0xe",
          "removed": false
        },
        {
          "address": "0x0c880f6761f1af8d9aa9c466984b80dab9a8c9e8",
          "topics": [
            "0x8c5be1e5ebec7d5bd14f71427d1e84f3dd0314c0f7b2291e5b200ac8c7c3b925",
            "0x0000000000000000000000002f2c4d407c086c3155568dcc1ed4ee25106045ff",
            "0x000000000000000000000000e592427a0aece92de3edee1f18e0157c05861564"
          ],
          "data": "0x0000000000000000000000000000000000000000000000000000000000000000",
          "blockHash": "0xe14d8125352725efed8c202fc1b1458ebc997b03b9c4a11f6614a530092753b8",
          "blockNumber": "0x11eb004a",
          "transactionHash": "0x65229ebe1ef224a29f4618bd439be503d968828d078875af88de224ee65b6bad",
          "transactionIndex": "0x6",
          "logIndex": "0xf",
          "removed": false
        },
        {
          "address": "0xdbaeb7f0dfe3a0aafd798ccecb5b22e708f7852c",
          "topics": [
            "0xc42079f94a6350d7e6235f29174924f928cc2ac818eb64fed8004e115fbcca67",
            "0x000000000000000000000000e592427a0aece92de3edee1f18e0157c05861564",
            "0x0000000000000000000000002f2c4d407c086c3155568dcc1ed4ee25106045ff"
          ],
          "data": "0x0000000000000000000000000000000000000000000000000001d6338c9915d3ffffffffffffffffffffffffffffffffffffffffffffffffffffff7e9e25ddd100000000000000000000000000000000000000000867d4377ce3d1ab4e12f018000000000000000000000000000000000000000000001dfaace3e01371d88ea0fffffffffffffffffffffffffffffffffffffffffffffffffffffffffffef516",
          "blockHash": "0xe14d8125352725efed8c202fc1b1458ebc997b03b9c4a11f6614a530092753b8",
          "blockNumber": "0x11eb004a",
          "transactionHash": "0x65229ebe1ef224a29f4618bd439be503d968828d078875af88de224ee65b6bad",
          "transactionIndex": "0x6",
          "logIndex": "0x10",
          "removed": false
        },
        {
          "address": "0x3cb3e448c3f30c1c3655722bdb54541d89ec8e09",
          "topics": [
            "0xa92ff919b850e4909ab2261d907ef955f11bc1716733a6cbece38d163a69af8a"
          ],
          "data": "0x0000000000000000000000006694340fc020c5e6b96567843da2df01b2ce1eb60000000000000000000000002f2c4d407c086c3155568dcc1ed4ee25106045ff000000000000000000000000000000000000000000000000000f825b40604b7d",
          "blockHash": "0xe14d8125352725efed8c202fc1b1458ebc997b03b9c4a11f6614a530092753b8",
          "blockNumber": "0x11eb004a",
          "transactionHash": "0x65229ebe1ef224a29f4618bd439be503d968828d078875af88de224ee65b6bad",
          "transactionIndex": "0x6",
          "logIndex": "0x11",
          "removed": false
        },
        {
          "address": "0x6694340fc020c5e6b96567843da2df01b2ce1eb6",
          "topics": [
            "0xddf252ad1be2c89b69c2b068fc378daa952ba7f163c4a11628f55a4df523b3ef",
            "0x0000000000000000000000003cb3e448c3f30c1c3655722bdb54541d89ec8e09",
            "0x0000000000000000000000002f2c4d407c086c3155568dcc1ed4ee25106045ff"
          ],
          "data": "0x000000000000000000000000000000000000000000000000000f825b40604b7d",
          "blockHash": "0xe14d8125352725efed8c202fc1b1458ebc997b03b9c4a11f6614a530092753b8",
          "blockNumber": "0x11eb004a",
          "transactionHash": "0x65229ebe1ef224a29f4618bd439be503d968828d078875af88de224ee65b6bad",
          "transactionIndex": "0x6",
          "logIndex": "0x12",
          "removed": false
        },
        {
          "address": "0x6694340fc020c5e6b96567843da2df01b2ce1eb6",
          "topics": [
            "0x8c5be1e5ebec7d5bd14f71427d1e84f3dd0314c0f7b2291e5b200ac8c7c3b925",
            "0x0000000000000000000000002f2c4d407c086c3155568dcc1ed4ee25106045ff",
            "0x000000000000000000000000e592427a0aece92de3edee1f18e0157c05861564"
          ],
          "data": "0x000000000000000000000000000000000000000000000000000f825b40604b7d",
          "blockHash": "0xe14d8125352725efed8c202fc1b1458ebc997b03b9c4a11f6614a530092753b8",
          "blockNumber": "0x11eb004a",
          "transactionHash": "0x65229ebe1ef224a29f4618bd439be503d968828d078875af88de224ee65b6bad",
          "transactionIndex": "0x6",
          "logIndex": "0x13",
          "removed": false
        },
        {
          "address": "0x82af49447d8a07e3bd95bd0d56f35241523fbab1",
          "topics": [
            "0xddf252ad1be2c89b69c2b068fc378daa952ba7f163c4a11628f55a4df523b3ef",
            "0x000000000000000000000000a8bd646f72ea828ccbc40fa2976866884f883409",
            "0x0000000000000000000000002f2c4d407c086c3155568dcc1ed4ee25106045ff"
          ],
          "data": "0x0000000000000000000000000000000000000000000000000000006aaf9507d0",
          "blockHash": "0xe14d8125352725efed8c202fc1b1458ebc997b03b9c4a11f6614a530092753b8",
          "blockNumber": "0x11eb004a",
          "transactionHash": "0x65229ebe1ef224a29f4618bd439be503d968828d078875af88de224ee65b6bad",
          "transactionIndex": "0x6",
          "logIndex": "0x14",
          "removed": false
        },
        {
          "address": "0x6694340fc020c5e6b96567843da2df01b2ce1eb6",
          "topics": [
            "0xddf252ad1be2c89b69c2b068fc378daa952ba7f163c4a11628f55a4df523b3ef",
            "0x0000000000000000000000002f2c4d407c086c3155568dcc1ed4ee25106045ff",
            "0x000000000000000000000000a8bd646f72ea828ccbc40fa2976866884f883409"
          ],
          "data": "0x000000000000000000000000000000000000000000000000000f825b40604b7d",
          "blockHash": "0xe14d8125352725efed8c202fc1b1458ebc997b03b9c4a11f6614a530092753b8",
          "blockNumber": "0x11eb004a",
          "transactionHash": "0x65229ebe1ef224a29f4618bd439be503d968828d078875af88de224ee65b6bad",
          "transactionIndex": "0x6",
          "logIndex": "0x15",
          "removed": false
        },
        {
          "address": "0x6694340fc020c5e6b96567843da2df01b2ce1eb6",
          "topics": [
            "0x8c5be1e5ebec7d5bd14f71427d1e84f3dd0314c0f7b2291e5b200ac8c7c3b925",
            "0x0000000000000000000000002f2c4d407c086c3155568dcc1ed4ee25106045ff",
            "0x000000000000000000000000e592427a0aece92de3edee1f18e0157c05861564"
          ],
          "data": "0x0000000000000000000000000000000000000000000000000000000000000000",
          "blockHash": "0xe14d8125352725efed8c202fc1b1458ebc997b03b9c4a11f6614a530092753b8",
          "blockNumber": "0x11eb004a",
          "transactionHash": "0x65229ebe1ef224a29f4618bd439be503d968828d078875af88de224ee65b6bad",
          "transactionIndex": "0x6",
          "logIndex": "0x16",
          "removed": false
        },
        {
          "address": "0xa8bd646f72ea828ccbc40fa2976866884f883409",
          "topics": [
            "0xc42079f94a6350d7e6235f29174924f928cc2ac818eb64fed8004e115fbcca67",
            "0x000000000000000000000000e592427a0aece92de3edee1f18e0157c05861564",
            "0x0000000000000000000000002f2c4d407c086c3155568dcc1ed4ee25106045ff"
          ],
          "data": "0x000000000000000000000000000000000000000000000000000f825b40604b7dffffffffffffffffffffffffffffffffffffffffffffffffffffff95506af830000000000000000000000000000000000000000002a06fa8c584154e74053b6d0000000000000000000000000000000000000000000001939ea365bbacddbeb1fffffffffffffffffffffffffffffffffffffffffffffffffffffffffffe9a36",
          "blockHash": "0xe14d8125352725efed8c202fc1b1458ebc997b03b9c4a11f6614a530092753b8",
          "blockNumber": "0x11eb004a",
          "transactionHash": "0x65229ebe1ef224a29f4618bd439be503d968828d078875af88de224ee65b6bad",
          "transactionIndex": "0x6",
          "logIndex": "0x17",
          "removed": false
        },
        {
          "address": "0x3cb3e448c3f30c1c3655722bdb54541d89ec8e09",
          "topics": [
            "0xa92ff919b850e4909ab2261d907ef955f11bc1716733a6cbece38d163a69af8a"
          ],
          "data": "0x000000000000000000000000fa7f8980b0f1e64a2062791cc3b0871572f1f7f00000000000000000000000002f2c4d407c086c3155568dcc1ed4ee25106045ff000000000000000000000000000000000000000000000000000056d0570ff2d4",
          "blockHash": "0xe14d8125352725efed8c202fc1b1458ebc997b03b9c4a11f6614a530092753b8",
          "blockNumber": "0x11eb004a",
          "transactionHash": "0x65229ebe1ef224a29f4618bd439be503d968828d078875af88de224ee65b6bad",
          "transactionIndex": "0x6",
          "logIndex": "0x18",
          "removed": false
        },
        {
          "address": "0xfa7f8980b0f1e64a2062791cc3b0871572f1f7f0",
          "topics": [
            "0xddf252ad1be2c89b69c2b068fc378daa952ba7f163c4a11628f55a4df523b3ef",
            "0x0000000000000000000000003cb3e448c3f30c1c3655722bdb54541d89ec8e09",
            "0x0000000000000000000000002f2c4d407c086c3155568dcc1ed4ee25106045ff"
          ],
          "data": "0x000000000000000000000000000000000000000000000000000056d0570ff2d4",
          "blockHash": "0xe14d8125352725efed8c202fc1b1458ebc997b03b9c4a11f6614a530092753b8",
          "blockNumber": "0x11eb004a",
          "transactionHash": "0x65229ebe1ef224a29f4618bd439be503d968828d078875af88de224ee65b6bad",
          "transactionIndex": "0x6",
          "logIndex": "0x19",
          "removed": false
        },
        {
          "address": "0xfa7f8980b0f1e64a2062791cc3b0871572f1f7f0",
          "topics": [
            "0x8c5be1e5ebec7d5bd14f71427d1e84f3dd0314c0f7b2291e5b200ac8c7c3b925",
            "0x0000000000000000000000002f2c4d407c086c3155568dcc1ed4ee25106045ff",
            "0x000000000000000000000000e592427a0aece92de3edee1f18e0157c05861564"
          ],
          "data": "0x000000000000000000000000000000000000000000000000000056d0570ff2d4",
          "blockHash": "0xe14d8125352725efed8c202fc1b1458ebc997b03b9c4a11f6614a530092753b8",
          "blockNumber": "0x11eb004a",
          "transactionHash": "0x65229ebe1ef224a29f4618bd439be503d968828d078875af88de224ee65b6bad",
          "transactionIndex": "0x6",
          "logIndex": "0x1a",
          "removed": false
        },
        {
          "address": "0x82af49447d8a07e3bd95bd0d56f35241523fbab1",
          "topics": [
            "0xddf252ad1be2c89b69c2b068fc378daa952ba7f163c4a11628f55a4df523b3ef",
            "0x000000000000000000000000c24f7d8e51a64dc1238880bd00bb961d54cbeb29",
            "0x0000000000000000000000002f2c4d407c086c3155568dcc1ed4ee25106045ff"
          ],
          "data": "0x00000000000000000000000000000000000000000000000000000053638bbee8",
          "blockHash": "0xe14d8125352725efed8c202fc1b1458ebc997b03b9c4a11f6614a530092753b8",
          "blockNumber": "0x11eb004a",
          "transactionHash": "0x65229ebe1ef224a29f4618bd439be503d968828d078875af88de224ee65b6bad",
          "transactionIndex": "0x6",
          "logIndex": "0x1b",
          "removed": false
        },
        {
          "address": "0xfa7f8980b0f1e64a2062791cc3b0871572f1f7f0",
          "topics": [
            "0xddf252ad1be2c89b69c2b068fc378daa952ba7f163c4a11628f55a4df523b3ef",
            "0x0000000000000000000000002f2c4d407c086c3155568dcc1ed4ee25106045ff",
            "0x000000000000000000000000c24f7d8e51a64dc1238880bd00bb961d54cbeb29"
          ],
          "data": "0x000000000000000000000000000000000000000000000000000056d0570ff2d4",
          "blockHash": "0xe14d8125352725efed8c202fc1b1458ebc997b03b9c4a11f6614a530092753b8",
          "blockNumber": "0x11eb004a",
          "transactionHash": "0x65229ebe1ef224a29f4618bd439be503d968828d078875af88de224ee65b6bad",
          "transactionIndex": "0x6",
          "logIndex": "0x1c",
          "removed": false
        },
        {
          "address": "0xfa7f8980b0f1e64a2062791cc3b0871572f1f7f0",
          "topics": [
            "0x8c5be1e5ebec7d5bd14f71427d1e84f3dd0314c0f7b2291e5b200ac8c7c3b925",
            "0x0000000000000000000000002f2c4d407c086c3155568dcc1ed4ee25106045ff",
            "0x000000000000000000000000e592427a0aece92de3edee1f18e0157c05861564"
          ],
          "data": "0x0000000000000000000000000000000000000000000000000000000000000000",
          "blockHash": "0xe14d8125352725efed8c202fc1b1458ebc997b03b9c4a11f6614a530092753b8",
          "blockNumber": "0x11eb004a",
          "transactionHash": "0x65229ebe1ef224a29f4618bd439be503d968828d078875af88de224ee65b6bad",
          "transactionIndex": "0x6",
          "logIndex": "0x1d",
          "removed": false
        },
        {
          "address": "0xc24f7d8e51a64dc1238880bd00bb961d54cbeb29",
          "topics": [
            "0xc42079f94a6350d7e6235f29174924f928cc2ac818eb64fed8004e115fbcca67",
            "0x000000000000000000000000e592427a0aece92de3edee1f18e0157c05861564",
            "0x0000000000000000000000002f2c4d407c086c3155568dcc1ed4ee25106045ff"
          ],
          "data": "0xffffffffffffffffffffffffffffffffffffffffffffffffffffffac9c744118000000000000000000000000000000000000000000000000000056d0570ff2d400000000000000000000000000000000000000104cff05392a65e8a837b9ba6d00000000000000000000000000000000000000000000042f64e071873a2ded44000000000000000000000000000000000000000000000000000000000000da13",
          "blockHash": "0xe14d8125352725efed8c202fc1b1458ebc997b03b9c4a11f6614a530092753b8",
          "blockNumber": "0x11eb004a",
          "transactionHash": "0x65229ebe1ef224a29f4618bd439be503d968828d078875af88de224ee65b6bad",
          "transactionIndex": "0x6",
          "logIndex": "0x1e",
          "removed": false
        },
        {
          "address": "0x3cb3e448c3f30c1c3655722bdb54541d89ec8e09",
          "topics": [
            "0xa92ff919b850e4909ab2261d907ef955f11bc1716733a6cbece38d163a69af8a"
          ],
          "data": "0x000000000000000000000000354a6da3fcde098f8389cad84b0182725c6c91de0000000000000000000000002f2c4d407c086c3155568dcc1ed4ee25106045ff00000000000000000000000000000000000000000000000000000ed3cfb52174",
          "blockHash": "0xe14d8125352725efed8c202fc1b1458ebc997b03b9c4a11f6614a530092753b8",
          "blockNumber": "0x11eb004a",
          "transactionHash": "0x65229ebe1ef224a29f4618bd439be503d968828d078875af88de224ee65b6bad",
          "transactionIndex": "0x6",
          "logIndex": "0x1f",
          "removed": false
        },
        {
          "address": "0x354a6da3fcde098f8389cad84b0182725c6c91de",
          "topics": [
            "0xddf252ad1be2c89b69c2b068fc378daa952ba7f163c4a11628f55a4df523b3ef",
            "0x0000000000000000000000003cb3e448c3f30c1c3655722bdb54541d89ec8e09",
            "0x0000000000000000000000002f2c4d407c086c3155568dcc1ed4ee25106045ff"
          ],
          "data": "0x00000000000000000000000000000000000000000000000000000ed3cfb52174",
          "blockHash": "0xe14d8125352725efed8c202fc1b1458ebc997b03b9c4a11f6614a530092753b8",
          "blockNumber": "0x11eb004a",
          "transactionHash": "0x65229ebe1ef224a29f4618bd439be503d968828d078875af88de224ee65b6bad",
          "transactionIndex": "0x6",
          "logIndex": "0x20",
          "removed": false
        },
        {
          "address": "0x354a6da3fcde098f8389cad84b0182725c6c91de",
          "topics": [
            "0x8c5be1e5ebec7d5bd14f71427d1e84f3dd0314c0f7b2291e5b200ac8c7c3b925",
            "0x0000000000000000000000002f2c4d407c086c3155568dcc1ed4ee25106045ff",
            "0x000000000000000000000000e592427a0aece92de3edee1f18e0157c05861564"
          ],
          "data": "0x00000000000000000000000000000000000000000000000000000ed3cfb52174",
          "blockHash": "0xe14d8125352725efed8c202fc1b1458ebc997b03b9c4a11f6614a530092753b8",
          "blockNumber": "0x11eb004a",
          "transactionHash": "0x65229ebe1ef224a29f4618bd439be503d968828d078875af88de224ee65b6bad",
          "transactionIndex": "0x6",
          "logIndex": "0x21",
          "removed": false
        },
        {
          "address": "0x82af49447d8a07e3bd95bd0d56f35241523fbab1",
          "topics": [
            "0xddf252ad1be2c89b69c2b068fc378daa952ba7f163c4a11628f55a4df523b3ef",
            "0x000000000000000000000000dfa19e743421c394d904f5a113121c2227d2364b",
            "0x0000000000000000000000002f2c4d407c086c3155568dcc1ed4ee25106045ff"
          ],
          "data": "0x00000000000000000000000000000000000000000000000000000053638bbeef",
          "blockHash": "0xe14d8125352725efed8c202fc1b1458ebc997b03b9c4a11f6614a530092753b8",
          "blockNumber": "0x11eb004a",
          "transactionHash": "0x65229ebe1ef224a29f4618bd439be503d968828d078875af88de224ee65b6bad",
          "transactionIndex": "0x6",
          "logIndex": "0x22",
          "removed": false
        },
        {
          "address": "0x354a6da3fcde098f8389cad84b0182725c6c91de",
          "topics": [
            "0xddf252ad1be2c89b69c2b068fc378daa952ba7f163c4a11628f55a4df523b3ef",
            "0x0000000000000000000000002f2c4d407c086c3155568dcc1ed4ee25106045ff",
            "0x000000000000000000000000dfa19e743421c394d904f5a113121c2227d2364b"
          ],
          "data": "0x00000000000000000000000000000000000000000000000000000ed3cfb52174",
          "blockHash": "0xe14d8125352725efed8c202fc1b1458ebc997b03b9c4a11f6614a530092753b8",
          "blockNumber": "0x11eb004a",
          "transactionHash": "0x65229ebe1ef224a29f4618bd439be503d968828d078875af88de224ee65b6bad",
          "transactionIndex": "0x6",
          "logIndex": "0x23",
          "removed": false
        },
        {
          "address": "0x354a6da3fcde098f8389cad84b0182725c6c91de",
          "topics": [
            "0x8c5be1e5ebec7d5bd14f71427d1e84f3dd0314c0f7b2291e5b200ac8c7c3b925",
            "0x0000000000000000000000002f2c4d407c086c3155568dcc1ed4ee25106045ff",
            "0x000000000000000000000000e592427a0aece92de3edee1f18e0157c05861564"
          ],
          "data": "0x0000000000000000000000000000000000000000000000000000000000000000",
          "blockHash": "0xe14d8125352725efed8c202fc1b1458ebc997b03b9c4a11f6614a530092753b8",
          "blockNumber": "0x11eb004a",
          "transactionHash": "0x65229ebe1ef224a29f4618bd439be503d968828d078875af88de224ee65b6bad",
          "transactionIndex": "0x6",
          "logIndex": "0x24",
          "removed": false
        },
        {
          "address": "0xdfa19e743421c394d904f5a113121c2227d2364b",
          "topics": [
            "0xc42079f94a6350d7e6235f29174924f928cc2ac818eb64fed8004e115fbcca67",
            "0x000000000000000000000000e592427a0aece92de3edee1f18e0157c05861564",
            "0x0000000000000000000000002f2c4d407c086c3155568dcc1ed4ee25106045ff"
          ],
          "data": "0x00000000000000000000000000000000000000000000000000000ed3cfb52174ffffffffffffffffffffffffffffffffffffffffffffffffffffffac9c744111000000000000000000000000000000000000000026003c0d91751fb8ea5ebd210000000000000000000000000000000000000000000000103f22b50a0022632cffffffffffffffffffffffffffffffffffffffffffffffffffffffffffff6af6",
          "blockHash": "0xe14d8125352725efed8c202fc1b1458ebc997b03b9c4a11f6614a530092753b8",
          "blockNumber": "0x11eb004a",
          "transactionHash": "0x65229ebe1ef224a29f4618bd439be503d968828d078875af88de224ee65b6bad",
          "transactionIndex": "0x6",
          "logIndex": "0x25",
          "removed": false
        },
        {
          "address": "0x3cb3e448c3f30c1c3655722bdb54541d89ec8e09",
          "topics": [
            "0xa92ff919b850e4909ab2261d907ef955f11bc1716733a6cbece38d163a69af8a"
          ],
          "data": "0x000000000000000000000000fc5a1a6eb076a2c7ad06ed22c90d7e710e35ad0a0000000000000000000000002f2c4d407c086c3155568dcc1ed4ee25106045ff0000000000000000000000000000000000000000000000000000237c5442ce32",
          "blockHash": "0xe14d8125352725efed8c202fc1b1458ebc997b03b9c4a11f6614a530092753b8",
          "blockNumber": "0x11eb004a",
          "transactionHash": "0x65229ebe1ef224a29f4618bd439be503d968828d078875af88de224ee65b6bad",
          "transactionIndex": "0x6",
          "logIndex": "0x26",
          "removed": false
        },
        {
          "address": "0xfc5a1a6eb076a2c7ad06ed22c90d7e710e35ad0a",
          "topics": [
            "0xddf252ad1be2c89b69c2b068fc378daa952ba7f163c4a11628f55a4df523b3ef",
            "0x0000000000000000000000003cb3e448c3f30c1c3655722bdb54541d89ec8e09",
            "0x0000000000000000000000002f2c4d407c086c3155568dcc1ed4ee25106045ff"
          ],
          "data": "0x0000000000000000000000000000000000000000000000000000237c5442ce32",
          "blockHash": "0xe14d8125352725efed8c202fc1b1458ebc997b03b9c4a11f6614a530092753b8",
          "blockNumber": "0x11eb004a",
          "transactionHash": "0x65229ebe1ef224a29f4618bd439be503d968828d078875af88de224ee65b6bad",
          "transactionIndex": "0x6",
          "logIndex": "0x27",
          "removed": false
        },
        {
          "address": "0xfc5a1a6eb076a2c7ad06ed22c90d7e710e35ad0a",
          "topics": [
            "0x8c5be1e5ebec7d5bd14f71427d1e84f3dd0314c0f7b2291e5b200ac8c7c3b925",
            "0x0000000000000000000000002f2c4d407c086c3155568dcc1ed4ee25106045ff",
            "0x000000000000000000000000e592427a0aece92de3edee1f18e0157c05861564"
          ],
          "data": "0x0000000000000000000000000000000000000000000000000000237c5442ce32",
          "blockHash": "0xe14d8125352725efed8c202fc1b1458ebc997b03b9c4a11f6614a530092753b8",
          "blockNumber": "0x11eb004a",
          "transactionHash": "0x65229ebe1ef224a29f4618bd439be503d968828d078875af88de224ee65b6bad",
          "transactionIndex": "0x6",
          "logIndex": "0x28",
          "removed": false
        },
        {
          "address": "0x82af49447d8a07e3bd95bd0d56f35241523fbab1",
          "topics": [
            "0xddf252ad1be2c89b69c2b068fc378daa952ba7f163c4a11628f55a4df523b3ef",
            "0x0000000000000000000000001aeedd3727a6431b8f070c0afaa81cc74f273882",
            "0x0000000000000000000000002f2c4d407c086c3155568dcc1ed4ee25106045ff"
          ],
          "data": "0x0000000000000000000000000000000000000000000000000000003c3d0571c0",
          "blockHash": "0xe14d8125352725efed8c202fc1b1458ebc997b03b9c4a11f6614a530092753b8",
          "blockNumber": "0x11eb004a",
          "transactionHash": "0x65229ebe1ef224a29f4618bd439be503d968828d078875af88de224ee65b6bad",
          "transactionIndex": "0x6",
          "logIndex": "0x29",
          "removed": false
        },
        {
          "address": "0xfc5a1a6eb076a2c7ad06ed22c90d7e710e35ad0a",
          "topics": [
            "0x8c5be1e5ebec7d5bd14f71427d1e84f3dd0314c0f7b2291e5b200ac8c7c3b925",
            "0x0000000000000000000000002f2c4d407c086c3155568dcc1ed4ee25106045ff",
            "0x000000000000000000000000e592427a0aece92de3edee1f18e0157c05861564"
          ],
          "data": "0x0000000000000000000000000000000000000000000000000000000000000000",
          "blockHash": "0xe14d8125352725efed8c202fc1b1458ebc997b03b9c4a11f6614a530092753b8",
          "blockNumber": "0x11eb004a",
          "transactionHash": "0x65229ebe1ef224a29f4618bd439be503d968828d078875af88de224ee65b6bad",
          "transactionIndex": "0x6",
          "logIndex": "0x2a",
          "removed": false
        },
        {
          "address": "0xfc5a1a6eb076a2c7ad06ed22c90d7e710e35ad0a",
          "topics": [
            "0xddf252ad1be2c89b69c2b068fc378daa952ba7f163c4a11628f55a4df523b3ef",
            "0x0000000000000000000000002f2c4d407c086c3155568dcc1ed4ee25106045ff",
            "0x0000000000000000000000001aeedd3727a6431b8f070c0afaa81cc74f273882"
          ],
          "data": "0x0000000000000000000000000000000000000000000000000000237c5442ce32",
          "blockHash": "0xe14d8125352725efed8c202fc1b1458ebc997b03b9c4a11f6614a530092753b8",
          "blockNumber": "0x11eb004a",
          "transactionHash": "0x65229ebe1ef224a29f4618bd439be503d968828d078875af88de224ee65b6bad",
          "transactionIndex": "0x6",
          "logIndex": "0x2b",
          "removed": false
        },
        {
          "address": "0x1aeedd3727a6431b8f070c0afaa81cc74f273882",
          "topics": [
            "0xc42079f94a6350d7e6235f29174924f928cc2ac818eb64fed8004e115fbcca67",
            "0x000000000000000000000000e592427a0aece92de3edee1f18e0157c05861564",
            "0x0000000000000000000000002f2c4d407c086c3155568dcc1ed4ee25106045ff"
          ],
          "data": "0xffffffffffffffffffffffffffffffffffffffffffffffffffffffc3c2fa8e400000000000000000000000000000000000000000000000000000237c5442ce32000000000000000000000000000000000000000c430b3d2f05bc0df3bc0bd07600000000000000000000000000000000000000000000032e089c1ba1ef5e9637000000000000000000000000000000000000000000000000000000000000c3d4",
          "blockHash": "0xe14d8125352725efed8c202fc1b1458ebc997b03b9c4a11f6614a530092753b8",
          "blockNumber": "0x11eb004a",
          "transactionHash": "0x65229ebe1ef224a29f4618bd439be503d968828d078875af88de224ee65b6bad",
          "transactionIndex": "0x6",
          "logIndex": "0x2c",
          "removed": false
        },
        {
          "address": "0x82af49447d8a07e3bd95bd0d56f35241523fbab1",
          "topics": [
            "0xddf252ad1be2c89b69c2b068fc378daa952ba7f163c4a11628f55a4df523b3ef",
            "0x0000000000000000000000002f2c4d407c086c3155568dcc1ed4ee25106045ff",
            "0x0000000000000000000000000000000000000000000000000000000000000000"
          ],
          "data": "0x000000000000000000000000000000000000000000000000000001ce9eff6a75",
          "blockHash": "0xe14d8125352725efed8c202fc1b1458ebc997b03b9c4a11f6614a530092753b8",
          "blockNumber": "0x11eb004a",
          "transactionHash": "0x65229ebe1ef224a29f4618bd439be503d968828d078875af88de224ee65b6bad",
          "transactionIndex": "0x6",
          "logIndex": "0x2d",
          "removed": false
        },
        {
          "address": "0x82af49447d8a07e3bd95bd0d56f35241523fbab1",
          "topics": [
            "0xddf252ad1be2c89b69c2b068fc378daa952ba7f163c4a11628f55a4df523b3ef",
            "0x0000000000000000000000002f2c4d407c086c3155568dcc1ed4ee25106045ff",
            "0x00000000000000000000000011a8e23dafbe058e9758c899daee0e43f287a96d"
          ],
          "data": "0x00000000000000000000000000000000000000000000000000000000768caf21",
          "blockHash": "0xe14d8125352725efed8c202fc1b1458ebc997b03b9c4a11f6614a530092753b8",
          "blockNumber": "0x11eb004a",
          "transactionHash": "0x65229ebe1ef224a29f4618bd439be503d968828d078875af88de224ee65b6bad",
          "transactionIndex": "0x6",
          "logIndex": "0x2e",
          "removed": false
        },
        {
          "address": "0x2f2c4d407c086c3155568dcc1ed4ee25106045ff",
          "topics": [
            "0x4f808f68134f8b72b842a276c2b37b03415d4992c65a94fcee50d33201915b99",
            "0x00000000000000000000000011a8e23dafbe058e9758c899daee0e43f287a96d",
            "0x00000000000000000000000082af49447d8a07e3bd95bd0d56f35241523fbab1"
          ],
          "data": "0x0000000000000000000000000000000000000000000000000de0b6b3a7640000000000000000000000000000000000000000000000000000000001ce9eff6a7500000000000000000000000000000000000000000000000000000000679a9303",
          "blockHash": "0xe14d8125352725efed8c202fc1b1458ebc997b03b9c4a11f6614a530092753b8",
          "blockNumber": "0x11eb004a",
          "transactionHash": "0x65229ebe1ef224a29f4618bd439be503d968828d078875af88de224ee65b6bad",
          "transactionIndex": "0x6",
          "logIndex": "0x2f",
          "removed": false
        }
      ],
      "logsBloom": "0x0220200200000000000140000002000000000000800400000000400410000084000004110002000000000800000000040000c002000420000000000000a00400000200010000200800000008000000010800000000000000000a00400000000000000000020000000000100400400800100880000001000400020110001800400000080000000000000020000200000000040000400000000000000000010020020000180000200000000680920400008000000000000000000100000000000000000002000400000000020000000000000100000000000000000000200020000010000000000000020000000000000002000100020008800000000010000004",
      "type": "0x2",
      "transactionHash": "0x65229ebe1ef224a29f4618bd439be503d968828d078875af88de224ee65b6bad",
      "transactionIndex": "0x6",
      "blockHash": "0xe14d8125352725efed8c202fc1b1458ebc997b03b9c4a11f6614a530092753b8",
      "blockNumber": "0x11eb004a",
      "gasUsed": "0xf16cd",
      "effectiveGasPrice": "0x34985b0",
      "from": "0x11a8e23dafbe058e9758c899daee0e43f287a96d",
      "to": "0x2f2c4d407c086c3155568dcc1ed4ee25106045ff",
      "contractAddress": null,
      "gasUsedForL1": "0x2a4b1",
      "l1BlockNumber": "0x14b9d2a"
    }
  ],
  "libraries": [],
  "pending": [],
  "returns": {},
  "timestamp": 1738183427,
  "chain": 42161,
  "commit": "5a8789f"
}