{
  "transactions": [
    {
      "hash": "0x7b1aaf6688ddb82e40f995f9b66dfe17e47b57f323426e5f2e8c6336ccb8d28b",
      "transactionType": "CALL",
      "contractName": null,
      "contractAddress": "0xc261547547fb4b108db504fe200e20db7612d5e9",
      "function": "redemption(uint256,address,address[],uint24[],uint24)",
      "arguments": [
        "62659721403102919507",
        "0x82aF49447D8a07e3bd95BD0d56f35241523fBab1",
        "[0x82aF49447D8a07e3bd95BD0d56f35241523fBab1, 0xaf88d065e77c8cC2239327C5EDb3A432268e5831]",
        "[3000]",
        "3"
      ],
      "transaction": {
        "from": "0x11a8e23dafbe058e9758c899daee0e43f287a96d",
        "to": "0xc261547547fb4b108db504fe200e20db7612d5e9",
        "gas": "0x182590",
        "value": "0x0",
        "input": "0xf76a48e400000000000000000000000000000000000000000000000365940ca174e3fb5300000000000000000000000082af49447d8a07e3bd95bd0d56f35241523fbab100000000000000000000000000000000000000000000000000000000000000a000000000000000000000000000000000000000000000000000000000000001000000000000000000000000000000000000000000000000000000000000000003000000000000000000000000000000000000000000000000000000000000000200000000000000000000000082af49447d8a07e3bd95bd0d56f35241523fbab1000000000000000000000000af88d065e77c8cc2239327c5edb3a432268e583100000000000000000000000000000000000000000000000000000000000000010000000000000000000000000000000000000000000000000000000000000bb8",
        "nonce": "0x66",
        "chainId": "0xa4b1"
      },
      "additionalContracts": [],
      "isFixedGasLimit": false
    }
  ],
  "receipts": [
    {
      "status": "0x1",
      "cumulativeGasUsed": "0x151b84",
      "logs": [
        {
          "address": "0x4386741db5aadec9201c997b9fd197b598ef1323",
          "topics": [
            "0xddf252ad1be2c89b69c2b068fc378daa952ba7f163c4a11628f55a4df523b3ef",
            "0x00000000000000000000000011a8e23dafbe058e9758c899daee0e43f287a96d",
            "0x0000000000000000000000000000000000000000000000000000000000000000"
          ],
          "data": "0x00000000000000000000000000000000000000000000000365940ca174e3fb53",
          "blockHash": "0xb927d60b107ee56646da9b4f4451eefba1564adf439043c53825c6698bb2b0ea",
          "blockNumber": "0x11eb564a",
          "transactionHash": "0x7b1aaf6688ddb82e40f995f9b66dfe17e47b57f323426e5f2e8c6336ccb8d28b",
          "transactionIndex": "0x2",
          "logIndex": "0x2",
          "removed": false
        },
        {
          "address": "0xa0213d39758abc34a583a821ccd07dd1ad3c13b3",
          "topics": [
            "0xa92ff919b850e4909ab2261d907ef955f11bc1716733a6cbece38d163a69af8a"
          ],
          "data": "0x0000000000000000000000000c880f6761f1af8d9aa9c466984b80dab9a8c9e8000000000000000000000000c261547547fb4b108db504fe200e20db7612d5e900000000000000000000000000000000000000000000000000b917fe8cace81a",
          "blockHash": "0xb927d60b107ee56646da9b4f4451eefba1564adf439043c53825c6698bb2b0ea",
          "blockNumber": "0x11eb564a",
          "transactionHash": "0x7b1aaf6688ddb82e40f995f9b66dfe17e47b57f323426e5f2e8c6336ccb8d28b",
          "transactionIndex": "0x2",
          "logIndex": "0x3",
          "removed": false
        },
        {
          "address": "0x0c880f6761f1af8d9aa9c466984b80dab9a8c9e8",
          "topics": [
            "0xddf252ad1be2c89b69c2b068fc378daa952ba7f163c4a11628f55a4df523b3ef",
            "0x000000000000000000000000a0213d39758abc34a583a821ccd07dd1ad3c13b3",
            "0x000000000000000000000000c261547547fb4b108db504fe200e20db7612d5e9"
          ],
          "data": "0x00000000000000000000000000000000000000000000000000b917fe8cace81a",
          "blockHash": "0xb927d60b107ee56646da9b4f4451eefba1564adf439043c53825c6698bb2b0ea",
          "blockNumber": "0x11eb564a",
          "transactionHash": "0x7b1aaf6688ddb82e40f995f9b66dfe17e47b57f323426e5f2e8c6336ccb8d28b",
          "transactionIndex": "0x2",
          "logIndex": "0x4",
          "removed": false
        },
        {
          "address": "0x0c880f6761f1af8d9aa9c466984b80dab9a8c9e8",
          "topics": [
            "0x8c5be1e5ebec7d5bd14f71427d1e84f3dd0314c0f7b2291e5b200ac8c7c3b925",
            "0x000000000000000000000000c261547547fb4b108db504fe200e20db7612d5e9",
            "0x000000000000000000000000e592427a0aece92de3edee1f18e0157c05861564"
          ],
          "data": "0x00000000000000000000000000000000000000000000000000b917fe8cace81a",
          "blockHash": "0xb927d60b107ee56646da9b4f4451eefba1564adf439043c53825c6698bb2b0ea",
          "blockNumber": "0x11eb564a",
          "transactionHash": "0x7b1aaf6688ddb82e40f995f9b66dfe17e47b57f323426e5f2e8c6336ccb8d28b",
          "transactionIndex": "0x2",
          "logIndex": "0x5",
          "removed": false
        },
        {
          "address": "0x82af49447d8a07e3bd95bd0d56f35241523fbab1",
          "topics": [
            "0xddf252ad1be2c89b69c2b068fc378daa952ba7f163c4a11628f55a4df523b3ef",
            "0x000000000000000000000000dbaeb7f0dfe3a0aafd798ccecb5b22e708f7852c",
            "0x000000000000000000000000c261547547fb4b108db504fe200e20db7612d5e9"
          ],
          "data": "0x0000000000000000000000000000000000000000000000000000329bc8c888e0",
          "blockHash": "0xb927d60b107ee56646da9b4f4451eefba1564adf439043c53825c6698bb2b0ea",
          "blockNumber": "0x11eb564a",
          "transactionHash": "0x7b1aaf6688ddb82e40f995f9b66dfe17e47b57f323426e5f2e8c6336ccb8d28b",
          "transactionIndex": "0x2",
          "logIndex": "0x6",
          "removed": false
        },
        {
          "address": "0x0c880f6761f1af8d9aa9c466984b80dab9a8c9e8",
          "topics": [
            "0xddf252ad1be2c89b69c2b068fc378daa952ba7f163c4a11628f55a4df523b3ef",
            "0x000000000000000000000000c261547547fb4b108db504fe200e20db7612d5e9",
            "0x000000000000000000000000dbaeb7f0dfe3a0aafd798ccecb5b22e708f7852c"
          ],
          "data": "0x00000000000000000000000000000000000000000000000000b917fe8cace81a",
          "blockHash": "0xb927d60b107ee56646da9b4f4451eefba1564adf439043c53825c6698bb2b0ea",
          "blockNumber": "0x11eb564a",
          "transactionHash": "0x7b1aaf6688ddb82e40f995f9b66dfe17e47b57f323426e5f2e8c6336ccb8d28b",
          "transactionIndex": "0x2",
          "logIndex": "0x7",
          "removed": false
        },
        {
          "address": "0x0c880f6761f1af8d9aa9c466984b80dab9a8c9e8",
          "topics": [
            "0x8c5be1e5ebec7d5bd14f71427d1e84f3dd0314c0f7b2291e5b200ac8c7c3b925",
            "0x000000000000000000000000c261547547fb4b108db504fe200e20db7612d5e9",
            "0x000000000000000000000000e592427a0aece92de3edee1f18e0157c05861564"
          ],
          "data": "0x0000000000000000000000000000000000000000000000000000000000000000",
          "blockHash": "0xb927d60b107ee56646da9b4f4451eefba1564adf439043c53825c6698bb2b0ea",
          "blockNumber": "0x11eb564a",
          "transactionHash": "0x7b1aaf6688ddb82e40f995f9b66dfe17e47b57f323426e5f2e8c6336ccb8d28b",
          "transactionIndex": "0x2",
          "logIndex": "0x8",
          "removed": false
        },
        {
          "address": "0xdbaeb7f0dfe3a0aafd798ccecb5b22e708f7852c",
          "topics": [
            "0xc42079f94a6350d7e6235f29174924f928cc2ac818eb64fed8004e115fbcca67",
            "0x000000000000000000000000e592427a0aece92de3edee1f18e0157c05861564",
            "0x000000000000000000000000c261547547fb4b108db504fe200e20db7612d5e9"
          ],
          "data": "0x00000000000000000000000000000000000000000000000000b917fe8cace81affffffffffffffffffffffffffffffffffffffffffffffffffffcd6437377720000000000000000000000000000000000000000008610160f263b8b1422cb260000000000000000000000000000000000000000000001da98416c3d237b67cd7fffffffffffffffffffffffffffffffffffffffffffffffffffffffffffef4d7",
          "blockHash": "0xb927d60b107ee56646da9b4f4451eefba1564adf439043c53825c6698bb2b0ea",
          "blockNumber": "0x11eb564a",
          "transactionHash": "0x7b1aaf6688ddb82e40f995f9b66dfe17e47b57f323426e5f2e8c6336ccb8d28b",
          "transactionIndex": "0x2",
          "logIndex": "0x9",
          "removed": false
        },
        {
          "address": "0xa0213d39758abc34a583a821ccd07dd1ad3c13b3",
          "topics": [
            "0xa92ff919b850e4909ab2261d907ef955f11bc1716733a6cbece38d163a69af8a"
          ],
          "data": "0x0000000000000000000000006694340fc020c5e6b96567843da2df01b2ce1eb6000000000000000000000000c261547547fb4b108db504fe200e20db7612d5e900000000000000000000000000000000000000000000000006070d7528797be1",
          "blockHash": "0xb927d60b107ee56646da9b4f4451eefba1564adf439043c53825c6698bb2b0ea",
          "blockNumber": "0x11eb564a",
          "transactionHash": "0x7b1aaf6688ddb82e40f995f9b66dfe17e47b57f323426e5f2e8c6336ccb8d28b",
          "transactionIndex": "0x2",
          "logIndex": "0xa",
          "removed": false
        },
        {
          "address": "0x6694340fc020c5e6b96567843da2df01b2ce1eb6",
          "topics": [
            "0xddf252ad1be2c89b69c2b068fc378daa952ba7f163c4a11628f55a4df523b3ef",
            "0x000000000000000000000000a0213d39758abc34a583a821ccd07dd1ad3c13b3",
            "0x000000000000000000000000c261547547fb4b108db504fe200e20db7612d5e9"
          ],
          "data": "0x00000000000000000000000000000000000000000000000006070d7528797be1",
          "blockHash": "0xb927d60b107ee56646da9b4f4451eefba1564adf439043c53825c6698bb2b0ea",
          "blockNumber": "0x11eb564a",
          "transactionHash": "0x7b1aaf6688ddb82e40f995f9b66dfe17e47b57f323426e5f2e8c6336ccb8d28b",
          "transactionIndex": "0x2",
          "logIndex": "0xb",
          "removed": false
        },
        {
          "address": "0x6694340fc020c5e6b96567843da2df01b2ce1eb6",
          "topics": [
            "0x8c5be1e5ebec7d5bd14f71427d1e84f3dd0314c0f7b2291e5b200ac8c7c3b925",
            "0x000000000000000000000000c261547547fb4b108db504fe200e20db7612d5e9",
            "0x000000000000000000000000e592427a0aece92de3edee1f18e0157c05861564"
          ],
          "data": "0x00000000000000000000000000000000000000000000000006070d7528797be1",
          "blockHash": "0xb927d60b107ee56646da9b4f4451eefba1564adf439043c53825c6698bb2b0ea",
          "blockNumber": "0x11eb564a",
          "transactionHash": "0x7b1aaf6688ddb82e40f995f9b66dfe17e47b57f323426e5f2e8c6336ccb8d28b",
          "transactionIndex": "0x2",
          "logIndex": "0xc",
          "removed": false
        },
        {
          "address": "0x82af49447d8a07e3bd95bd0d56f35241523fbab1",
          "topics": [
            "0xddf252ad1be2c89b69c2b068fc378daa952ba7f163c4a11628f55a4df523b3ef",
            "0x000000000000000000000000a8bd646f72ea828ccbc40fa2976866884f883409",
            "0x000000000000000000000000c261547547fb4b108db504fe200e20db7612d5e9"
          ],
          "data": "0x0000000000000000000000000000000000000000000000000000298780e8a6d1",
          "blockHash": "0xb927d60b107ee56646da9b4f4451eefba1564adf439043c53825c6698bb2b0ea",
          "blockNumber": "0x11eb564a",
          "transactionHash": "0x7b1aaf6688ddb82e40f995f9b66dfe17e47b57f323426e5f2e8c6336ccb8d28b",
          "transactionIndex": "0x2",
          "logIndex": "0xd",
          "removed": false
        },
        {
          "address": "0x6694340fc020c5e6b96567843da2df01b2ce1eb6",
          "topics": [
            "0xddf252ad1be2c89b69c2b068fc378daa952ba7f163c4a11628f55a4df523b3ef",
            "0x000000000000000000000000c261547547fb4b108db504fe200e20db7612d5e9",
            "0x000000000000000000000000a8bd646f72ea828ccbc40fa2976866884f883409"
          ],
          "data": "0x00000000000000000000000000000000000000000000000006070d7528797be1",
          "blockHash": "0xb927d60b107ee56646da9b4f4451eefba1564adf439043c53825c6698bb2b0ea",
          "blockNumber": "0x11eb564a",
          "transactionHash": "0x7b1aaf6688ddb82e40f995f9b66dfe17e47b57f323426e5f2e8c6336ccb8d28b",
          "transactionIndex": "0x2",
          "logIndex": "0xe",
          "removed": false
        },
        {
          "address": "0x6694340fc020c5e6b96567843da2df01b2ce1eb6",
          "topics": [
            "0x8c5be1e5ebec7d5bd14f71427d1e84f3dd0314c0f7b2291e5b200ac8c7c3b925",
            "0x000000000000000000000000c261547547fb4b108db504fe200e20db7612d5e9",
            "0x000000000000000000000000e592427a0aece92de3edee1f18e0157c05861564"
          ],
          "data": "0x0000000000000000000000000000000000000000000000000000000000000000",
          "blockHash": "0xb927d60b107ee56646da9b4f4451eefba1564adf439043c53825c6698bb2b0ea",
          "blockNumber": "0x11eb564a",
          "transactionHash": "0x7b1aaf6688ddb82e40f995f9b66dfe17e47b57f323426e5f2e8c6336ccb8d28b",
          "transactionIndex": "0x2",
          "logIndex": "0xf",
          "removed": false
        },
        {
          "address": "0xa8bd646f72ea828ccbc40fa2976866884f883409",
          "topics": [
            "0xc42079f94a6350d7e6235f29174924f928cc2ac818eb64fed8004e115fbcca67",
            "0x000000000000000000000000e592427a0aece92de3edee1f18e0157c05861564",
            "0x000000000000000000000000c261547547fb4b108db504fe200e20db7612d5e9"
          ],
          "data": "0x00000000000000000000000000000000000000000000000006070d7528797be1ffffffffffffffffffffffffffffffffffffffffffffffffffffd6787f17592f000000000000000000000000000000000000000002a0f9b8f15db6dd8a88297e0000000000000000000000000000000000000000000001939ea365bbacddbeb1fffffffffffffffffffffffffffffffffffffffffffffffffffffffffffe9a46",
          "blockHash": "0xb927d60b107ee56646da9b4f4451eefba1564adf439043c53825c6698bb2b0ea",
          "blockNumber": "0x11eb564a",
          "transactionHash": "0x7b1aaf6688ddb82e40f995f9b66dfe17e47b57f323426e5f2e8c6336ccb8d28b",
          "transactionIndex": "0x2",
          "logIndex": "0x10",
          "removed": false
        },
        {
          "address": "0xa0213d39758abc34a583a821ccd07dd1ad3c13b3",
          "topics": [
            "0xa92ff919b850e4909ab2261d907ef955f11bc1716733a6cbece38d163a69af8a"
          ],
          "data": "0x000000000000000000000000fa7f8980b0f1e64a2062791cc3b0871572f1f7f0000000000000000000000000c261547547fb4b108db504fe200e20db7612d5e90000000000000000000000000000000000000000000000000021baa8193394be",
          "blockHash": "0xb927d60b107ee56646da9b4f4451eefba1564adf439043c53825c6698bb2b0ea",
          "blockNumber": "0x11eb564a",
          "transactionHash": "0x7b1aaf6688ddb82e40f995f9b66dfe17e47b57f323426e5f2e8c6336ccb8d28b",
          "transactionIndex": "0x2",
          "logIndex": "0x11",
          "removed": false
        },
        {
          "address": "0xfa7f8980b0f1e64a2062791cc3b0871572f1f7f0",
          "topics": [
            "0xddf252ad1be2c89b69c2b068fc378daa952ba7f163c4a11628f55a4df523b3ef",
            "0x000000000000000000000000a0213d39758abc34a583a821ccd07dd1ad3c13b3",
            "0x000000000000000000000000c261547547fb4b108db504fe200e20db7612d5e9"
          ],
          "data": "0x0000000000000000000000000000000000000000000000000021baa8193394be",
          "blockHash": "0xb927d60b107ee56646da9b4f4451eefba1564adf439043c53825c6698bb2b0ea",
          "blockNumber": "0x11eb564a",
          "transactionHash": "0x7b1aaf6688ddb82e40f995f9b66dfe17e47b57f323426e5f2e8c6336ccb8d28b",
          "transactionIndex": "0x2",
          "logIndex": "0x12",
          "removed": false
        },
        {
          "address": "0xfa7f8980b0f1e64a2062791cc3b0871572f1f7f0",
          "topics": [
            "0x8c5be1e5ebec7d5bd14f71427d1e84f3dd0314c0f7b2291e5b200ac8c7c3b925",
            "0x000000000000000000000000c261547547fb4b108db504fe200e20db7612d5e9",
            "0x000000000000000000000000e592427a0aece92de3edee1f18e0157c05861564"
          ],
          "data": "0x0000000000000000000000000000000000000000000000000021baa8193394be",
          "blockHash": "0xb927d60b107ee56646da9b4f4451eefba1564adf439043c53825c6698bb2b0ea",
          "blockNumber": "0x11eb564a",
          "transactionHash": "0x7b1aaf6688ddb82e40f995f9b66dfe17e47b57f323426e5f2e8c6336ccb8d28b",
          "transactionIndex": "0x2",
          "logIndex": "0x13",
          "removed": false
        },
        {
          "address": "0x82af49447d8a07e3bd95bd0d56f35241523fbab1",
          "topics": [
            "0xddf252ad1be2c89b69c2b068fc378daa952ba7f163c4a11628f55a4df523b3ef",
            "0x000000000000000000000000c24f7d8e51a64dc1238880bd00bb961d54cbeb29",
            "0x000000000000000000000000c261547547fb4b108db504fe200e20db7612d5e9"
          ],
          "data": "0x0000000000000000000000000000000000000000000000000000208229356a22",
          "blockHash": "0xb927d60b107ee56646da9b4f4451eefba1564adf439043c53825c6698bb2b0ea",
          "blockNumber": "0x11eb564a",
          "transactionHash": "0x7b1aaf6688ddb82e40f995f9b66dfe17e47b57f323426e5f2e8c6336ccb8d28b",
          "transactionIndex": "0x2",
          "logIndex": "0x14",
          "removed": false
        },
        {
          "address": "0xfa7f8980b0f1e64a2062791cc3b0871572f1f7f0",
          "topics": [
            "0xddf252ad1be2c89b69c2b068fc378daa952ba7f163c4a11628f55a4df523b3ef",
            "0x000000000000000000000000c261547547fb4b108db504fe200e20db7612d5e9",
            "0x000000000000000000000000c24f7d8e51a64dc1238880bd00bb961d54cbeb29"
          ],
          "data": "0x0000000000000000000000000000000000000000000000000021baa8193394be",
          "blockHash": "0xb927d60b107ee56646da9b4f4451eefba1564adf439043c53825c6698bb2b0ea",
          "blockNumber": "0x11eb564a",
          "transactionHash": "0x7b1aaf6688ddb82e40f995f9b66dfe17e47b57f323426e5f2e8c6336ccb8d28b",
          "transactionIndex": "0x2",
          "logIndex": "0x15",
          "removed": false
        },
        {
          "address": "0xfa7f8980b0f1e64a2062791cc3b0871572f1f7f0",
          "topics": [
            "0x8c5be1e5ebec7d5bd14f71427d1e84f3dd0314c0f7b2291e5b200ac8c7c3b925",
            "0x000000000000000000000000c261547547fb4b108db504fe200e20db7612d5e9",
            "0x000000000000000000000000e592427a0aece92de3edee1f18e0157c05861564"
          ],
          "data": "0x0000000000000000000000000000000000000000000000000000000000000000",
          "blockHash": "0xb927d60b107ee56646da9b4f4451eefba1564adf439043c53825c6698bb2b0ea",
          "blockNumber": "0x11eb564a",
          "transactionHash": "0x7b1aaf6688ddb82e40f995f9b66dfe17e47b57f323426e5f2e8c6336ccb8d28b",
          "transactionIndex": "0x2",
          "logIndex": "0x16",
          "removed": false
        },
        {
          "address": "0xc24f7d8e51a64dc1238880bd00bb961d54cbeb29",
          "topics": [
            "0xc42079f94a6350d7e6235f29174924f928cc2ac818eb64fed8004e115fbcca67",
            "0x000000000000000000000000e592427a0aece92de3edee1f18e0157c05861564",
            "0x000000000000000000000000c261547547fb4b108db504fe200e20db7612d5e9"
          ],
          "data": "0xffffffffffffffffffffffffffffffffffffffffffffffffffffdf7dd6ca95de0000000000000000000000000000000000000000000000000021baa8193394be000000000000000000000000000000000000001045ee30f9167a37f5c96a6edf00000000000000000000000000000000000000000000043b867336a76c8146a6000000000000000000000000000000000000000000000000000000000000d9f1",
          "blockHash": "0xb927d60b107ee56646da9b4f4451eefba1564adf439043c53825c6698bb2b0ea",
          "blockNumber": "0x11eb564a",
          "transactionHash": "0x7b1aaf6688ddb82e40f995f9b66dfe17e47b57f323426e5f2e8c6336ccb8d28b",
          "transactionIndex": "0x2",
          "logIndex": "0x17",
          "removed": false
        },
        {
          "address": "0xa0213d39758abc34a583a821ccd07dd1ad3c13b3",
          "topics": [
            "0xa92ff919b850e4909ab2261d907ef955f11bc1716733a6cbece38d163a69af8a"
          ],
          "data": "0x000000000000000000000000354a6da3fcde098f8389cad84b0182725c6c91de000000000000000000000000c261547547fb4b108db504fe200e20db7612d5e90000000000000000000000000000000000000000000000000005b79c83302884",
          "blockHash": "0xb927d60b107ee56646da9b4f4451eefba1564adf439043c53825c6698bb2b0ea",
          "blockNumber": "0x11eb564a",
          "transactionHash": "0x7b1aaf6688ddb82e40f995f9b66dfe17e47b57f323426e5f2e8c6336ccb8d28b",
          "transactionIndex": "0x2",
          "logIndex": "0x18",
          "removed": false
        },
        {
          "address": "0x354a6da3fcde098f8389cad84b0182725c6c91de",
          "topics": [
            "0xddf252ad1be2c89b69c2b068fc378daa952ba7f163c4a11628f55a4df523b3ef",
            "0x000000000000000000000000a0213d39758abc34a583a821ccd07dd1ad3c13b3",
            "0x000000000000000000000000c261547547fb4b108db504fe200e20db7612d5e9"
          ],
          "data": "0x0000000000000000000000000000000000000000000000000005b79c83302884",
          "blockHash": "0xb927d60b107ee56646da9b4f4451eefba1564adf439043c53825c6698bb2b0ea",
          "blockNumber": "0x11eb564a",
          "transactionHash": "0x7b1aaf6688ddb82e40f995f9b66dfe17e47b57f323426e5f2e8c6336ccb8d28b",
          "transactionIndex": "0x2",
          "logIndex": "0x19",
          "removed": false
        },
        {
          "address": "0x354a6da3fcde098f8389cad84b0182725c6c91de",
          "topics": [
            "0x8c5be1e5ebec7d5bd14f71427d1e84f3dd0314c0f7b2291e5b200ac8c7c3b925",
            "0x000000000000000000000000c261547547fb4b108db504fe200e20db7612d5e9",
            "0x000000000000000000000000e592427a0aece92de3edee1f18e0157c05861564"
          ],
          "data": "0x0000000000000000000000000000000000000000000000000005b79c83302884",
          "blockHash": "0xb927d60b107ee56646da9b4f4451eefba1564adf439043c53825c6698bb2b0ea",
          "blockNumber": "0x11eb564a",
          "transactionHash": "0x7b1aaf6688ddb82e40f995f9b66dfe17e47b57f323426e5f2e8c6336ccb8d28b",
          "transactionIndex": "0x2",
          "logIndex": "0x1a",
          "removed": false
        },
        {
          "address": "0x82af49447d8a07e3bd95bd0d56f35241523fbab1",
          "topics": [
            "0xddf252ad1be2c89b69c2b068fc378daa952ba7f163c4a11628f55a4df523b3ef",
            "0x000000000000000000000000dfa19e743421c394d904f5a113121c2227d2364b",
            "0x000000000000000000000000c261547547fb4b108db504fe200e20db7612d5e9"
          ],
          "data": "0x0000000000000000000000000000000000000000000000000000208bafecf89f",
          "blockHash": "0xb927d60b107ee56646da9b4f4451eefba1564adf439043c53825c6698bb2b0ea",
          "blockNumber": "0x11eb564a",
          "transactionHash": "0x7b1aaf6688ddb82e40f995f9b66dfe17e47b57f323426e5f2e8c6336ccb8d28b",
          "transactionIndex": "0x2",
          "logIndex": "0x1b",
          "removed": false
        },
        {
          "address": "0x354a6da3fcde098f8389cad84b0182725c6c91de",
          "topics": [
            "0xddf252ad1be2c89b69c2b068fc378daa952ba7f163c4a11628f55a4df523b3ef",
            "0x000000000000000000000000c261547547fb4b108db504fe200e20db7612d5e9",
            "0x000000000000000000000000dfa19e743421c394d904f5a113121c2227d2364b"
          ],
          "data": "0x0000000000000000000000000000000000000000000000000005b79c83302884",
          "blockHash": "0xb927d60b107ee56646da9b4f4451eefba1564adf439043c53825c6698bb2b0ea",
          "blockNumber": "0x11eb564a",
          "transactionHash": "0x7b1aaf6688ddb82e40f995f9b66dfe17e47b57f323426e5f2e8c6336ccb8d28b",
          "transactionIndex": "0x2",
          "logIndex": "0x1c",
          "removed": false
        },
        {
          "address": "0x354a6da3fcde098f8389cad84b0182725c6c91de",
          "topics": [
            "0x8c5be1e5ebec7d5bd14f71427d1e84f3dd0314c0f7b2291e5b200ac8c7c3b925",
            "0x000000000000000000000000c261547547fb4b108db504fe200e20db7612d5e9",
            "0x000000000000000000000000e592427a0aece92de3edee1f18e0157c05861564"
          ],
          "data": "0x0000000000000000000000000000000000000000000000000000000000000000",
          "blockHash": "0xb927d60b107ee56646da9b4f4451eefba1564adf439043c53825c6698bb2b0ea",
          "blockNumber": "0x11eb564a",
          "transactionHash": "0x7b1aaf6688ddb82e40f995f9b66dfe17e47b57f323426e5f2e8c6336ccb8d28b",
          "transactionIndex": "0x2",
          "logIndex": "0x1d",
          "removed": false
        },
        {
          "address": "0xdfa19e743421c394d904f5a113121c2227d2364b",
          "topics": [
            "0xc42079f94a6350d7e6235f29174924f928cc2ac818eb64fed8004e115fbcca67",
            "0x000000000000000000000000e592427a0aece92de3edee1f18e0157c05861564",
            "0x000000000000000000000000c261547547fb4b108db504fe200e20db7612d5e9"
          ],
          "data": "0x0000000000000000000000000000000000000000000000000005b79c83302884ffffffffffffffffffffffffffffffffffffffffffffffffffffdf74501307610000000000000000000000000000000000000000263b5d72347666a7bee55789000000000000000000000000000000000000000000000010474788f880e3a57cffffffffffffffffffffffffffffffffffffffffffffffffffffffffffff6b6f",
          "blockHash": "0xb927d60b107ee56646da9b4f4451eefba1564adf439043c53825c6698bb2b0ea",
          "blockNumber": "0x11eb564a",
          "transactionHash": "0x7b1aaf6688ddb82e40f995f9b66dfe17e47b57f323426e5f2e8c6336ccb8d28b",
          "transactionIndex": "0x2",
          "logIndex": "0x1e",
          "removed": false
        },
        {
          "address": "0xa0213d39758abc34a583a821ccd07dd1ad3c13b3",
          "topics": [
            "0xa92ff919b850e4909ab2261d907ef955f11bc1716733a6cbece38d163a69af8a"
          ],
          "data": "0x000000000000000000000000fc5a1a6eb076a2c7ad06ed22c90d7e710e35ad0a000000000000000000000000c261547547fb4b108db504fe200e20db7612d5e9000000000000000000000000000000000000000000000000000de946fe5661b9",
          "blockHash": "0xb927d60b107ee56646da9b4f4451eefba1564adf439043c53825c6698bb2b0ea",
          "blockNumber": "0x11eb564a",
          "transactionHash": "0x7b1aaf6688ddb82e40f995f9b66dfe17e47b57f323426e5f2e8c6336ccb8d28b",
          "transactionIndex": "0x2",
          "logIndex": "0x1f",
          "removed": false
        },
        {
          "address": "0xfc5a1a6eb076a2c7ad06ed22c90d7e710e35ad0a",
          "topics": [
            "0xddf252ad1be2c89b69c2b068fc378daa952ba7f163c4a11628f55a4df523b3ef",
            "0x000000000000000000000000a0213d39758abc34a583a821ccd07dd1ad3c13b3",
            "0x000000000000000000000000c261547547fb4b108db504fe200e20db7612d5e9"
          ],
          "data": "0x000000000000000000000000000000000000000000000000000de946fe5661b9",
          "blockHash": "0xb927d60b107ee56646da9b4f4451eefba1564adf439043c53825c6698bb2b0ea",
          "blockNumber": "0x11eb564a",
          "transactionHash": "0x7b1aaf6688ddb82e40f995f9b66dfe17e47b57f323426e5f2e8c6336ccb8d28b",
          "transactionIndex": "0x2",
          "logIndex": "0x20",
          "removed": false
        },
        {
          "address": "0xfc5a1a6eb076a2c7ad06ed22c90d7e710e35ad0a",
          "topics": [
            "0x8c5be1e5ebec7d5bd14f71427d1e84f3dd0314c0f7b2291e5b200ac8c7c3b925",
            "0x000000000000000000000000c261547547fb4b108db504fe200e20db7612d5e9",
            "0x000000000000000000000000e592427a0aece92de3edee1f18e0157c05861564"
          ],
          "data": "0x000000000000000000000000000000000000000000000000000de946fe5661b9",
          "blockHash": "0xb927d60b107ee56646da9b4f4451eefba1564adf439043c53825c6698bb2b0ea",
          "blockNumber": "0x11eb564a",
          "transactionHash": "0x7b1aaf6688ddb82e40f995f9b66dfe17e47b57f323426e5f2e8c6336ccb8d28b",
          "transactionIndex": "0x2",
          "logIndex": "0x21",
          "removed": false
        },
        {
          "address": "0x82af49447d8a07e3bd95bd0d56f35241523fbab1",
          "topics": [
            "0xddf252ad1be2c89b69c2b068fc378daa952ba7f163c4a11628f55a4df523b3ef",
            "0x0000000000000000000000001aeedd3727a6431b8f070c0afaa81cc74f273882",
            "0x000000000000000000000000c261547547fb4b108db504fe200e20db7612d5e9"
          ],
          "data": "0x000000000000000000000000000000000000000000000000000017815d0f3de8",
          "blockHash": "0xb927d60b107ee56646da9b4f4451eefba1564adf439043c53825c6698bb2b0ea",
          "blockNumber": "0x11eb564a",
          "transactionHash": "0x7b1aaf6688ddb82e40f995f9b66dfe17e47b57f323426e5f2e8c6336ccb8d28b",
          "transactionIndex": "0x2",
          "logIndex": "0x22",
          "removed": false
        },
        {
          "address": "0xfc5a1a6eb076a2c7ad06ed22c90d7e710e35ad0a",
          "topics": [
            "0x8c5be1e5ebec7d5bd14f71427d1e84f3dd0314c0f7b2291e5b200ac8c7c3b925",
            "0x000000000000000000000000c261547547fb4b108db504fe200e20db7612d5e9",
            "0x000000000000000000000000e592427a0aece92de3edee1f18e0157c05861564"
          ],
          "data": "0x0000000000000000000000000000000000000000000000000000000000000000",
          "blockHash": "0xb927d60b107ee56646da9b4f4451eefba1564adf439043c53825c6698bb2b0ea",
          "blockNumber": "0x11eb564a",
          "transactionHash": "0x7b1aaf6688ddb82e40f995f9b66dfe17e47b57f323426e5f2e8c6336ccb8d28b",
          "transactionIndex": "0x2",
          "logIndex": "0x23",
          "removed": false
        },
        {
          "address": "0xfc5a1a6eb076a2c7ad06ed22c90d7e710e35ad0a",
          "topics": [
            "0xddf252ad1be2c89b69c2b068fc378daa952ba7f163c4a11628f55a4df523b3ef",
            "0x000000000000000000000000c261547547fb4b108db504fe200e20db7612d5e9",
            "0x0000000000000000000000001aeedd3727a6431b8f070c0afaa81cc74f273882"
          ],
          "data": "0x000000000000000000000000000000000000000000000000000de946fe5661b9",
          "blockHash": "0xb927d60b107ee56646da9b4f4451eefba1564adf439043c53825c6698bb2b0ea",
          "blockNumber": "0x11eb564a",
          "transactionHash": "0x7b1aaf6688ddb82e40f995f9b66dfe17e47b57f323426e5f2e8c6336ccb8d28b",
          "transactionIndex": "0x2",
          "logIndex": "0x24",
          "removed": false
        },
        {
          "address": "0x1aeedd3727a6431b8f070c0afaa81cc74f273882",
          "topics": [
            "0xc42079f94a6350d7e6235f29174924f928cc2ac818eb64fed8004e115fbcca67",
            "0x000000000000000000000000e592427a0aece92de3edee1f18e0157c05861564",
            "0x000000000000000000000000c261547547fb4b108db504fe200e20db7612d5e9"
          ],
          "data": "0xffffffffffffffffffffffffffffffffffffffffffffffffffffe87ea2f0c218000000000000000000000000000000000000000000000000000de946fe5661b9000000000000000000000000000000000000000c4a5a1a708821057e3286149800000000000000000000000000000000000000000000043872c45c0675b8f944000000000000000000000000000000000000000000000000000000000000c402",
          "blockHash": "0xb927d60b107ee56646da9b4f4451eefba1564adf439043c53825c6698bb2b0ea",
          "blockNumber": "0x11eb564a",
          "transactionHash": "0x7b1aaf6688ddb82e40f995f9b66dfe17e47b57f323426e5f2e8c6336ccb8d28b",
          "transactionIndex": "0x2",
          "logIndex": "0x25",
          "removed": false
        },
        {
          "address": "0x82af49447d8a07e3bd95bd0d56f35241523fbab1",
          "topics": [
            "0xddf252ad1be2c89b69c2b068fc378daa952ba7f163c4a11628f55a4df523b3ef",
            "0x000000000000000000000000c261547547fb4b108db504fe200e20db7612d5e9",
            "0x0000000000000000000000000000000000000000000000000000000000000000"
          ],
          "data": "0x0000000000000000000000000000000000000000000000000000b4843db5c97d",
          "blockHash": "0xb927d60b107ee56646da9b4f4451eefba1564adf439043c53825c6698bb2b0ea",
          "blockNumber": "0x11eb564a",
          "transactionHash": "0x7b1aaf6688ddb82e40f995f9b66dfe17e47b57f323426e5f2e8c6336ccb8d28b",
          "transactionIndex": "0x2",
          "logIndex": "0x26",
          "removed": false
        },
        {
          "address": "0x82af49447d8a07e3bd95bd0d56f35241523fbab1",
          "topics": [
            "0xddf252ad1be2c89b69c2b068fc378daa952ba7f163c4a11628f55a4df523b3ef",
            "0x000000000000000000000000c261547547fb4b108db504fe200e20db7612d5e9",
            "0x00000000000000000000000011a8e23dafbe058e9758c899daee0e43f287a96d"
          ],
          "data": "0x0000000000000000000000000000000000000000000000000000002e422d06dd",
          "blockHash": "0xb927d60b107ee56646da9b4f4451eefba1564adf439043c53825c6698bb2b0ea",
          "blockNumber": "0x11eb564a",
          "transactionHash": "0x7b1aaf6688ddb82e40f995f9b66dfe17e47b57f323426e5f2e8c6336ccb8d28b",
          "transactionIndex": "0x2",
          "logIndex": "0x27",
          "removed": false
        },
        {
          "address": "0xc261547547fb4b108db504fe200e20db7612d5e9",
          "topics": [
            "0x4f808f68134f8b72b842a276c2b37b03415d4992c65a94fcee50d33201915b99",
            "0x00000000000000000000000011a8e23dafbe058e9758c899daee0e43f287a96d",
            "0x00000000000000000000000082af49447d8a07e3bd95bd0d56f35241523fbab1"
          ],
          "data": "0x0000000000000000000000000000000000000000000000000de0b6b3a76400000000000000000000000000000000000000000000000000000000b4843db5c97d00000000000000000000000000000000000000000000000000000000679aa8b2",
          "blockHash": "0xb927d60b107ee56646da9b4f4451eefba1564adf439043c53825c6698bb2b0ea",
          "blockNumber": "0x11eb564a",
          "transactionHash": "0x7b1aaf6688ddb82e40f995f9b66dfe17e47b57f323426e5f2e8c6336ccb8d28b",
          "transactionIndex": "0x2",
          "logIndex": "0x28",
          "removed": false
        }
      ],
      "logsBloom": "0x0220200200000000000140000000000000000000800400000000400410000080000001011000000000000800000000040000c002000421000000000001200400000200010000000800000008000000010000000000000004000a80400000000000000000020000000000120480400800100880000001000000020510001800400000080000000000080000000200000000040000400000000000000000010000020000100000000000400280920400008000200000000000000100000000000000000002000400000000020000000000000100000000000000000000200020000010000000000000022000000000000002000100020010800000000010000004",
      "type": "0x2",
      "transactionHash": "0x7b1aaf6688ddb82e40f995f9b66dfe17e47b57f323426e5f2e8c6336ccb8d28b",
      "transactionIndex": "0x2",
      "blockHash": "0xb927d60b107ee56646da9b4f4451eefba1564adf439043c53825c6698bb2b0ea",
      "blockNumber": "0x11eb564a",
      "gasUsed": "0xe7f91",
      "effectiveGasPrice": "0x989680",
      "from": "0x11a8e23dafbe058e9758c899daee0e43f287a96d",
      "to": "0xc261547547fb4b108db504fe200e20db7612d5e9",
      "contractAddress": null,
      "gasUsedForL1": "0x1d535",
      "l1BlockNumber": "0x14b9ef6"
    }
  ],
  "libraries": [],
  "pending": [],
  "returns": {},
  "timestamp": 1738188979,
  "chain": 42161,
  "commit": "5a8789f"
}