{
  "transactions": [
    {
      "hash": "0xa9921a9c2dd29b5b1459df6e1b2bb40c7d48159fa770a8bbf08443b626da35b6",
      "transactionType": "CALL",
      "contractName": null,
      "contractAddress": "0x2f2c4d407c086c3155568dcc1ed4ee25106045ff",
      "function": "issuanceIndexTokensWithEth(uint256)",
      "arguments": [
        "100000000000000"
      ],
      "transaction": {
        "from": "0x11a8e23dafbe058e9758c899daee0e43f287a96d",
        "to": "0x2f2c4d407c086c3155568dcc1ed4ee25106045ff",
        "gas": "0x16adba",
        "value": "0x5b0a58f12800",
        "input": "0x372d4c5500000000000000000000000000000000000000000000000000005af3107a4000",
        "nonce": "0x2e",
        "chainId": "0xa4b1"
      },
      "additionalContracts": [],
      "isFixedGasLimit": false
    },
    {
      "hash": "0x0e9b9ee4e80f70a96f52b7db53648475d2972a0568593949ffc27e0b7ff74396",
      "transactionType": "CALL",
      "contractName": null,
      "contractAddress": "0x2f2c4d407c086c3155568dcc1ed4ee25106045ff",
      "function": "redemption(uint256,address,address[],uint24[],uint24)",
      "arguments": [
        "31621668178900000000",
        "0x82aF49447D8a07e3bd95BD0d56f35241523fBab1",
        "[0x82aF49447D8a07e3bd95BD0d56f35241523fBab1, 0xaf88d065e77c8cC2239327C5EDb3A432268e5831]",
        "[3000]",
        "3"
      ],
      "transaction": {
        "from": "0x11a8e23dafbe058e9758c899daee0e43f287a96d",
        "to": "0x2f2c4d407c086c3155568dcc1ed4ee25106045ff",
        "gas": "0x11390e",
        "value": "0x0",
        "input": "0xf76a48e4000000000000000000000000000000000000000000000001b6d6bbab809b9d0000000000000000000000000082af49447d8a07e3bd95bd0d56f35241523fbab100000000000000000000000000000000000000000000000000000000000000a000000000000000000000000000000000000000000000000000000000000001000000000000000000000000000000000000000000000000000000000000000003000000000000000000000000000000000000000000000000000000000000000200000000000000000000000082af49447d8a07e3bd95bd0d56f35241523fbab1000000000000000000000000af88d065e77c8cc2239327c5edb3a432268e583100000000000000000000000000000000000000000000000000000000000000010000000000000000000000000000000000000000000000000000000000000bb8",
        "nonce": "0x2f",
        "chainId": "0xa4b1"
      },
      "additionalContracts": [],
      "isFixedGasLimit": false
    }
  ],
  "receipts": [
    {
      "status": "0x1",
      "cumulativeGasUsed": "0x284cfd",
      "logs": [
        {
          "address": "0x82af49447d8a07e3bd95bd0d56f35241523fbab1",
          "topics": [
            "0xddf252ad1be2c89b69c2b068fc378daa952ba7f163c4a11628f55a4df523b3ef",
            "0x0000000000000000000000000000000000000000000000000000000000000000",
            "0x0000000000000000000000002f2c4d407c086c3155568dcc1ed4ee25106045ff"
          ],
          "data": "0x00000000000000000000000000000000000000000000000000005b0a58f12800",
          "blockHash": "0x6f37d4b7ac34134b120a7b1232bfbf14c16a1253ea599c0ebecc5c252cba6c84",
          "blockNumber": "0x11eaf2e0",
          "transactionHash": "0xa9921a9c2dd29b5b1459df6e1b2bb40c7d48159fa770a8bbf08443b626da35b6",
          "transactionIndex": "0x6",
          "logIndex": "0x13",
          "removed": false
        },
        {
          "address": "0x82af49447d8a07e3bd95bd0d56f35241523fbab1",
          "topics": [
            "0xddf252ad1be2c89b69c2b068fc378daa952ba7f163c4a11628f55a4df523b3ef",
            "0x0000000000000000000000002f2c4d407c086c3155568dcc1ed4ee25106045ff",
            "0x00000000000000000000000011a8e23dafbe058e9758c899daee0e43f287a96d"
          ],
          "data": "0x000000000000000000000000000000000000000000000000000000174876e800",
          "blockHash": "0x6f37d4b7ac34134b120a7b1232bfbf14c16a1253ea599c0ebecc5c252cba6c84",
          "blockNumber": "0x11eaf2e0",
          "transactionHash": "0xa9921a9c2dd29b5b1459df6e1b2bb40c7d48159fa770a8bbf08443b626da35b6",
          "transactionIndex": "0x6",
          "logIndex": "0x14",
          "removed": false
        },
        {
          "address": "0x82af49447d8a07e3bd95bd0d56f35241523fbab1",
          "topics": [
            "0x8c5be1e5ebec7d5bd14f71427d1e84f3dd0314c0f7b2291e5b200ac8c7c3b925",
            "0x0000000000000000000000002f2c4d407c086c3155568dcc1ed4ee25106045ff",
            "0x000000000000000000000000e592427a0aece92de3edee1f18e0157c05861564"
          ],
          "data": "0x00000000000000000000000000000000000000000000000000000041314cf000",
          "blockHash": "0x6f37d4b7ac34134b120a7b1232bfbf14c16a1253ea599c0ebecc5c252cba6c84",
          "blockNumber": "0x11eaf2e0",
          "transactionHash": "0xa9921a9c2dd29b5b1459df6e1b2bb40c7d48159fa770a8bbf08443b626da35b6",
          "transactionIndex": "0x6",
          "logIndex": "0x15",
          "removed": false
        },
        {
          "address": "0x0c880f6761f1af8d9aa9c466984b80dab9a8c9e8",
          "topics": [
            "0xddf252ad1be2c89b69c2b068fc378daa952ba7f163c4a11628f55a4df523b3ef",
            "0x000000000000000000000000dbaeb7f0dfe3a0aafd798ccecb5b22e708f7852c",
            "0x0000000000000000000000003cb3e448c3f30c1c3655722bdb54541d89ec8e09"
          ],
          "data": "0x0000000000000000000000000000000000000000000000000000ebc5cae7b1b4",
          "blockHash": "0x6f37d4b7ac34134b120a7b1232bfbf14c16a1253ea599c0ebecc5c252cba6c84",
          "blockNumber": "0x11eaf2e0",
          "transactionHash": "0xa9921a9c2dd29b5b1459df6e1b2bb40c7d48159fa770a8bbf08443b626da35b6",
          "transactionIndex": "0x6",
          "logIndex": "0x16",
          "removed": false
        },
        {
          "address": "0x82af49447d8a07e3bd95bd0d56f35241523fbab1",
          "topics": [
            "0xddf252ad1be2c89b69c2b068fc378daa952ba7f163c4a11628f55a4df523b3ef",
            "0x0000000000000000000000002f2c4d407c086c3155568dcc1ed4ee25106045ff",
            "0x000000000000000000000000dbaeb7f0dfe3a0aafd798ccecb5b22e708f7852c"
          ],
          "data": "0x00000000000000000000000000000000000000000000000000000041314cf000",
          "blockHash": "0x6f37d4b7ac34134b120a7b1232bfbf14c16a1253ea599c0ebecc5c252cba6c84",
          "blockNumber": "0x11eaf2e0",
          "transactionHash": "0xa9921a9c2dd29b5b1459df6e1b2bb40c7d48159fa770a8bbf08443b626da35b6",
          "transactionIndex": "0x6",
          "logIndex": "0x17",
          "removed": false
        },
        {
          "address": "0x82af49447d8a07e3bd95bd0d56f35241523fbab1",
          "topics": [
            "0x8c5be1e5ebec7d5bd14f71427d1e84f3dd0314c0f7b2291e5b200ac8c7c3b925",
            "0x0000000000000000000000002f2c4d407c086c3155568dcc1ed4ee25106045ff",
            "0x000000000000000000000000e592427a0aece92de3edee1f18e0157c05861564"
          ],
          "data": "0x0000000000000000000000000000000000000000000000000000000000000000",
          "blockHash": "0x6f37d4b7ac34134b120a7b1232bfbf14c16a1253ea599c0ebecc5c252cba6c84",
          "blockNumber": "0x11eaf2e0",
          "transactionHash": "0xa9921a9c2dd29b5b1459df6e1b2bb40c7d48159fa770a8bbf08443b626da35b6",
          "transactionIndex": "0x6",
          "logIndex": "0x18",
          "removed": false
        },
        {
          "address": "0xdbaeb7f0dfe3a0aafd798ccecb5b22e708f7852c",
          "topics": [
            "0xc42079f94a6350d7e6235f29174924f928cc2ac818eb64fed8004e115fbcca67",
            "0x000000000000000000000000e592427a0aece92de3edee1f18e0157c05861564",
            "0x0000000000000000000000003cb3e448c3f30c1c3655722bdb54541d89ec8e09"
          ],
          "data": "0xffffffffffffffffffffffffffffffffffffffffffffffffffff143a35184e4c00000000000000000000000000000000000000000000000000000041314cf0000000000000000000000000000000000000000000086699f4334caa474b9cf3e4000000000000000000000000000000000000000000001d3aecd584d7baebececfffffffffffffffffffffffffffffffffffffffffffffffffffffffffffef50b",
          "blockHash": "0x6f37d4b7ac34134b120a7b1232bfbf14c16a1253ea599c0ebecc5c252cba6c84",
          "blockNumber": "0x11eaf2e0",
          "transactionHash": "0xa9921a9c2dd29b5b1459df6e1b2bb40c7d48159fa770a8bbf08443b626da35b6",
          "transactionIndex": "0x6",
          "logIndex": "0x19",
          "removed": false
        },
        {
          "address": "0x82af49447d8a07e3bd95bd0d56f35241523fbab1",
          "topics": [
            "0x8c5be1e5ebec7d5bd14f71427d1e84f3dd0314c0f7b2291e5b200ac8c7c3b925",
            "0x0000000000000000000000002f2c4d407c086c3155568dcc1ed4ee25106045ff",
            "0x000000000000000000000000e592427a0aece92de3edee1f18e0157c05861564"
          ],
          "data": "0x000000000000000000000000000000000000000000000000000000358d117c00",
          "blockHash": "0x6f37d4b7ac34134b120a7b1232bfbf14c16a1253ea599c0ebecc5c252cba6c84",
          "blockNumber": "0x11eaf2e0",
          "transactionHash": "0xa9921a9c2dd29b5b1459df6e1b2bb40c7d48159fa770a8bbf08443b626da35b6",
          "transactionIndex": "0x6",
          "logIndex": "0x1a",
          "removed": false
        },
        {
          "address": "0x6694340fc020c5e6b96567843da2df01b2ce1eb6",
          "topics": [
            "0xddf252ad1be2c89b69c2b068fc378daa952ba7f163c4a11628f55a4df523b3ef",
            "0x000000000000000000000000a8bd646f72ea828ccbc40fa2976866884f883409",
            "0x0000000000000000000000003cb3e448c3f30c1c3655722bdb54541d89ec8e09"
          ],
          "data": "0x0000000000000000000000000000000000000000000000000007bf76f4e92be2",
          "blockHash": "0x6f37d4b7ac34134b120a7b1232bfbf14c16a1253ea599c0ebecc5c252cba6c84",
          "blockNumber": "0x11eaf2e0",
          "transactionHash": "0xa9921a9c2dd29b5b1459df6e1b2bb40c7d48159fa770a8bbf08443b626da35b6",
          "transactionIndex": "0x6",
          "logIndex": "0x1b",
          "removed": false
        },
        {
          "address": "0x82af49447d8a07e3bd95bd0d56f35241523fbab1",
          "topics": [
            "0xddf252ad1be2c89b69c2b068fc378daa952ba7f163c4a11628f55a4df523b3ef",
            "0x0000000000000000000000002f2c4d407c086c3155568dcc1ed4ee25106045ff",
            "0x000000000000000000000000a8bd646f72ea828ccbc40fa2976866884f883409"
          ],
          "data": "0x000000000000000000000000000000000000000000000000000000358d117c00",
          "blockHash": "0x6f37d4b7ac34134b120a7b1232bfbf14c16a1253ea599c0ebecc5c252cba6c84",
          "blockNumber": "0x11eaf2e0",
          "transactionHash": "0xa9921a9c2dd29b5b1459df6e1b2bb40c7d48159fa770a8bbf08443b626da35b6",
          "transactionIndex": "0x6",
          "logIndex": "0x1c",
          "removed": false
        },
        {
          "address": "0x82af49447d8a07e3bd95bd0d56f35241523fbab1",
          "topics": [
            "0x8c5be1e5ebec7d5bd14f71427d1e84f3dd0314c0f7b2291e5b200ac8c7c3b925",
            "0x0000000000000000000000002f2c4d407c086c3155568dcc1ed4ee25106045ff",
            "0x000000000000000000000000e592427a0aece92de3edee1f18e0157c05861564"
          ],
          "data": "0x0000000000000000000000000000000000000000000000000000000000000000",
          "blockHash": "0x6f37d4b7ac34134b120a7b1232bfbf14c16a1253ea599c0ebecc5c252cba6c84",
          "blockNumber": "0x11eaf2e0",
          "transactionHash": "0xa9921a9c2dd29b5b1459df6e1b2bb40c7d48159fa770a8bbf08443b626da35b6",
          "transactionIndex": "0x6",
          "logIndex": "0x1d",
          "removed": false
        },
        {
          "address": "0xa8bd646f72ea828ccbc40fa2976866884f883409",
          "topics": [
            "0xc42079f94a6350d7e6235f29174924f928cc2ac818eb64fed8004e115fbcca67",
            "0x000000000000000000000000e592427a0aece92de3edee1f18e0157c05861564",
            "0x0000000000000000000000003cb3e448c3f30c1c3655722bdb54541d89ec8e09"
          ],
          "data": "0xfffffffffffffffffffffffffffffffffffffffffffffffffff840890b16d41e000000000000000000000000000000000000000000000000000000358d117c00000000000000000000000000000000000000000002a003f6ca3b6e322cdec37c0000000000000000000000000000000000000000000001939ea365bbacddbeb1fffffffffffffffffffffffffffffffffffffffffffffffffffffffffffe9a29",
          "blockHash": "0x6f37d4b7ac34134b120a7b1232bfbf14c16a1253ea599c0ebecc5c252cba6c84",
          "blockNumber": "0x11eaf2e0",
          "transactionHash": "0xa9921a9c2dd29b5b1459df6e1b2bb40c7d48159fa770a8bbf08443b626da35b6",
          "transactionIndex": "0x6",
          "logIndex": "0x1e",
          "removed": false
        },
        {
          "address": "0x82af49447d8a07e3bd95bd0d56f35241523fbab1",
          "topics": [
            "0x8c5be1e5ebec7d5bd14f71427d1e84f3dd0314c0f7b2291e5b200ac8c7c3b925",
            "0x0000000000000000000000002f2c4d407c086c3155568dcc1ed4ee25106045ff",
            "0x000000000000000000000000e592427a0aece92de3edee1f18e0157c05861564"
          ],
          "data": "0x00000000000000000000000000000000000000000000000000000029e8d60800",
          "blockHash": "0x6f37d4b7ac34134b120a7b1232bfbf14c16a1253ea599c0ebecc5c252cba6c84",
          "blockNumber": "0x11eaf2e0",
          "transactionHash": "0xa9921a9c2dd29b5b1459df6e1b2bb40c7d48159fa770a8bbf08443b626da35b6",
          "transactionIndex": "0x6",
          "logIndex": "0x1f",
          "removed": false
        },
        {
          "address": "0xfa7f8980b0f1e64a2062791cc3b0871572f1f7f0",
          "topics": [
            "0xddf252ad1be2c89b69c2b068fc378daa952ba7f163c4a11628f55a4df523b3ef",
            "0x000000000000000000000000c24f7d8e51a64dc1238880bd00bb961d54cbeb29",
            "0x0000000000000000000000003cb3e448c3f30c1c3655722bdb54541d89ec8e09"
          ],
          "data": "0x00000000000000000000000000000000000000000000000000002b5e940b0aad",
          "blockHash": "0x6f37d4b7ac34134b120a7b1232bfbf14c16a1253ea599c0ebecc5c252cba6c84",
          "blockNumber": "0x11eaf2e0",
          "transactionHash": "0xa9921a9c2dd29b5b1459df6e1b2bb40c7d48159fa770a8bbf08443b626da35b6",
          "transactionIndex": "0x6",
          "logIndex": "0x20",
          "removed": false
        },
        {
          "address": "0x82af49447d8a07e3bd95bd0d56f35241523fbab1",
          "topics": [
            "0xddf252ad1be2c89b69c2b068fc378daa952ba7f163c4a11628f55a4df523b3ef",
            "0x0000000000000000000000002f2c4d407c086c3155568dcc1ed4ee25106045ff",
            "0x000000000000000000000000c24f7d8e51a64dc1238880bd00bb961d54cbeb29"
          ],
          "data": "0x00000000000000000000000000000000000000000000000000000029e8d60800",
          "blockHash": "0x6f37d4b7ac34134b120a7b1232bfbf14c16a1253ea599c0ebecc5c252cba6c84",
          "blockNumber": "0x11eaf2e0",
          "transactionHash": "0xa9921a9c2dd29b5b1459df6e1b2bb40c7d48159fa770a8bbf08443b626da35b6",
          "transactionIndex": "0x6",
          "logIndex": "0x21",
          "removed": false
        },
        {
          "address": "0x82af49447d8a07e3bd95bd0d56f35241523fbab1",
          "topics": [
            "0x8c5be1e5ebec7d5bd14f71427d1e84f3dd0314c0f7b2291e5b200ac8c7c3b925",
            "0x0000000000000000000000002f2c4d407c086c3155568dcc1ed4ee25106045ff",
            "0x000000000000000000000000e592427a0aece92de3edee1f18e0157c05861564"
          ],
          "data": "0x0000000000000000000000000000000000000000000000000000000000000000",
          "blockHash": "0x6f37d4b7ac34134b120a7b1232bfbf14c16a1253ea599c0ebecc5c252cba6c84",
          "blockNumber": "0x11eaf2e0",
          "transactionHash": "0xa9921a9c2dd29b5b1459df6e1b2bb40c7d48159fa770a8bbf08443b626da35b6",
          "transactionIndex": "0x6",
          "logIndex": "0x22",
          "removed": false
        },
        {
          "address": "0xc24f7d8e51a64dc1238880bd00bb961d54cbeb29",
          "topics": [
            "0xc42079f94a6350d7e6235f29174924f928cc2ac818eb64fed8004e115fbcca67",
            "0x000000000000000000000000e592427a0aece92de3edee1f18e0157c05861564",
            "0x0000000000000000000000003cb3e448c3f30c1c3655722bdb54541d89ec8e09"
          ],
          "data": "0x00000000000000000000000000000000000000000000000000000029e8d60800ffffffffffffffffffffffffffffffffffffffffffffffffffffd4a16bf4f55300000000000000000000000000000000000000104cff052ee5698dba6556f9d600000000000000000000000000000000000000000000042f64e071873a2ded44000000000000000000000000000000000000000000000000000000000000da13",
          "blockHash": "0x6f37d4b7ac34134b120a7b1232bfbf14c16a1253ea599c0ebecc5c252cba6c84",
          "blockNumber": "0x11eaf2e0",
          "transactionHash": "0xa9921a9c2dd29b5b1459df6e1b2bb40c7d48159fa770a8bbf08443b626da35b6",
          "transactionIndex": "0x6",
          "logIndex": "0x23",
          "removed": false
        },
        {
          "address": "0x82af49447d8a07e3bd95bd0d56f35241523fbab1",
          "topics": [
            "0x8c5be1e5ebec7d5bd14f71427d1e84f3dd0314c0f7b2291e5b200ac8c7c3b925",
            "0x0000000000000000000000002f2c4d407c086c3155568dcc1ed4ee25106045ff",
            "0x000000000000000000000000e592427a0aece92de3edee1f18e0157c05861564"
          ],
          "data": "0x00000000000000000000000000000000000000000000000000000029e8d60800",
          "blockHash": "0x6f37d4b7ac34134b120a7b1232bfbf14c16a1253ea599c0ebecc5c252cba6c84",
          "blockNumber": "0x11eaf2e0",
          "transactionHash": "0xa9921a9c2dd29b5b1459df6e1b2bb40c7d48159fa770a8bbf08443b626da35b6",
          "transactionIndex": "0x6",
          "logIndex": "0x24",
          "removed": false
        },
        {
          "address": "0x354a6da3fcde098f8389cad84b0182725c6c91de",
          "topics": [
            "0xddf252ad1be2c89b69c2b068fc378daa952ba7f163c4a11628f55a4df523b3ef",
            "0x000000000000000000000000dfa19e743421c394d904f5a113121c2227d2364b",
            "0x0000000000000000000000003cb3e448c3f30c1c3655722bdb54541d89ec8e09"
          ],
          "data": "0x0000000000000000000000000000000000000000000000000000076844785379",
          "blockHash": "0x6f37d4b7ac34134b120a7b1232bfbf14c16a1253ea599c0ebecc5c252cba6c84",
          "blockNumber": "0x11eaf2e0",
          "transactionHash": "0xa9921a9c2dd29b5b1459df6e1b2bb40c7d48159fa770a8bbf08443b626da35b6",
          "transactionIndex": "0x6",
          "logIndex": "0x25",
          "removed": false
        },
        {
          "address": "0x82af49447d8a07e3bd95bd0d56f35241523fbab1",
          "topics": [
            "0xddf252ad1be2c89b69c2b068fc378daa952ba7f163c4a11628f55a4df523b3ef",
            "0x0000000000000000000000002f2c4d407c086c3155568dcc1ed4ee25106045ff",
            "0x000000000000000000000000dfa19e743421c394d904f5a113121c2227d2364b"
          ],
          "data": "0x00000000000000000000000000000000000000000000000000000029e8d60800",
          "blockHash": "0x6f37d4b7ac34134b120a7b1232bfbf14c16a1253ea599c0ebecc5c252cba6c84",
          "blockNumber": "0x11eaf2e0",
          "transactionHash": "0xa9921a9c2dd29b5b1459df6e1b2bb40c7d48159fa770a8bbf08443b626da35b6",
          "transactionIndex": "0x6",
          "logIndex": "0x26",
          "removed": false
        },
        {
          "address": "0x82af49447d8a07e3bd95bd0d56f35241523fbab1",
          "topics": [
            "0x8c5be1e5ebec7d5bd14f71427d1e84f3dd0314c0f7b2291e5b200ac8c7c3b925",
            "0x0000000000000000000000002f2c4d407c086c3155568dcc1ed4ee25106045ff",
            "0x000000000000000000000000e592427a0aece92de3edee1f18e0157c05861564"
          ],
          "data": "0x0000000000000000000000000000000000000000000000000000000000000000",
          "blockHash": "0x6f37d4b7ac34134b120a7b1232bfbf14c16a1253ea599c0ebecc5c252cba6c84",
          "blockNumber": "0x11eaf2e0",
          "transactionHash": "0xa9921a9c2dd29b5b1459df6e1b2bb40c7d48159fa770a8bbf08443b626da35b6",
          "transactionIndex": "0x6",
          "logIndex": "0x27",
          "removed": false
        },
        {
          "address": "0xdfa19e743421c394d904f5a113121c2227d2364b",
          "topics": [
            "0xc42079f94a6350d7e6235f29174924f928cc2ac818eb64fed8004e115fbcca67",
            "0x000000000000000000000000e592427a0aece92de3edee1f18e0157c05861564",
            "0x0000000000000000000000003cb3e448c3f30c1c3655722bdb54541d89ec8e09"
          ],
          "data": "0xfffffffffffffffffffffffffffffffffffffffffffffffffffff897bb87ac8700000000000000000000000000000000000000000000000000000029e8d60800000000000000000000000000000000000000000026003c101dec954c2a69d5db0000000000000000000000000000000000000000000000103f22b50a0022632cffffffffffffffffffffffffffffffffffffffffffffffffffffffffffff6af6",
          "blockHash": "0x6f37d4b7ac34134b120a7b1232bfbf14c16a1253ea599c0ebecc5c252cba6c84",
          "blockNumber": "0x11eaf2e0",
          "transactionHash": "0xa9921a9c2dd29b5b1459df6e1b2bb40c7d48159fa770a8bbf08443b626da35b6",
          "transactionIndex": "0x6",
          "logIndex": "0x28",
          "removed": false
        },
        {
          "address": "0x82af49447d8a07e3bd95bd0d56f35241523fbab1",
          "topics": [
            "0x8c5be1e5ebec7d5bd14f71427d1e84f3dd0314c0f7b2291e5b200ac8c7c3b925",
            "0x0000000000000000000000002f2c4d407c086c3155568dcc1ed4ee25106045ff",
            "0x000000000000000000000000e592427a0aece92de3edee1f18e0157c05861564"
          ],
          "data": "0x0000000000000000000000000000000000000000000000000000001e449a9400",
          "blockHash": "0x6f37d4b7ac34134b120a7b1232bfbf14c16a1253ea599c0ebecc5c252cba6c84",
          "blockNumber": "0x11eaf2e0",
          "transactionHash": "0xa9921a9c2dd29b5b1459df6e1b2bb40c7d48159fa770a8bbf08443b626da35b6",
          "transactionIndex": "0x6",
          "logIndex": "0x29",
          "removed": false
        },
        {
          "address": "0xfc5a1a6eb076a2c7ad06ed22c90d7e710e35ad0a",
          "topics": [
            "0xddf252ad1be2c89b69c2b068fc378daa952ba7f163c4a11628f55a4df523b3ef",
            "0x0000000000000000000000001aeedd3727a6431b8f070c0afaa81cc74f273882",
            "0x0000000000000000000000003cb3e448c3f30c1c3655722bdb54541d89ec8e09"
          ],
          "data": "0x000000000000000000000000000000000000000000000000000011bee4f19e1a",
          "blockHash": "0x6f37d4b7ac34134b120a7b1232bfbf14c16a1253ea599c0ebecc5c252cba6c84",
          "blockNumber": "0x11eaf2e0",
          "transactionHash": "0xa9921a9c2dd29b5b1459df6e1b2bb40c7d48159fa770a8bbf08443b626da35b6",
          "transactionIndex": "0x6",
          "logIndex": "0x2a",
          "removed": false
        },
        {
          "address": "0x82af49447d8a07e3bd95bd0d56f35241523fbab1",
          "topics": [
            "0xddf252ad1be2c89b69c2b068fc378daa952ba7f163c4a11628f55a4df523b3ef",
            "0x0000000000000000000000002f2c4d407c086c3155568dcc1ed4ee25106045ff",
            "0x0000000000000000000000001aeedd3727a6431b8f070c0afaa81cc74f273882"
          ],
          "data": "0x0000000000000000000000000000000000000000000000000000001e449a9400",
          "blockHash": "0x6f37d4b7ac34134b120a7b1232bfbf14c16a1253ea599c0ebecc5c252cba6c84",
          "blockNumber": "0x11eaf2e0",
          "transactionHash": "0xa9921a9c2dd29b5b1459df6e1b2bb40c7d48159fa770a8bbf08443b626da35b6",
          "transactionIndex": "0x6",
          "logIndex": "0x2b",
          "removed": false
        },
        {
          "address": "0x82af49447d8a07e3bd95bd0d56f35241523fbab1",
          "topics": [
            "0x8c5be1e5ebec7d5bd14f71427d1e84f3dd0314c0f7b2291e5b200ac8c7c3b925",
            "0x0000000000000000000000002f2c4d407c086c3155568dcc1ed4ee25106045ff",
            "0x000000000000000000000000e592427a0aece92de3edee1f18e0157c05861564"
          ],
          "data": "0x0000000000000000000000000000000000000000000000000000000000000000",
          "blockHash": "0x6f37d4b7ac34134b120a7b1232bfbf14c16a1253ea599c0ebecc5c252cba6c84",
          "blockNumber": "0x11eaf2e0",
          "transactionHash": "0xa9921a9c2dd29b5b1459df6e1b2bb40c7d48159fa770a8bbf08443b626da35b6",
          "transactionIndex": "0x6",
          "logIndex": "0x2c",
          "removed": false
        },
        {
          "address": "0x1aeedd3727a6431b8f070c0afaa81cc74f273882",
          "topics": [
            "0xc42079f94a6350d7e6235f29174924f928cc2ac818eb64fed8004e115fbcca67",
            "0x000000000000000000000000e592427a0aece92de3edee1f18e0157c05861564",
            "0x0000000000000000000000003cb3e448c3f30c1c3655722bdb54541d89ec8e09"
          ],
          "data": "0x0000000000000000000000000000000000000000000000000000001e449a9400ffffffffffffffffffffffffffffffffffffffffffffffffffffee411b0e61e6000000000000000000000000000000000000000c44fe2fe5d092c1efe725e62c00000000000000000000000000000000000000000000032e089a7bbb72f3f343000000000000000000000000000000000000000000000000000000000000c3e0",
          "blockHash": "0x6f37d4b7ac34134b120a7b1232bfbf14c16a1253ea599c0ebecc5c252cba6c84",
          "blockNumber": "0x11eaf2e0",
          "transactionHash": "0xa9921a9c2dd29b5b1459df6e1b2bb40c7d48159fa770a8bbf08443b626da35b6",
          "transactionIndex": "0x6",
          "logIndex": "0x2d",
          "removed": false
        },
        {
          "address": "0x70195bd938bb6f558d8d688d4a45335e073d20af",
          "topics": [
            "0xddf252ad1be2c89b69c2b068fc378daa952ba7f163c4a11628f55a4df523b3ef",
            "0x0000000000000000000000000000000000000000000000000000000000000000",
            "0x00000000000000000000000011a8e23dafbe058e9758c899daee0e43f287a96d"
          ],
          "data": "0x000000000000000000000000000000000000000000000001b7992df8a32f0000",
          "blockHash": "0x6f37d4b7ac34134b120a7b1232bfbf14c16a1253ea599c0ebecc5c252cba6c84",
          "blockNumber": "0x11eaf2e0",
          "transactionHash": "0xa9921a9c2dd29b5b1459df6e1b2bb40c7d48159fa770a8bbf08443b626da35b6",
          "transactionIndex": "0x6",
          "logIndex": "0x2e",
          "removed": false
        },
        {
          "address": "0x2f2c4d407c086c3155568dcc1ed4ee25106045ff",
          "topics": [
            "0x4fee1c514ee0e252e3a0babfa8b5030fb89be7ea2b38df9a7fbbf788e54f3d91",
            "0x00000000000000000000000011a8e23dafbe058e9758c899daee0e43f287a96d",
            "0x00000000000000000000000082af49447d8a07e3bd95bd0d56f35241523fbab1"
          ],
          "data": "0x00000000000000000000000000000000000000000000000000005af3107a4000000000000000000000000000000000000000000000000001b7992df8a32f000000000000000000000000000000000000000000000000000000000000679a8fa9",
          "blockHash": "0x6f37d4b7ac34134b120a7b1232bfbf14c16a1253ea599c0ebecc5c252cba6c84",
          "blockNumber": "0x11eaf2e0",
          "transactionHash": "0xa9921a9c2dd29b5b1459df6e1b2bb40c7d48159fa770a8bbf08443b626da35b6",
          "transactionIndex": "0x6",
          "logIndex": "0x2f",
          "removed": false
        }
      ],
      "logsBloom": "0x0220200200000000000140000002000000000000800400000000400400000084000004100000000000000800000000040000c402000420000000000000a00400000200010000200800000008000000010800000000000000000a00400000000000000000020000000000100400400800100080000001000000000110001800400000080000000000000020000200000000040000400001000000000000010020020000180000200080000280920400008000000000000000000100000000000000000002000400000000000000000000000100000000000000000000200020000010000000000000020000000000000002000100020008800000000010000004",
      "type": "0x2",
      "transactionHash": "0xa9921a9c2dd29b5b1459df6e1b2bb40c7d48159fa770a8bbf08443b626da35b6",
      "transactionIndex": "0x6",
      "blockHash": "0x6f37d4b7ac34134b120a7b1232bfbf14c16a1253ea599c0ebecc5c252cba6c84",
      "blockNumber": "0x11eaf2e0",
      "gasUsed": "0xf46ad",
      "effectiveGasPrice": "0x8724ae0",
      "from": "0x11a8e23dafbe058e9758c899daee0e43f287a96d",
      "to": "0x2f2c4d407c086c3155568dcc1ed4ee25106045ff",
      "contractAddress": null,
      "gasUsedForL1": "0x5633",
      "l1BlockNumber": "0x14b9ce3"
    },
    {
      "status": "0x1",
      "cumulativeGasUsed": "0x17658a",
      "logs": [
        {
          "address": "0x70195bd938bb6f558d8d688d4a45335e073d20af",
          "topics": [
            "0xddf252ad1be2c89b69c2b068fc378daa952ba7f163c4a11628f55a4df523b3ef",
            "0x00000000000000000000000011a8e23dafbe058e9758c899daee0e43f287a96d",
            "0x0000000000000000000000000000000000000000000000000000000000000000"
          ],
          "data": "0x000000000000000000000000000000000000000000000001b6d6bbab809b9d00",
          "blockHash": "0x139f20904836ae2ea9c11269e382956e3741e10a63ed34b71b91e5c60d6c8740",
          "blockNumber": "0x11eaf2e5",
          "transactionHash": "0x0e9b9ee4e80f70a96f52b7db53648475d2972a0568593949ffc27e0b7ff74396",
          "transactionIndex": "0x6",
          "logIndex": "0xa",
          "removed": false
        },
        {
          "address": "0x3cb3e448c3f30c1c3655722bdb54541d89ec8e09",
          "topics": [
            "0xa92ff919b850e4909ab2261d907ef955f11bc1716733a6cbece38d163a69af8a"
          ],
          "data": "0x0000000000000000000000000c880f6761f1af8d9aa9c466984b80dab9a8c9e80000000000000000000000002f2c4d407c086c3155568dcc1ed4ee25106045ff0000000000000000000000000000000000000000000000000000eb5d80fcb322",
          "blockHash": "0x139f20904836ae2ea9c11269e382956e3741e10a63ed34b71b91e5c60d6c8740",
          "blockNumber": "0x11eaf2e5",
          "transactionHash": "0x0e9b9ee4e80f70a96f52b7db53648475d2972a0568593949ffc27e0b7ff74396",
          "transactionIndex": "0x6",
          "logIndex": "0xb",
          "removed": false
        },
        {
          "address": "0x0c880f6761f1af8d9aa9c466984b80dab9a8c9e8",
          "topics": [
            "0xddf252ad1be2c89b69c2b068fc378daa952ba7f163c4a11628f55a4df523b3ef",
            "0x0000000000000000000000003cb3e448c3f30c1c3655722bdb54541d89ec8e09",
            "0x0000000000000000000000002f2c4d407c086c3155568dcc1ed4ee25106045ff"
          ],
          "data": "0x0000000000000000000000000000000000000000000000000000eb5d80fcb322",
          "blockHash": "0x139f20904836ae2ea9c11269e382956e3741e10a63ed34b71b91e5c60d6c8740",
          "blockNumber": "0x11eaf2e5",
          "transactionHash": "0x0e9b9ee4e80f70a96f52b7db53648475d2972a0568593949ffc27e0b7ff74396",
          "transactionIndex": "0x6",
          "logIndex": "0xc",
          "removed": false
        },
        {
          "address": "0x0c880f6761f1af8d9aa9c466984b80dab9a8c9e8",
          "topics": [
            "0x8c5be1e5ebec7d5bd14f71427d1e84f3dd0314c0f7b2291e5b200ac8c7c3b925",
            "0x0000000000000000000000002f2c4d407c086c3155568dcc1ed4ee25106045ff",
            "0x000000000000000000000000e592427a0aece92de3edee1f18e0157c05861564"
          ],
          "data": "0x0000000000000000000000000000000000000000000000000000eb5d80fcb322",
          "blockHash": "0x139f20904836ae2ea9c11269e382956e3741e10a63ed34b71b91e5c60d6c8740",
          "blockNumber": "0x11eaf2e5",
          "transactionHash": "0x0e9b9ee4e80f70a96f52b7db53648475d2972a0568593949ffc27e0b7ff74396",
          "transactionIndex": "0x6",
          "logIndex": "0xd",
          "removed": false
        },
        {
          "address": "0x82af49447d8a07e3bd95bd0d56f35241523fbab1",
          "topics": [
            "0xddf252ad1be2c89b69c2b068fc378daa952ba7f163c4a11628f55a4df523b3ef",
            "0x000000000000000000000000dbaeb7f0dfe3a0aafd798ccecb5b22e708f7852c",
            "0x0000000000000000000000002f2c4d407c086c3155568dcc1ed4ee25106045ff"
          ],
          "data": "0x00000000000000000000000000000000000000000000000000000040b0a6b648",
          "blockHash": "0x139f20904836ae2ea9c11269e382956e3741e10a63ed34b71b91e5c60d6c8740",
          "blockNumber": "0x11eaf2e5",
          "transactionHash": "0x0e9b9ee4e80f70a96f52b7db53648475d2972a0568593949ffc27e0b7ff74396",
          "transactionIndex": "0x6",
          "logIndex": "0xe",
          "removed": false
        },
        {
          "address": "0x0c880f6761f1af8d9aa9c466984b80dab9a8c9e8",
          "topics": [
            "0xddf252ad1be2c89b69c2b068fc378daa952ba7f163c4a11628f55a4df523b3ef",
            "0x0000000000000000000000002f2c4d407c086c3155568dcc1ed4ee25106045ff",
            "0x000000000000000000000000dbaeb7f0dfe3a0aafd798ccecb5b22e708f7852c"
          ],
          "data": "0x0000000000000000000000000000000000000000000000000000eb5d80fcb322",
          "blockHash": "0x139f20904836ae2ea9c11269e382956e3741e10a63ed34b71b91e5c60d6c8740",
          "blockNumber": "0x11eaf2e5",
          "transactionHash": "0x0e9b9ee4e80f70a96f52b7db53648475d2972a0568593949ffc27e0b7ff74396",
          "transactionIndex": "0x6",
          "logIndex": "0xf",
          "removed": false
        },
        {
          "address": "0x0c880f6761f1af8d9aa9c466984b80dab9a8c9e8",
          "topics": [
            "0x8c5be1e5ebec7d5bd14f71427d1e84f3dd0314c0f7b2291e5b200ac8c7c3b925",
            "0x0000000000000000000000002f2c4d407c086c3155568dcc1ed4ee25106045ff",
            "0x000000000000000000000000e592427a0aece92de3edee1f18e0157c05861564"
          ],
          "data": "0x0000000000000000000000000000000000000000000000000000000000000000",
          "blockHash": "0x139f20904836ae2ea9c11269e382956e3741e10a63ed34b71b91e5c60d6c8740",
          "blockNumber": "0x11eaf2e5",
          "transactionHash": "0x0e9b9ee4e80f70a96f52b7db53648475d2972a0568593949ffc27e0b7ff74396",
          "transactionIndex": "0x6",
          "logIndex": "0x10",
          "removed": false
        },
        {
          "address": "0xdbaeb7f0dfe3a0aafd798ccecb5b22e708f7852c",
          "topics": [
            "0xc42079f94a6350d7e6235f29174924f928cc2ac818eb64fed8004e115fbcca67",
            "0x000000000000000000000000e592427a0aece92de3edee1f18e0157c05861564",
            "0x0000000000000000000000002f2c4d407c086c3155568dcc1ed4ee25106045ff"
          ],
          "data": "0x0000000000000000000000000000000000000000000000000000eb5d80fcb322ffffffffffffffffffffffffffffffffffffffffffffffffffffffbf4f5949b80000000000000000000000000000000000000000086699f431161ae574474d34000000000000000000000000000000000000000000001d3aecd584d7baebececfffffffffffffffffffffffffffffffffffffffffffffffffffffffffffef50b",
          "blockHash": "0x139f20904836ae2ea9c11269e382956e3741e10a63ed34b71b91e5c60d6c8740",
          "blockNumber": "0x11eaf2e5",
          "transactionHash": "0x0e9b9ee4e80f70a96f52b7db53648475d2972a0568593949ffc27e0b7ff74396",
          "transactionIndex": "0x6",
          "logIndex": "0x11",
          "removed": false
        },
        {
          "address": "0x3cb3e448c3f30c1c3655722bdb54541d89ec8e09",
          "topics": [
            "0xa92ff919b850e4909ab2261d907ef955f11bc1716733a6cbece38d163a69af8a"
          ],
          "data": "0x0000000000000000000000006694340fc020c5e6b96567843da2df01b2ce1eb60000000000000000000000002f2c4d407c086c3155568dcc1ed4ee25106045ff0000000000000000000000000000000000000000000000000007bc099d916f37",
          "blockHash": "0x139f20904836ae2ea9c11269e382956e3741e10a63ed34b71b91e5c60d6c8740",
          "blockNumber": "0x11eaf2e5",
          "transactionHash": "0x0e9b9ee4e80f70a96f52b7db53648475d2972a0568593949ffc27e0b7ff74396",
          "transactionIndex": "0x6",
          "logIndex": "0x12",
          "removed": false
        },
        {
          "address": "0x6694340fc020c5e6b96567843da2df01b2ce1eb6",
          "topics": [
            "0xddf252ad1be2c89b69c2b068fc378daa952ba7f163c4a11628f55a4df523b3ef",
            "0x0000000000000000000000003cb3e448c3f30c1c3655722bdb54541d89ec8e09",
            "0x0000000000000000000000002f2c4d407c086c3155568dcc1ed4ee25106045ff"
          ],
          "data": "0x0000000000000000000000000000000000000000000000000007bc099d916f37",
          "blockHash": "0x139f20904836ae2ea9c11269e382956e3741e10a63ed34b71b91e5c60d6c8740",
          "blockNumber": "0x11eaf2e5",
          "transactionHash": "0x0e9b9ee4e80f70a96f52b7db53648475d2972a0568593949ffc27e0b7ff74396",
          "transactionIndex": "0x6",
          "logIndex": "0x13",
          "removed": false
        },
        {
          "address": "0x6694340fc020c5e6b96567843da2df01b2ce1eb6",
          "topics": [
            "0x8c5be1e5ebec7d5bd14f71427d1e84f3dd0314c0f7b2291e5b200ac8c7c3b925",
            "0x0000000000000000000000002f2c4d407c086c3155568dcc1ed4ee25106045ff",
            "0x000000000000000000000000e592427a0aece92de3edee1f18e0157c05861564"
          ],
          "data": "0x0000000000000000000000000000000000000000000000000007bc099d916f37",
          "blockHash": "0x139f20904836ae2ea9c11269e382956e3741e10a63ed34b71b91e5c60d6c8740",
          "blockNumber": "0x11eaf2e5",
          "transactionHash": "0x0e9b9ee4e80f70a96f52b7db53648475d2972a0568593949ffc27e0b7ff74396",
          "transactionIndex": "0x6",
          "logIndex": "0x14",
          "removed": false
        },
        {
          "address": "0x82af49447d8a07e3bd95bd0d56f35241523fbab1",
          "topics": [
            "0xddf252ad1be2c89b69c2b068fc378daa952ba7f163c4a11628f55a4df523b3ef",
            "0x000000000000000000000000a8bd646f72ea828ccbc40fa2976866884f883409",
            "0x0000000000000000000000002f2c4d407c086c3155568dcc1ed4ee25106045ff"
          ],
          "data": "0x0000000000000000000000000000000000000000000000000000003523645ee3",
          "blockHash": "0x139f20904836ae2ea9c11269e382956e3741e10a63ed34b71b91e5c60d6c8740",
          "blockNumber": "0x11eaf2e5",
          "transactionHash": "0x0e9b9ee4e80f70a96f52b7db53648475d2972a0568593949ffc27e0b7ff74396",
          "transactionIndex": "0x6",
          "logIndex": "0x15",
          "removed": false
        },
        {
          "address": "0x6694340fc020c5e6b96567843da2df01b2ce1eb6",
          "topics": [
            "0xddf252ad1be2c89b69c2b068fc378daa952ba7f163c4a11628f55a4df523b3ef",
            "0x0000000000000000000000002f2c4d407c086c3155568dcc1ed4ee25106045ff",
            "0x000000000000000000000000a8bd646f72ea828ccbc40fa2976866884f883409"
          ],
          "data": "0x0000000000000000000000000000000000000000000000000007bc099d916f37",
          "blockHash": "0x139f20904836ae2ea9c11269e382956e3741e10a63ed34b71b91e5c60d6c8740",
          "blockNumber": "0x11eaf2e5",
          "transactionHash": "0x0e9b9ee4e80f70a96f52b7db53648475d2972a0568593949ffc27e0b7ff74396",
          "transactionIndex": "0x6",
          "logIndex": "0x16",
          "removed": false
        },
        {
          "address": "0x6694340fc020c5e6b96567843da2df01b2ce1eb6",
          "topics": [
            "0x8c5be1e5ebec7d5bd14f71427d1e84f3dd0314c0f7b2291e5b200ac8c7c3b925",
            "0x0000000000000000000000002f2c4d407c086c3155568dcc1ed4ee25106045ff",
            "0x000000000000000000000000e592427a0aece92de3edee1f18e0157c05861564"
          ],
          "data": "0x0000000000000000000000000000000000000000000000000000000000000000",
          "blockHash": "0x139f20904836ae2ea9c11269e382956e3741e10a63ed34b71b91e5c60d6c8740",
          "blockNumber": "0x11eaf2e5",
          "transactionHash": "0x0e9b9ee4e80f70a96f52b7db53648475d2972a0568593949ffc27e0b7ff74396",
          "transactionIndex": "0x6",
          "logIndex": "0x17",
          "removed": false
        },
        {
          "address": "0xa8bd646f72ea828ccbc40fa2976866884f883409",
          "topics": [
            "0xc42079f94a6350d7e6235f29174924f928cc2ac818eb64fed8004e115fbcca67",
            "0x000000000000000000000000e592427a0aece92de3edee1f18e0157c05861564",
            "0x0000000000000000000000002f2c4d407c086c3155568dcc1ed4ee25106045ff"
          ],
          "data": "0x0000000000000000000000000000000000000000000000000007bc099d916f37ffffffffffffffffffffffffffffffffffffffffffffffffffffffcadc9ba11d000000000000000000000000000000000000000002a003f6a887563e3798d5480000000000000000000000000000000000000000000001939ea365bbacddbeb1fffffffffffffffffffffffffffffffffffffffffffffffffffffffffffe9a29",
          "blockHash": "0x139f20904836ae2ea9c11269e382956e3741e10a63ed34b71b91e5c60d6c8740",
          "blockNumber": "0x11eaf2e5",
          "transactionHash": "0x0e9b9ee4e80f70a96f52b7db53648475d2972a0568593949ffc27e0b7ff74396",
          "transactionIndex": "0x6",
          "logIndex": "0x18",
          "removed": false
        },
        {
          "address": "0x3cb3e448c3f30c1c3655722bdb54541d89ec8e09",
          "topics": [
            "0xa92ff919b850e4909ab2261d907ef955f11bc1716733a6cbece38d163a69af8a"
          ],
          "data": "0x000000000000000000000000fa7f8980b0f1e64a2062791cc3b0871572f1f7f00000000000000000000000002f2c4d407c086c3155568dcc1ed4ee25106045ff00000000000000000000000000000000000000000000000000002b4b6510f58a",
          "blockHash": "0x139f20904836ae2ea9c11269e382956e3741e10a63ed34b71b91e5c60d6c8740",
          "blockNumber": "0x11eaf2e5",
          "transactionHash": "0x0e9b9ee4e80f70a96f52b7db53648475d2972a0568593949ffc27e0b7ff74396",
          "transactionIndex": "0x6",
          "logIndex": "0x19",
          "removed": false
        },
        {
          "address": "0xfa7f8980b0f1e64a2062791cc3b0871572f1f7f0",
          "topics": [
            "0xddf252ad1be2c89b69c2b068fc378daa952ba7f163c4a11628f55a4df523b3ef",
            "0x0000000000000000000000003cb3e448c3f30c1c3655722bdb54541d89ec8e09",
            "0x0000000000000000000000002f2c4d407c086c3155568dcc1ed4ee25106045ff"
          ],
          "data": "0x00000000000000000000000000000000000000000000000000002b4b6510f58a",
          "blockHash": "0x139f20904836ae2ea9c11269e382956e3741e10a63ed34b71b91e5c60d6c8740",
          "blockNumber": "0x11eaf2e5",
          "transactionHash": "0x0e9b9ee4e80f70a96f52b7db53648475d2972a0568593949ffc27e0b7ff74396",
          "transactionIndex": "0x6",
          "logIndex": "0x1a",
          "removed": false
        },
        {
          "address": "0xfa7f8980b0f1e64a2062791cc3b0871572f1f7f0",
          "topics": [
            "0x8c5be1e5ebec7d5bd14f71427d1e84f3dd0314c0f7b2291e5b200ac8c7c3b925",
            "0x0000000000000000000000002f2c4d407c086c3155568dcc1ed4ee25106045ff",
            "0x000000000000000000000000e592427a0aece92de3edee1f18e0157c05861564"
          ],
          "data": "0x00000000000000000000000000000000000000000000000000002b4b6510f58a",
          "blockHash": "0x139f20904836ae2ea9c11269e382956e3741e10a63ed34b71b91e5c60d6c8740",
          "blockNumber": "0x11eaf2e5",
          "transactionHash": "0x0e9b9ee4e80f70a96f52b7db53648475d2972a0568593949ffc27e0b7ff74396",
          "transactionIndex": "0x6",
          "logIndex": "0x1b",
          "removed": false
        },
        {
          "address": "0x82af49447d8a07e3bd95bd0d56f35241523fbab1",
          "topics": [
            "0xddf252ad1be2c89b69c2b068fc378daa952ba7f163c4a11628f55a4df523b3ef",
            "0x000000000000000000000000c24f7d8e51a64dc1238880bd00bb961d54cbeb29",
            "0x0000000000000000000000002f2c4d407c086c3155568dcc1ed4ee25106045ff"
          ],
          "data": "0x0000000000000000000000000000000000000000000000000000002996220778",
          "blockHash": "0x139f20904836ae2ea9c11269e382956e3741e10a63ed34b71b91e5c60d6c8740",
          "blockNumber": "0x11eaf2e5",
          "transactionHash": "0x0e9b9ee4e80f70a96f52b7db53648475d2972a0568593949ffc27e0b7ff74396",
          "transactionIndex": "0x6",
          "logIndex": "0x1c",
          "removed": false
        },
        {
          "address": "0xfa7f8980b0f1e64a2062791cc3b0871572f1f7f0",
          "topics": [
            "0xddf252ad1be2c89b69c2b068fc378daa952ba7f163c4a11628f55a4df523b3ef",
            "0x0000000000000000000000002f2c4d407c086c3155568dcc1ed4ee25106045ff",
            "0x000000000000000000000000c24f7d8e51a64dc1238880bd00bb961d54cbeb29"
          ],
          "data": "0x00000000000000000000000000000000000000000000000000002b4b6510f58a",
          "blockHash": "0x139f20904836ae2ea9c11269e382956e3741e10a63ed34b71b91e5c60d6c8740",
          "blockNumber": "0x11eaf2e5",
          "transactionHash": "0x0e9b9ee4e80f70a96f52b7db53648475d2972a0568593949ffc27e0b7ff74396",
          "transactionIndex": "0x6",
          "logIndex": "0x1d",
          "removed": false
        },
        {
          "address": "0xfa7f8980b0f1e64a2062791cc3b0871572f1f7f0",
          "topics": [
            "0x8c5be1e5ebec7d5bd14f71427d1e84f3dd0314c0f7b2291e5b200ac8c7c3b925",
            "0x0000000000000000000000002f2c4d407c086c3155568dcc1ed4ee25106045ff",
            "0x000000000000000000000000e592427a0aece92de3edee1f18e0157c05861564"
          ],
          "data": "0x0000000000000000000000000000000000000000000000000000000000000000",
          "blockHash": "0x139f20904836ae2ea9c11269e382956e3741e10a63ed34b71b91e5c60d6c8740",
          "blockNumber": "0x11eaf2e5",
          "transactionHash": "0x0e9b9ee4e80f70a96f52b7db53648475d2972a0568593949ffc27e0b7ff74396",
          "transactionIndex": "0x6",
          "logIndex": "0x1e",
          "removed": false
        },
        {
          "address": "0xc24f7d8e51a64dc1238880bd00bb961d54cbeb29",
          "topics": [
            "0xc42079f94a6350d7e6235f29174924f928cc2ac818eb64fed8004e115fbcca67",
            "0x000000000000000000000000e592427a0aece92de3edee1f18e0157c05861564",
            "0x0000000000000000000000002f2c4d407c086c3155568dcc1ed4ee25106045ff"
          ],
          "data": "0xffffffffffffffffffffffffffffffffffffffffffffffffffffffd669ddf88800000000000000000000000000000000000000000000000000002b4b6510f58a00000000000000000000000000000000000000104cff053935beca5f9939e99800000000000000000000000000000000000000000000042f64e071873a2ded44000000000000000000000000000000000000000000000000000000000000da13",
          "blockHash": "0x139f20904836ae2ea9c11269e382956e3741e10a63ed34b71b91e5c60d6c8740",
          "blockNumber": "0x11eaf2e5",
          "transactionHash": "0x0e9b9ee4e80f70a96f52b7db53648475d2972a0568593949ffc27e0b7ff74396",
          "transactionIndex": "0x6",
          "logIndex": "0x1f",
          "removed": false
        },
        {
          "address": "0x3cb3e448c3f30c1c3655722bdb54541d89ec8e09",
          "topics": [
            "0xa92ff919b850e4909ab2261d907ef955f11bc1716733a6cbece38d163a69af8a"
          ],
          "data": "0x000000000000000000000000354a6da3fcde098f8389cad84b0182725c6c91de0000000000000000000000002f2c4d407c086c3155568dcc1ed4ee25106045ff00000000000000000000000000000000000000000000000000000764fdb2d5df",
          "blockHash": "0x139f20904836ae2ea9c11269e382956e3741e10a63ed34b71b91e5c60d6c8740",
          "blockNumber": "0x11eaf2e5",
          "transactionHash": "0x0e9b9ee4e80f70a96f52b7db53648475d2972a0568593949ffc27e0b7ff74396",
          "transactionIndex": "0x6",
          "logIndex": "0x20",
          "removed": false
        },
        {
          "address": "0x354a6da3fcde098f8389cad84b0182725c6c91de",
          "topics": [
            "0xddf252ad1be2c89b69c2b068fc378daa952ba7f163c4a11628f55a4df523b3ef",
            "0x0000000000000000000000003cb3e448c3f30c1c3655722bdb54541d89ec8e09",
            "0x0000000000000000000000002f2c4d407c086c3155568dcc1ed4ee25106045ff"
          ],
          "data": "0x00000000000000000000000000000000000000000000000000000764fdb2d5df",
          "blockHash": "0x139f20904836ae2ea9c11269e382956e3741e10a63ed34b71b91e5c60d6c8740",
          "blockNumber": "0x11eaf2e5",
          "transactionHash": "0x0e9b9ee4e80f70a96f52b7db53648475d2972a0568593949ffc27e0b7ff74396",
          "transactionIndex": "0x6",
          "logIndex": "0x21",
          "removed": false
        },
        {
          "address": "0x354a6da3fcde098f8389cad84b0182725c6c91de",
          "topics": [
            "0x8c5be1e5ebec7d5bd14f71427d1e84f3dd0314c0f7b2291e5b200ac8c7c3b925",
            "0x0000000000000000000000002f2c4d407c086c3155568dcc1ed4ee25106045ff",
            "0x000000000000000000000000e592427a0aece92de3edee1f18e0157c05861564"
          ],
          "data": "0x00000000000000000000000000000000000000000000000000000764fdb2d5df",
          "blockHash": "0x139f20904836ae2ea9c11269e382956e3741e10a63ed34b71b91e5c60d6c8740",
          "blockNumber": "0x11eaf2e5",
          "transactionHash": "0x0e9b9ee4e80f70a96f52b7db53648475d2972a0568593949ffc27e0b7ff74396",
          "transactionIndex": "0x6",
          "logIndex": "0x22",
          "removed": false
        },
        {
          "address": "0x82af49447d8a07e3bd95bd0d56f35241523fbab1",
          "topics": [
            "0xddf252ad1be2c89b69c2b068fc378daa952ba7f163c4a11628f55a4df523b3ef",
            "0x000000000000000000000000dfa19e743421c394d904f5a113121c2227d2364b",
            "0x0000000000000000000000002f2c4d407c086c3155568dcc1ed4ee25106045ff"
          ],
          "data": "0x000000000000000000000000000000000000000000000000000000299622077b",
          "blockHash": "0x139f20904836ae2ea9c11269e382956e3741e10a63ed34b71b91e5c60d6c8740",
          "blockNumber": "0x11eaf2e5",
          "transactionHash": "0x0e9b9ee4e80f70a96f52b7db53648475d2972a0568593949ffc27e0b7ff74396",
          "transactionIndex": "0x6",
          "logIndex": "0x23",
          "removed": false
        },
        {
          "address": "0x354a6da3fcde098f8389cad84b0182725c6c91de",
          "topics": [
            "0xddf252ad1be2c89b69c2b068fc378daa952ba7f163c4a11628f55a4df523b3ef",
            "0x0000000000000000000000002f2c4d407c086c3155568dcc1ed4ee25106045ff",
            "0x000000000000000000000000dfa19e743421c394d904f5a113121c2227d2364b"
          ],
          "data": "0x00000000000000000000000000000000000000000000000000000764fdb2d5df",
          "blockHash": "0x139f20904836ae2ea9c11269e382956e3741e10a63ed34b71b91e5c60d6c8740",
          "blockNumber": "0x11eaf2e5",
          "transactionHash": "0x0e9b9ee4e80f70a96f52b7db53648475d2972a0568593949ffc27e0b7ff74396",
          "transactionIndex": "0x6",
          "logIndex": "0x24",
          "removed": false
        },
        {
          "address": "0x354a6da3fcde098f8389cad84b0182725c6c91de",
          "topics": [
            "0x8c5be1e5ebec7d5bd14f71427d1e84f3dd0314c0f7b2291e5b200ac8c7c3b925",
            "0x0000000000000000000000002f2c4d407c086c3155568dcc1ed4ee25106045ff",
            "0x000000000000000000000000e592427a0aece92de3edee1f18e0157c05861564"
          ],
          "data": "0x0000000000000000000000000000000000000000000000000000000000000000",
          "blockHash": "0x139f20904836ae2ea9c11269e382956e3741e10a63ed34b71b91e5c60d6c8740",
          "blockNumber": "0x11eaf2e5",
          "transactionHash": "0x0e9b9ee4e80f70a96f52b7db53648475d2972a0568593949ffc27e0b7ff74396",
          "transactionIndex": "0x6",
          "logIndex": "0x25",
          "removed": false
        },
        {
          "address": "0xdfa19e743421c394d904f5a113121c2227d2364b",
          "topics": [
            "0xc42079f94a6350d7e6235f29174924f928cc2ac818eb64fed8004e115fbcca67",
            "0x000000000000000000000000e592427a0aece92de3edee1f18e0157c05861564",
            "0x0000000000000000000000002f2c4d407c086c3155568dcc1ed4ee25106045ff"
          ],
          "data": "0x00000000000000000000000000000000000000000000000000000764fdb2d5dfffffffffffffffffffffffffffffffffffffffffffffffffffffffd669ddf885000000000000000000000000000000000000000026003c0d8ea42f5641ebe7630000000000000000000000000000000000000000000000103f22b50a0022632cffffffffffffffffffffffffffffffffffffffffffffffffffffffffffff6af6",
          "blockHash": "0x139f20904836ae2ea9c11269e382956e3741e10a63ed34b71b91e5c60d6c8740",
          "blockNumber": "0x11eaf2e5",
          "transactionHash": "0x0e9b9ee4e80f70a96f52b7db53648475d2972a0568593949ffc27e0b7ff74396",
          "transactionIndex": "0x6",
          "logIndex": "0x26",
          "removed": false
        },
        {
          "address": "0x3cb3e448c3f30c1c3655722bdb54541d89ec8e09",
          "topics": [
            "0xa92ff919b850e4909ab2261d907ef955f11bc1716733a6cbece38d163a69af8a"
          ],
          "data": "0x000000000000000000000000fc5a1a6eb076a2c7ad06ed22c90d7e710e35ad0a0000000000000000000000002f2c4d407c086c3155568dcc1ed4ee25106045ff000000000000000000000000000000000000000000000000000011b70b7f0a40",
          "blockHash": "0x139f20904836ae2ea9c11269e382956e3741e10a63ed34b71b91e5c60d6c8740",
          "blockNumber": "0x11eaf2e5",
          "transactionHash": "0x0e9b9ee4e80f70a96f52b7db53648475d2972a0568593949ffc27e0b7ff74396",
          "transactionIndex": "0x6",
          "logIndex": "0x27",
          "removed": false
        },
        {
          "address": "0xfc5a1a6eb076a2c7ad06ed22c90d7e710e35ad0a",
          "topics": [
            "0xddf252ad1be2c89b69c2b068fc378daa952ba7f163c4a11628f55a4df523b3ef",
            "0x0000000000000000000000003cb3e448c3f30c1c3655722bdb54541d89ec8e09",
            "0x0000000000000000000000002f2c4d407c086c3155568dcc1ed4ee25106045ff"
          ],
          "data": "0x000000000000000000000000000000000000000000000000000011b70b7f0a40",
          "blockHash": "0x139f20904836ae2ea9c11269e382956e3741e10a63ed34b71b91e5c60d6c8740",
          "blockNumber": "0x11eaf2e5",
          "transactionHash": "0x0e9b9ee4e80f70a96f52b7db53648475d2972a0568593949ffc27e0b7ff74396",
          "transactionIndex": "0x6",
          "logIndex": "0x28",
          "removed": false
        },
        {
          "address": "0xfc5a1a6eb076a2c7ad06ed22c90d7e710e35ad0a",
          "topics": [
            "0x8c5be1e5ebec7d5bd14f71427d1e84f3dd0314c0f7b2291e5b200ac8c7c3b925",
            "0x0000000000000000000000002f2c4d407c086c3155568dcc1ed4ee25106045ff",
            "0x000000000000000000000000e592427a0aece92de3edee1f18e0157c05861564"
          ],
          "data": "0x000000000000000000000000000000000000000000000000000011b70b7f0a40",
          "blockHash": "0x139f20904836ae2ea9c11269e382956e3741e10a63ed34b71b91e5c60d6c8740",
          "blockNumber": "0x11eaf2e5",
          "transactionHash": "0x0e9b9ee4e80f70a96f52b7db53648475d2972a0568593949ffc27e0b7ff74396",
          "transactionIndex": "0x6",
          "logIndex": "0x29",
          "removed": false
        },
        {
          "address": "0x82af49447d8a07e3bd95bd0d56f35241523fbab1",
          "topics": [
            "0xddf252ad1be2c89b69c2b068fc378daa952ba7f163c4a11628f55a4df523b3ef",
            "0x0000000000000000000000001aeedd3727a6431b8f070c0afaa81cc74f273882",
            "0x0000000000000000000000002f2c4d407c086c3155568dcc1ed4ee25106045ff"
          ],
          "data": "0x0000000000000000000000000000000000000000000000000000001e08dfb00f",
          "blockHash": "0x139f20904836ae2ea9c11269e382956e3741e10a63ed34b71b91e5c60d6c8740",
          "blockNumber": "0x11eaf2e5",
          "transactionHash": "0x0e9b9ee4e80f70a96f52b7db53648475d2972a0568593949ffc27e0b7ff74396",
          "transactionIndex": "0x6",
          "logIndex": "0x2a",
          "removed": false
        },
        {
          "address": "0xfc5a1a6eb076a2c7ad06ed22c90d7e710e35ad0a",
          "topics": [
            "0x8c5be1e5ebec7d5bd14f71427d1e84f3dd0314c0f7b2291e5b200ac8c7c3b925",
            "0x0000000000000000000000002f2c4d407c086c3155568dcc1ed4ee25106045ff",
            "0x000000000000000000000000e592427a0aece92de3edee1f18e0157c05861564"
          ],
          "data": "0x0000000000000000000000000000000000000000000000000000000000000000",
          "blockHash": "0x139f20904836ae2ea9c11269e382956e3741e10a63ed34b71b91e5c60d6c8740",
          "blockNumber": "0x11eaf2e5",
          "transactionHash": "0x0e9b9ee4e80f70a96f52b7db53648475d2972a0568593949ffc27e0b7ff74396",
          "transactionIndex": "0x6",
          "logIndex": "0x2b",
          "removed": false
        },
        {
          "address": "0xfc5a1a6eb076a2c7ad06ed22c90d7e710e35ad0a",
          "topics": [
            "0xddf252ad1be2c89b69c2b068fc378daa952ba7f163c4a11628f55a4df523b3ef",
            "0x0000000000000000000000002f2c4d407c086c3155568dcc1ed4ee25106045ff",
            "0x0000000000000000000000001aeedd3727a6431b8f070c0afaa81cc74f273882"
          ],
          "data": "0x000000000000000000000000000000000000000000000000000011b70b7f0a40",
          "blockHash": "0x139f20904836ae2ea9c11269e382956e3741e10a63ed34b71b91e5c60d6c8740",
          "blockNumber": "0x11eaf2e5",
          "transactionHash": "0x0e9b9ee4e80f70a96f52b7db53648475d2972a0568593949ffc27e0b7ff74396",
          "transactionIndex": "0x6",
          "logIndex": "0x2c",
          "removed": false
        },
        {
          "address": "0x1aeedd3727a6431b8f070c0afaa81cc74f273882",
          "topics": [
            "0xc42079f94a6350d7e6235f29174924f928cc2ac818eb64fed8004e115fbcca67",
            "0x000000000000000000000000e592427a0aece92de3edee1f18e0157c05861564",
            "0x0000000000000000000000002f2c4d407c086c3155568dcc1ed4ee25106045ff"
          ],
          "data": "0xffffffffffffffffffffffffffffffffffffffffffffffffffffffe1f7204ff1000000000000000000000000000000000000000000000000000011b70b7f0a40000000000000000000000000000000000000000c44fe2feb5e7d9f32379a561900000000000000000000000000000000000000000000032e089a7bbb72f3f343000000000000000000000000000000000000000000000000000000000000c3e0",
          "blockHash": "0x139f20904836ae2ea9c11269e382956e3741e10a63ed34b71b91e5c60d6c8740",
          "blockNumber": "0x11eaf2e5",
          "transactionHash": "0x0e9b9ee4e80f70a96f52b7db53648475d2972a0568593949ffc27e0b7ff74396",
          "transactionIndex": "0x6",
          "logIndex": "0x2d",
          "removed": false
        },
        {
          "address": "0x82af49447d8a07e3bd95bd0d56f35241523fbab1",
          "topics": [
            "0xddf252ad1be2c89b69c2b068fc378daa952ba7f163c4a11628f55a4df523b3ef",
            "0x0000000000000000000000002f2c4d407c086c3155568dcc1ed4ee25106045ff",
            "0x0000000000000000000000000000000000000000000000000000000000000000"
          ],
          "data": "0x000000000000000000000000000000000000000000000000000000e6ce09a978",
          "blockHash": "0x139f20904836ae2ea9c11269e382956e3741e10a63ed34b71b91e5c60d6c8740",
          "blockNumber": "0x11eaf2e5",
          "transactionHash": "0x0e9b9ee4e80f70a96f52b7db53648475d2972a0568593949ffc27e0b7ff74396",
          "transactionIndex": "0x6",
          "logIndex": "0x2e",
          "removed": false
        },
        {
          "address": "0x82af49447d8a07e3bd95bd0d56f35241523fbab1",
          "topics": [
            "0xddf252ad1be2c89b69c2b068fc378daa952ba7f163c4a11628f55a4df523b3ef",
            "0x0000000000000000000000002f2c4d407c086c3155568dcc1ed4ee25106045ff",
            "0x00000000000000000000000011a8e23dafbe058e9758c899daee0e43f287a96d"
          ],
          "data": "0x000000000000000000000000000000000000000000000000000000003b252ab5",
          "blockHash": "0x139f20904836ae2ea9c11269e382956e3741e10a63ed34b71b91e5c60d6c8740",
          "blockNumber": "0x11eaf2e5",
          "transactionHash": "0x0e9b9ee4e80f70a96f52b7db53648475d2972a0568593949ffc27e0b7ff74396",
          "transactionIndex": "0x6",
          "logIndex": "0x2f",
          "removed": false
        },
        {
          "address": "0x2f2c4d407c086c3155568dcc1ed4ee25106045ff",
          "topics": [
            "0x4f808f68134f8b72b842a276c2b37b03415d4992c65a94fcee50d33201915b99",
            "0x00000000000000000000000011a8e23dafbe058e9758c899daee0e43f287a96d",
            "0x00000000000000000000000082af49447d8a07e3bd95bd0d56f35241523fbab1"
          ],
          "data": "0x0000000000000000000000000000000000000000000000000dda933d0a02ed7f000000000000000000000000000000000000000000000000000000e6ce09a97800000000000000000000000000000000000000000000000000000000679a8faa",
          "blockHash": "0x139f20904836ae2ea9c11269e382956e3741e10a63ed34b71b91e5c60d6c8740",
          "blockNumber": "0x11eaf2e5",
          "transactionHash": "0x0e9b9ee4e80f70a96f52b7db53648475d2972a0568593949ffc27e0b7ff74396",
          "transactionIndex": "0x6",
          "logIndex": "0x30",
          "removed": false
        }
      ],
      "logsBloom": "0x0220200200000000000140000002000000000000800400000000400410000084000004110002000000000800000000040000c002000420000000000000a00400000200010000200800000008000000010800000000000000000a00400000000000000000020000000000100400400800100880000001000400020110001800400000080000000000000020000200000000040000400000000000000000010020020000180000200000000680920400008000000000000000000100000000000000000002000400000000020000000000000100000000000000000000200020000010000000000000020000000000000002000100020008800000000010000004",
      "type": "0x2",
      "transactionHash": "0x0e9b9ee4e80f70a96f52b7db53648475d2972a0568593949ffc27e0b7ff74396",
      "transactionIndex": "0x6",
      "blockHash": "0x139f20904836ae2ea9c11269e382956e3741e10a63ed34b71b91e5c60d6c8740",
      "blockNumber": "0x11eaf2e5",
      "gasUsed": "0xd1f1d",
      "effectiveGasPrice": "0x87490e8",
      "from": "0x11a8e23dafbe058e9758c899daee0e43f287a96d",
      "to": "0x2f2c4d407c086c3155568dcc1ed4ee25106045ff",
      "contractAddress": null,
      "gasUsedForL1": "0xa9fc",
      "l1BlockNumber": "0x14b9ce3"
    }
  ],
  "libraries": [],
  "pending": [],
  "returns": {},
  "timestamp": 1738182570,
  "chain": 42161,
  "commit": "5a8789f"
}